{
  "_format": "hh-sol-artifact-1",
  "contractName": "LendingPool",
  "sourceName": "contracts/protocol/lendingpool/LendingPool.sol",
  "abi": [
    {
      "anonymous": false,
      "inputs": [
        {
          "indexed": true,
          "internalType": "address",
          "name": "reserve",
          "type": "address"
        },
        {
          "indexed": false,
          "internalType": "address",
          "name": "user",
          "type": "address"
        },
        {
          "indexed": true,
          "internalType": "address",
          "name": "onBehalfOf",
          "type": "address"
        },
        {
          "indexed": false,
          "internalType": "uint256",
          "name": "amount",
          "type": "uint256"
        },
        {
          "indexed": false,
          "internalType": "uint256",
          "name": "borrowRateMode",
          "type": "uint256"
        },
        {
          "indexed": false,
          "internalType": "uint256",
          "name": "borrowRate",
          "type": "uint256"
        },
        {
          "indexed": true,
          "internalType": "uint16",
          "name": "referral",
          "type": "uint16"
        }
      ],
      "name": "Borrow",
      "type": "event"
    },
    {
      "anonymous": false,
      "inputs": [
        {
          "indexed": true,
          "internalType": "address",
          "name": "reserve",
          "type": "address"
        },
        {
          "indexed": false,
          "internalType": "address",
          "name": "user",
          "type": "address"
        },
        {
          "indexed": true,
          "internalType": "address",
          "name": "onBehalfOf",
          "type": "address"
        },
        {
          "indexed": false,
          "internalType": "uint256",
          "name": "amount",
          "type": "uint256"
        },
        {
          "indexed": true,
          "internalType": "uint16",
          "name": "referral",
          "type": "uint16"
        }
      ],
      "name": "Deposit",
      "type": "event"
    },
    {
      "anonymous": false,
      "inputs": [
        {
          "indexed": true,
          "internalType": "address",
          "name": "target",
          "type": "address"
        },
        {
          "indexed": true,
          "internalType": "address",
          "name": "initiator",
          "type": "address"
        },
        {
          "indexed": true,
          "internalType": "address",
          "name": "asset",
          "type": "address"
        },
        {
          "indexed": false,
          "internalType": "uint256",
          "name": "amount",
          "type": "uint256"
        },
        {
          "indexed": false,
          "internalType": "uint256",
          "name": "premium",
          "type": "uint256"
        },
        {
          "indexed": false,
          "internalType": "uint16",
          "name": "referralCode",
          "type": "uint16"
        }
      ],
      "name": "FlashLoan",
      "type": "event"
    },
    {
      "anonymous": false,
      "inputs": [
        {
          "indexed": true,
          "internalType": "address",
          "name": "collateralAsset",
          "type": "address"
        },
        {
          "indexed": true,
          "internalType": "address",
          "name": "debtAsset",
          "type": "address"
        },
        {
          "indexed": true,
          "internalType": "address",
          "name": "user",
          "type": "address"
        },
        {
          "indexed": false,
          "internalType": "uint256",
          "name": "debtToCover",
          "type": "uint256"
        },
        {
          "indexed": false,
          "internalType": "uint256",
          "name": "liquidatedCollateralAmount",
          "type": "uint256"
        },
        {
          "indexed": false,
          "internalType": "address",
          "name": "liquidator",
          "type": "address"
        },
        {
          "indexed": false,
          "internalType": "bool",
          "name": "receiveAToken",
          "type": "bool"
        }
      ],
      "name": "LiquidationCall",
      "type": "event"
    },
    {
      "anonymous": false,
      "inputs": [],
      "name": "Paused",
      "type": "event"
    },
    {
      "anonymous": false,
      "inputs": [
        {
          "indexed": true,
          "internalType": "address",
          "name": "reserve",
          "type": "address"
        },
        {
          "indexed": true,
          "internalType": "address",
          "name": "user",
          "type": "address"
        }
      ],
      "name": "RebalanceStableBorrowRate",
      "type": "event"
    },
    {
      "anonymous": false,
      "inputs": [
        {
          "indexed": true,
          "internalType": "address",
          "name": "reserve",
          "type": "address"
        },
        {
          "indexed": true,
          "internalType": "address",
          "name": "user",
          "type": "address"
        },
        {
          "indexed": true,
          "internalType": "address",
          "name": "repayer",
          "type": "address"
        },
        {
          "indexed": false,
          "internalType": "uint256",
          "name": "amount",
          "type": "uint256"
        }
      ],
      "name": "Repay",
      "type": "event"
    },
    {
      "anonymous": false,
      "inputs": [
        {
          "indexed": true,
          "internalType": "address",
          "name": "reserve",
          "type": "address"
        },
        {
          "indexed": false,
          "internalType": "uint256",
          "name": "liquidityRate",
          "type": "uint256"
        },
        {
          "indexed": false,
          "internalType": "uint256",
          "name": "stableBorrowRate",
          "type": "uint256"
        },
        {
          "indexed": false,
          "internalType": "uint256",
          "name": "variableBorrowRate",
          "type": "uint256"
        },
        {
          "indexed": false,
          "internalType": "uint256",
          "name": "liquidityIndex",
          "type": "uint256"
        },
        {
          "indexed": false,
          "internalType": "uint256",
          "name": "variableBorrowIndex",
          "type": "uint256"
        }
      ],
      "name": "ReserveDataUpdated",
      "type": "event"
    },
    {
      "anonymous": false,
      "inputs": [
        {
          "indexed": true,
          "internalType": "address",
          "name": "reserve",
          "type": "address"
        },
        {
          "indexed": true,
          "internalType": "address",
          "name": "user",
          "type": "address"
        }
      ],
      "name": "ReserveUsedAsCollateralDisabled",
      "type": "event"
    },
    {
      "anonymous": false,
      "inputs": [
        {
          "indexed": true,
          "internalType": "address",
          "name": "reserve",
          "type": "address"
        },
        {
          "indexed": true,
          "internalType": "address",
          "name": "user",
          "type": "address"
        }
      ],
      "name": "ReserveUsedAsCollateralEnabled",
      "type": "event"
    },
    {
      "anonymous": false,
      "inputs": [
        {
          "indexed": true,
          "internalType": "address",
          "name": "reserve",
          "type": "address"
        },
        {
          "indexed": true,
          "internalType": "address",
          "name": "user",
          "type": "address"
        },
        {
          "indexed": false,
          "internalType": "uint256",
          "name": "rateMode",
          "type": "uint256"
        }
      ],
      "name": "Swap",
      "type": "event"
    },
    {
      "anonymous": false,
      "inputs": [],
      "name": "Unpaused",
      "type": "event"
    },
    {
      "anonymous": false,
      "inputs": [
        {
          "indexed": true,
          "internalType": "address",
          "name": "reserve",
          "type": "address"
        },
        {
          "indexed": true,
          "internalType": "address",
          "name": "user",
          "type": "address"
        },
        {
          "indexed": true,
          "internalType": "address",
          "name": "to",
          "type": "address"
        },
        {
          "indexed": false,
          "internalType": "uint256",
          "name": "amount",
          "type": "uint256"
        }
      ],
      "name": "Withdraw",
      "type": "event"
    },
    {
      "inputs": [],
      "name": "FLASHLOAN_PREMIUM_TOTAL",
      "outputs": [
        {
          "internalType": "uint256",
          "name": "",
          "type": "uint256"
        }
      ],
      "stateMutability": "view",
      "type": "function"
    },
    {
      "inputs": [],
      "name": "LENDINGPOOL_REVISION",
      "outputs": [
        {
          "internalType": "uint256",
          "name": "",
          "type": "uint256"
        }
      ],
      "stateMutability": "view",
      "type": "function"
    },
    {
      "inputs": [],
      "name": "MAX_NUMBER_RESERVES",
      "outputs": [
        {
          "internalType": "uint256",
          "name": "",
          "type": "uint256"
        }
      ],
      "stateMutability": "view",
      "type": "function"
    },
    {
      "inputs": [],
      "name": "MAX_STABLE_RATE_BORROW_SIZE_PERCENT",
      "outputs": [
        {
          "internalType": "uint256",
          "name": "",
          "type": "uint256"
        }
      ],
      "stateMutability": "view",
      "type": "function"
    },
    {
      "inputs": [
        {
          "internalType": "address",
          "name": "asset",
          "type": "address"
        },
        {
          "internalType": "uint256",
          "name": "amount",
          "type": "uint256"
        },
        {
          "internalType": "uint256",
          "name": "interestRateMode",
          "type": "uint256"
        },
        {
          "internalType": "uint16",
          "name": "referralCode",
          "type": "uint16"
        },
        {
          "internalType": "address",
          "name": "onBehalfOf",
          "type": "address"
        }
      ],
      "name": "borrow",
      "outputs": [],
      "stateMutability": "nonpayable",
      "type": "function"
    },
    {
      "inputs": [
        {
          "internalType": "address",
          "name": "asset",
          "type": "address"
        },
        {
          "internalType": "uint256",
          "name": "amount",
          "type": "uint256"
        },
        {
          "internalType": "address",
          "name": "onBehalfOf",
          "type": "address"
        },
        {
          "internalType": "uint16",
          "name": "referralCode",
          "type": "uint16"
        }
      ],
      "name": "deposit",
      "outputs": [],
      "stateMutability": "nonpayable",
      "type": "function"
    },
    {
      "inputs": [
        {
          "internalType": "address",
          "name": "asset",
          "type": "address"
        },
        {
          "internalType": "address",
          "name": "from",
          "type": "address"
        },
        {
          "internalType": "address",
          "name": "to",
          "type": "address"
        },
        {
          "internalType": "uint256",
          "name": "amount",
          "type": "uint256"
        },
        {
          "internalType": "uint256",
          "name": "balanceFromBefore",
          "type": "uint256"
        },
        {
          "internalType": "uint256",
          "name": "balanceToBefore",
          "type": "uint256"
        }
      ],
      "name": "finalizeTransfer",
      "outputs": [],
      "stateMutability": "nonpayable",
      "type": "function"
    },
    {
      "inputs": [
        {
          "internalType": "address",
          "name": "receiverAddress",
          "type": "address"
        },
        {
          "internalType": "address[]",
          "name": "assets",
          "type": "address[]"
        },
        {
          "internalType": "uint256[]",
          "name": "amounts",
          "type": "uint256[]"
        },
        {
          "internalType": "uint256[]",
          "name": "modes",
          "type": "uint256[]"
        },
        {
          "internalType": "address",
          "name": "onBehalfOf",
          "type": "address"
        },
        {
          "internalType": "bytes",
          "name": "params",
          "type": "bytes"
        },
        {
          "internalType": "uint16",
          "name": "referralCode",
          "type": "uint16"
        }
      ],
      "name": "flashLoan",
      "outputs": [],
      "stateMutability": "nonpayable",
      "type": "function"
    },
    {
      "inputs": [],
      "name": "getAddressesProvider",
      "outputs": [
        {
          "internalType": "contract ILendingPoolAddressesProvider",
          "name": "",
          "type": "address"
        }
      ],
      "stateMutability": "view",
      "type": "function"
    },
    {
      "inputs": [
        {
          "internalType": "address",
          "name": "asset",
          "type": "address"
        }
      ],
      "name": "getConfiguration",
      "outputs": [
        {
          "components": [
            {
              "internalType": "uint256",
              "name": "data",
              "type": "uint256"
            }
          ],
          "internalType": "struct DataTypes.ReserveConfigurationMap",
          "name": "",
          "type": "tuple"
        }
      ],
      "stateMutability": "view",
      "type": "function"
    },
    {
      "inputs": [
        {
          "internalType": "address",
          "name": "asset",
          "type": "address"
        }
      ],
      "name": "getReserveData",
      "outputs": [
        {
          "components": [
            {
              "components": [
                {
                  "internalType": "uint256",
                  "name": "data",
                  "type": "uint256"
                }
              ],
              "internalType": "struct DataTypes.ReserveConfigurationMap",
              "name": "configuration",
              "type": "tuple"
            },
            {
              "internalType": "uint128",
              "name": "liquidityIndex",
              "type": "uint128"
            },
            {
              "internalType": "uint128",
              "name": "variableBorrowIndex",
              "type": "uint128"
            },
            {
              "internalType": "uint128",
              "name": "currentLiquidityRate",
              "type": "uint128"
            },
            {
              "internalType": "uint128",
              "name": "currentVariableBorrowRate",
              "type": "uint128"
            },
            {
              "internalType": "uint128",
              "name": "currentStableBorrowRate",
              "type": "uint128"
            },
            {
              "internalType": "uint40",
              "name": "lastUpdateTimestamp",
              "type": "uint40"
            },
            {
              "internalType": "address",
              "name": "aTokenAddress",
              "type": "address"
            },
            {
              "internalType": "address",
              "name": "stableDebtTokenAddress",
              "type": "address"
            },
            {
              "internalType": "address",
              "name": "variableDebtTokenAddress",
              "type": "address"
            },
            {
              "internalType": "address",
              "name": "interestRateStrategyAddress",
              "type": "address"
            },
            {
              "internalType": "address",
              "name": "creditTokensAddress",
              "type": "address"
            },
            {
              "internalType": "uint8",
              "name": "id",
              "type": "uint8"
            }
          ],
          "internalType": "struct DataTypes.ReserveData",
          "name": "",
          "type": "tuple"
        }
      ],
      "stateMutability": "view",
      "type": "function"
    },
    {
      "inputs": [
        {
          "internalType": "address",
          "name": "asset",
          "type": "address"
        }
      ],
      "name": "getReserveNormalizedIncome",
      "outputs": [
        {
          "internalType": "uint256",
          "name": "",
          "type": "uint256"
        }
      ],
      "stateMutability": "view",
      "type": "function"
    },
    {
      "inputs": [
        {
          "internalType": "address",
          "name": "asset",
          "type": "address"
        }
      ],
      "name": "getReserveNormalizedVariableDebt",
      "outputs": [
        {
          "internalType": "uint256",
          "name": "",
          "type": "uint256"
        }
      ],
      "stateMutability": "view",
      "type": "function"
    },
    {
      "inputs": [],
      "name": "getReservesList",
      "outputs": [
        {
          "internalType": "address[]",
          "name": "",
          "type": "address[]"
        }
      ],
      "stateMutability": "view",
      "type": "function"
    },
    {
      "inputs": [
        {
          "internalType": "address",
          "name": "user",
          "type": "address"
        }
      ],
      "name": "getUserAccountData",
      "outputs": [
        {
          "internalType": "uint256",
          "name": "totalCollateralETH",
          "type": "uint256"
        },
        {
          "internalType": "uint256",
          "name": "totalDebtETH",
          "type": "uint256"
        },
        {
          "internalType": "uint256",
          "name": "availableBorrowsETH",
          "type": "uint256"
        },
        {
          "internalType": "uint256",
          "name": "currentLiquidationThreshold",
          "type": "uint256"
        },
        {
          "internalType": "uint256",
          "name": "ltv",
          "type": "uint256"
        },
        {
          "internalType": "uint256",
          "name": "healthFactor",
          "type": "uint256"
        },
        {
          "internalType": "uint256",
          "name": "totalCreditInEth",
          "type": "uint256"
        }
      ],
      "stateMutability": "view",
      "type": "function"
    },
    {
      "inputs": [
        {
          "internalType": "address",
          "name": "user",
          "type": "address"
        }
      ],
      "name": "getUserConfiguration",
      "outputs": [
        {
          "components": [
            {
              "internalType": "uint256",
              "name": "data",
              "type": "uint256"
            }
          ],
          "internalType": "struct DataTypes.UserConfigurationMap",
          "name": "",
          "type": "tuple"
        }
      ],
      "stateMutability": "view",
      "type": "function"
    },
    {
      "inputs": [
        {
          "internalType": "address",
          "name": "asset",
          "type": "address"
        },
        {
          "internalType": "address",
          "name": "aTokenAddress",
          "type": "address"
        },
        {
          "internalType": "address",
          "name": "stableDebtAddress",
          "type": "address"
        },
        {
          "internalType": "address",
          "name": "variableDebtAddress",
          "type": "address"
        },
        {
          "internalType": "address",
          "name": "interestRateStrategyAddress",
          "type": "address"
        },
        {
          "internalType": "address",
          "name": "creditTokenAddress",
          "type": "address"
        }
      ],
      "name": "initReserve",
      "outputs": [],
      "stateMutability": "nonpayable",
      "type": "function"
    },
    {
      "inputs": [
        {
          "internalType": "contract ILendingPoolAddressesProvider",
          "name": "provider",
          "type": "address"
        }
      ],
      "name": "initialize",
      "outputs": [],
      "stateMutability": "nonpayable",
      "type": "function"
    },
    {
      "inputs": [
        {
          "internalType": "address",
          "name": "collateralAsset",
          "type": "address"
        },
        {
          "internalType": "address",
          "name": "debtAsset",
          "type": "address"
        },
        {
          "internalType": "address",
          "name": "user",
          "type": "address"
        },
        {
          "internalType": "uint256",
          "name": "debtToCover",
          "type": "uint256"
        },
        {
          "internalType": "bool",
          "name": "receiveAToken",
          "type": "bool"
        }
      ],
      "name": "liquidationCall",
      "outputs": [],
      "stateMutability": "nonpayable",
      "type": "function"
    },
    {
      "inputs": [],
      "name": "paused",
      "outputs": [
        {
          "internalType": "bool",
          "name": "",
          "type": "bool"
        }
      ],
      "stateMutability": "view",
      "type": "function"
    },
    {
      "inputs": [
        {
          "internalType": "address",
          "name": "asset",
          "type": "address"
        },
        {
          "internalType": "address",
          "name": "user",
          "type": "address"
        }
      ],
      "name": "rebalanceStableBorrowRate",
      "outputs": [],
      "stateMutability": "nonpayable",
      "type": "function"
    },
    {
      "inputs": [
        {
          "internalType": "address",
          "name": "asset",
          "type": "address"
        },
        {
          "internalType": "uint256",
          "name": "amount",
          "type": "uint256"
        },
        {
          "internalType": "uint256",
          "name": "rateMode",
          "type": "uint256"
        },
        {
          "internalType": "address",
          "name": "onBehalfOf",
          "type": "address"
        }
      ],
      "name": "repay",
      "outputs": [
        {
          "internalType": "uint256",
          "name": "",
          "type": "uint256"
        }
      ],
      "stateMutability": "nonpayable",
      "type": "function"
    },
    {
      "inputs": [
        {
          "internalType": "address",
          "name": "asset",
          "type": "address"
        },
        {
          "internalType": "uint256",
          "name": "configuration",
          "type": "uint256"
        }
      ],
      "name": "setConfiguration",
      "outputs": [],
      "stateMutability": "nonpayable",
      "type": "function"
    },
    {
      "inputs": [
        {
          "internalType": "bool",
          "name": "val",
          "type": "bool"
        }
      ],
      "name": "setPause",
      "outputs": [],
      "stateMutability": "nonpayable",
      "type": "function"
    },
    {
      "inputs": [
        {
          "internalType": "address",
          "name": "asset",
          "type": "address"
        },
        {
          "internalType": "address",
          "name": "rateStrategyAddress",
          "type": "address"
        }
      ],
      "name": "setReserveInterestRateStrategyAddress",
      "outputs": [],
      "stateMutability": "nonpayable",
      "type": "function"
    },
    {
      "inputs": [
        {
          "internalType": "address",
          "name": "asset",
          "type": "address"
        },
        {
          "internalType": "bool",
          "name": "useAsCollateral",
          "type": "bool"
        }
      ],
      "name": "setUserUseReserveAsCollateral",
      "outputs": [],
      "stateMutability": "nonpayable",
      "type": "function"
    },
    {
      "inputs": [
        {
          "internalType": "address",
          "name": "asset",
          "type": "address"
        },
        {
          "internalType": "uint256",
          "name": "rateMode",
          "type": "uint256"
        }
      ],
      "name": "swapBorrowRateMode",
      "outputs": [],
      "stateMutability": "nonpayable",
      "type": "function"
    },
    {
      "inputs": [
        {
          "internalType": "address",
          "name": "asset",
          "type": "address"
        },
        {
          "internalType": "uint256",
          "name": "amount",
          "type": "uint256"
        },
        {
          "internalType": "address",
          "name": "to",
          "type": "address"
        }
      ],
      "name": "withdraw",
      "outputs": [
        {
          "internalType": "uint256",
          "name": "",
          "type": "uint256"
        }
      ],
      "stateMutability": "nonpayable",
      "type": "function"
    }
  ],
  "bytecode": "0x60806040526000805534801561001457600080fd5b50615c6380620000256000396000f3fe608060405234801561001057600080fd5b50600436106101c35760003560e01c8063ac6abd4e116100f9578063d15e005311610097578063e82fec2f11610071578063e82fec2f146103c3578063e8eda9df146103cb578063f8119d51146103de578063fe65acfe146103e6576101c3565b8063d15e005314610388578063d1946dbc1461039b578063d5ed3933146103b0576101c3565b8063bf92857c116100d3578063bf92857c14610329578063c44b11f71461034f578063c4d66de814610362578063cd11238214610375576101c3565b8063ac6abd4e146102f0578063b8d2927614610303578063bedb86fb14610316576101c3565b80635a3b74b9116101665780638afaff02116101405780638afaff02146102af57806394ba89a2146102b7578063a415bcad146102ca578063ab9c4b5d146102dd576101c3565b80635a3b74b9146102745780635c975abb1461028757806369328dec1461029c576101c3565b806335ea6a75116101a257806335ea6a751461020e578063386497fd1461022e5780634417a58314610241578063573ade8114610261576101c3565b8062a718a9146101c8578063074b2e43146101dd5780631d2118f9146101fb575b600080fd5b6101db6101d6366004614e21565b6103fb565b005b6101e56105d1565b6040516101f29190615b08565b60405180910390f35b6101db610209366004614d68565b6105d7565b61022161021c366004614d30565b610610565b6040516101f291906158d5565b6101e561023c366004614d30565b6106ff565b61025461024f366004614d30565b610726565b6040516101f291906158cb565b6101e561026f3660046150ce565b610759565b6101db610282366004614fe4565b610b5f565b61028f610d24565b6040516101f291906156f8565b6101e56102aa36600461503c565b610d2d565b6101e5611057565b6101db6102c5366004615011565b61105c565b6101db6102d8366004615117565b611434565b6101db6102eb366004614eec565b6114b4565b6101db6102fe366004614da0565b611b88565b6101db610311366004615011565b611c65565b6101db610324366004615166565b611c89565b61033c610337366004614d30565b611d04565b6040516101f29796959493929190615b5a565b61025461035d366004614d30565b611e06565b6101db610370366004614d30565b611e39565b6101db610383366004614d68565b611ee1565b6101e5610396366004614d30565b612157565b6103a3612178565b6040516101f291906156ab565b6101db6103be366004614e88565b61221d565b6101e5612466565b6101db6103d936600461507d565b61246c565b6101e5612699565b6103ee61269f565b6040516101f291906153d9565b6104036126ae565b6034546040805163712d917160e01b815290516000926001600160a01b03169163712d9171916004808301926020929190829003018186803b15801561044857600080fd5b505afa15801561045c573d6000803e3d6000fd5b505050506040513d601f19601f820116820180604052508101906104809190614d4c565b905060006060826001600160a01b031688888888886040516024016104a9959493929190615461565b60408051601f198184030181529181526020820180516001600160e01b031662a718a960e01b179052516104dd91906153bd565b600060405180830381855af49150503d8060008114610518576040519150601f19603f3d011682016040523d82523d6000602084013e61051d565b606091505b50915091508160405180604001604052806002815260200161323360f01b815250906105655760405162461bcd60e51b815260040161055c9190615703565b60405180910390fd5b50600060608280602001905181019061057e91906151b6565b91509150816000148160405160200161059791906153bd565b604051602081830303815290604052906105c45760405162461bcd60e51b815260040161055c9190615703565b5050505050505050505050565b603b5490565b6105df6126ec565b6001600160a01b03918216600090815260356020526040902060070180546001600160a01b03191691909216179055565b610618614a6f565b506001600160a01b0381811660009081526035602090815260409182902082516101c08101845281546101a08201908152815260018201546001600160801b0380821694830194909452600160801b908190048416948201949094526002820154808416606083015284900483166080820152600382015492831660a08201529290910464ffffffffff1660c08301526004810154831660e083015260058101548316610100830152600681015483166101208301526007810154831661014083015260080154918216610160820152600160a01b90910460ff166101808201525b919050565b6001600160a01b0381166000908152603560205260408120610720906127ab565b92915050565b61072e614ae2565b506001600160a01b031660009081526036602090815260409182902082519182019092529054815290565b60006107636126ae565b6001600160a01b03851660009081526035602052604081208691806107888684612820565b91509150600087600281111561079a57fe5b60405163fa0c214960e01b815290915073__$de8c0cf1a7d7c36c802af9a64fb9d86036$__9063fa0c2149906107de9087908d9086908d908a908a90600401615ac6565b60006040518083038186803b1580156107f657600080fd5b505af415801561080a573d6000803e3d6000fd5b50600092506001915061081a9050565b82600281111561082657fe5b146108315782610833565b835b9050808a10156108405750885b600061084b86612935565b905061085686612b93565b600183600281111561086457fe5b14156108d5576005860154604051632770a7eb60e21b81526001600160a01b0390911690639dc29fac9061089e908c90869060040161541e565b600060405180830381600087803b1580156108b857600080fd5b505af11580156108cc573d6000803e3d6000fd5b50505050610953565b60068601546001870154604051637a94c56560e11b81526001600160a01b039092169163f5298aca91610920918d918791600160801b9091046001600160801b031690600401615437565b600060405180830381600087803b15801561093a57600080fd5b505af115801561094e573d6000803e3d6000fd5b505050505b600486015460088701546001600160a01b03918216911661098489836109798787612c60565b8b9291906000612ca2565b61099884610992898961300a565b90612c60565b6109d05760088801546001600160a01b038c1660009081526036602052604081206109d0929091600160a01b90910460ff169061302f565b6109f133836109df8787612c60565b6001600160a01b038d1692919061309f565b6001600160a01b0382166388dd91a133610a0b8787612c60565b6040518363ffffffff1660e01b8152600401610a2892919061541e565b600060405180830381600087803b158015610a4257600080fd5b505af1158015610a56573d6000803e3d6000fd5b50610a70925050506001600160a01b038a1633838661309f565b60405163b3f1c93d60e01b81526001600160a01b0382169063b3f1c93d90610aa3908e90819088906000906004016154b9565b602060405180830381600087803b158015610abd57600080fd5b505af1158015610ad1573d6000803e3d6000fd5b505050506040513d601f19601f82011682018060405250810190610af59190615182565b50336001600160a01b03168b6001600160a01b03168a6001600160a01b03167f4cdde6e09bb755c9a5589ebaec640bbfedff1362d4b255ebf8339782b9942faa87604051610b439190615b08565b60405180910390a450919750505050505050505b949350505050565b610b676126ae565b6001600160a01b03808316600090815260356020818152604080842033855260368352938190206038546034548351631f94a27560e31b81529351969773__$de8c0cf1a7d7c36c802af9a64fb9d86036$__97635fa297e5978a978d978d9792969295603795939493169263fca513a892600480840193919291829003018186803b158015610bf557600080fd5b505afa158015610c09573d6000803e3d6000fd5b505050506040513d601f19601f82011682018060405250810190610c2d9190614d4c565b6040518963ffffffff1660e01b8152600401610c50989796959493929190615a13565b60006040518083038186803b158015610c6857600080fd5b505af4158015610c7c573d6000803e3d6000fd5b505050506008810154336000908152603660205260409020610ca891600160a01b900460ff16846130fd565b8115610ce85760405133906001600160a01b038516907e058a56ea94653cdf4f152d227ace22d4c00ad99e2a43f58cb7d9e3feb295f290600090a3610d1f565b60405133906001600160a01b038516907f44c58d81365b66dd4b1a7f36c25aa97b8c71c361ee4937adc1a00000227db5dd90600090a35b505050565b60395460ff1690565b6000610d376126ae565b6001600160a01b0380851660009081526035602052604080822060048082015492516370a0823160e01b8152919492909216929183916370a0823191610d7f913391016153d9565b60206040518083038186803b158015610d9757600080fd5b505afa158015610dab573d6000803e3d6000fd5b505050506040513d601f19601f82011682018060405250810190610dcf919061519e565b905085600019811415610ddf5750805b73__$de8c0cf1a7d7c36c802af9a64fb9d86036$__63d09db04a898385603560366000336001600160a01b03166001600160a01b031681526020019081526020016000206037603854603460009054906101000a90046001600160a01b03166001600160a01b031663fca513a86040518163ffffffff1660e01b815260040160206040518083038186803b158015610e7657600080fd5b505afa158015610e8a573d6000803e3d6000fd5b505050506040513d601f19601f82011682018060405250810190610eae9190614d4c565b6040518963ffffffff1660e01b8152600401610ed198979695949392919061558a565b60006040518083038186803b158015610ee957600080fd5b505af4158015610efd573d6000803e3d6000fd5b50505050610f0a84612b93565b610f18848985600085612ca2565b81811415610f82576008840154336000908152603660205260408120610f4b929091600160a01b90910460ff16906130fd565b60405133906001600160a01b038a16907f44c58d81365b66dd4b1a7f36c25aa97b8c71c361ee4937adc1a00000227db5dd90600090a35b6001840154604051636b81068560e11b81526001600160a01b0385169163d7020d0a91610fc39133918b9187916001600160801b03909116906004016153ed565b600060405180830381600087803b158015610fdd57600080fd5b505af1158015610ff1573d6000803e3d6000fd5b50505050856001600160a01b0316336001600160a01b0316896001600160a01b03167f3115d1449a7b732c986cba18244e897a450f61e1bb8d589cd2e69e6c8924f9f7846040516110429190615b08565b60405180910390a493505050505b9392505050565b600281565b6110646126ae565b6001600160a01b038216600090815260356020526040812090806110883384612820565b915091506110bf604051806060016040528060248152602001615be5602491396110b184613173565b6110ba84613173565b61324e565b60008460028111156110cd57fe5b3360009081526036602052604090819020905163a8695b1d60e01b815291925073__$de8c0cf1a7d7c36c802af9a64fb9d86036$__9163a8695b1d9161111e91889190889088908890600401615a83565b60006040518083038186803b15801561113657600080fd5b505af415801561114a573d6000803e3d6000fd5b5050505061115784612b93565b600181600281111561116557fe5b1415611275576005840154604051632770a7eb60e21b81526001600160a01b0390911690639dc29fac9061119f903390879060040161541e565b600060405180830381600087803b1580156111b957600080fd5b505af11580156111cd573d6000803e3d6000fd5b505050506006840154600185015460405163b3f1c93d60e01b81526001600160a01b039092169163b3f1c93d9161121d91339182918991600160801b90046001600160801b0316906004016153ed565b602060405180830381600087803b15801561123757600080fd5b505af115801561124b573d6000803e3d6000fd5b505050506040513d601f19601f8201168201806040525081019061126f9190615182565b5061138b565b60068401546001850154604051637a94c56560e11b81526001600160a01b039092169163f5298aca916112c09133918791600160801b9091046001600160801b031690600401615437565b600060405180830381600087803b1580156112da57600080fd5b505af11580156112ee573d6000803e3d6000fd5b505050506005840154600385015460405163b3f1c93d60e01b81526001600160a01b039092169163b3f1c93d91611337913391829188916001600160801b0316906004016153ed565b602060405180830381600087803b15801561135157600080fd5b505af1158015611365573d6000803e3d6000fd5b505050506040513d601f19601f820116820180604052508101906113899190615182565b505b6000806113983387612820565b915091506113c1604051806060016040528060258152602001615c09602591396110b184613173565b60048601546113df9087908a906001600160a01b0316600080612ca2565b336001600160a01b0316886001600160a01b03167fea368a40e9570069bb8e6511d668293ad2e1f03b0d982431fd223de9f3b70ca6896040516114229190615b08565b60405180910390a35050505050505050565b61143c6126ae565b6001600160a01b038086166000818152603560209081526040918290208251610100810184529384523391840191909152848416918301919091526060820187905260808201869052600481015490921660a082015261ffff841660c0820152600160e08201526114ac90613295565b505050505050565b6114bc6126ae565b6114c4614af5565b6115318b8b8080602002602001604051908101604052809392919081815260200183836020028082843760009201919091525050604080516020808f0282810182019093528e82529093508e92508d91829185019084908082843760009201919091525061378e92505050565b60608a67ffffffffffffffff8111801561154a57600080fd5b50604051908082528060200260200182016040528015611574578160200160208202803683370190505b50905060608b67ffffffffffffffff8111801561159057600080fd5b506040519080825280602002602001820160405280156115ba578160200160208202803683370190505b506001600160a01b038f1684526000604085015290505b60408301518c111561177e57603560008e8e86604001518181106115f157fe5b90506020020160208101906116069190614d30565b6001600160a01b03166001600160a01b0316815260200190815260200160002060040160009054906101000a90046001600160a01b03168284604001518151811061164d57fe5b60200260200101906001600160a01b031690816001600160a01b0316815250506116a461271061169e603b548e8e886040015181811061168957fe5b905060200201356137cc90919063ffffffff16565b90613806565b818460400151815181106116b457fe5b602002602001018181525050818360400151815181106116d057fe5b60200260200101516001600160a01b0316634efecaa58f8d8d87604001518181106116f757fe5b905060200201356040518363ffffffff1660e01b815260040161171b92919061541e565b602060405180830381600087803b15801561173557600080fd5b505af1158015611749573d6000803e3d6000fd5b505050506040513d601f19601f8201168201806040525081019061176d919061519e565b5060408301805160010190526115d1565b82600001516001600160a01b031663920f5c848e8e8e8e86338d8d6040518963ffffffff1660e01b81526004016117bc9897969594939291906155f6565b602060405180830381600087803b1580156117d657600080fd5b505af11580156117ea573d6000803e3d6000fd5b505050506040513d601f19601f8201168201806040525081019061180e9190615182565b604051806040016040528060028152602001611b1b60f11b815250906118475760405162461bcd60e51b815260040161055c9190615703565b50600060408401525b60408301518c1115611b78578c8c846040015181811061186c57fe5b90506020020160208101906118819190614d30565b6001600160a01b0316606084015260408301518b908b908181106118a157fe5b905060200201358360a0018181525050808360400151815181106118c157fe5b60200260200101518360c0018181525050818360400151815181106118e257fe5b60209081029190910101516001600160a01b0316608084015260c083015160a084015161190e9161300a565b60e084015260008989856040015181811061192557fe5b90506020020135600281111561193757fe5b600281111561194257fe5b1415611a745760608301516001600160a01b0316600090815260356020526040902061196d90612b93565b611a0d83608001516001600160a01b03166318160ddd6040518163ffffffff1660e01b815260040160206040518083038186803b1580156119ad57600080fd5b505afa1580156119c1573d6000803e3d6000fd5b505050506040513d601f19601f820116820180604052508101906119e5919061519e565b60c085015160608601516001600160a01b031660009081526035602052604090209190613848565b6060830151608084015160e08501516001600160a01b0383166000908152603560205260408120611a4394909390929091612ca2565b611a6f8e84608001518560e0015186606001516001600160a01b031661309f909392919063ffffffff16565b611b03565b611b0360405180610100016040528085606001516001600160a01b03168152602001336001600160a01b03168152602001896001600160a01b031681526020018560a0015181526020018b8b8760400151818110611ace57fe5b90506020020135815260200185608001516001600160a01b031681526020018661ffff16815260200160001515815250613295565b82606001516001600160a01b0316336001600160a01b03168f6001600160a01b03167f631042c832b07452973831137f2d73e395028b44b250dedc5abb0ee766e168ac8660a001518760c0015189604051611b6093929190615b11565b60405180910390a46040830180516001019052611850565b5050505050505050505050505050565b611b906126ec565b611b9986613905565b6040518060400160405280600281526020016106e760f31b81525090611bd25760405162461bcd60e51b815260040161055c9190615703565b506001600160a01b0386166000908152603560205260409081902090516362b6ee6360e01b815273__$22cd43a9dda9ce44e9b92ba393b88fb9ac$__916362b6ee6391611c2c9190899089908990899089906004016159dd565b60006040518083038186803b158015611c4457600080fd5b505af4158015611c58573d6000803e3d6000fd5b505050506114ac8661393e565b611c6d6126ec565b6001600160a01b03909116600090815260356020526040902055565b611c916126ec565b6039805460ff1916821515179081905560ff1615611cd7576040517f9e87fac88ff661f02d44f95383c817fece4bce600a3dab7a54406878b965e75290600090a1611d01565b6040517fa45f47fdea8a1efdd9029a5691c7f759c32b7c698632b563573e155625d1693390600090a15b50565b6000806000806000806000611ddf886035603660008c6001600160a01b03166001600160a01b031681526020019081526020016000206040518060200160405290816000820154815250506037603854603460009054906101000a90046001600160a01b03166001600160a01b031663fca513a86040518163ffffffff1660e01b815260040160206040518083038186803b158015611da257600080fd5b505afa158015611db6573d6000803e3d6000fd5b505050506040513d601f19601f82011682018060405250810190611dda9190614d4c565b613a47565b949b509299509650945092509050611df987878584613fe4565b9450919395979092949650565b611e0e614ae2565b506001600160a01b031660009081526035602090815260409182902082519182019092529054815290565b6000611e43614023565b60015490915060ff1680611e5a5750611e5a614028565b80611e66575060005481115b611e825760405162461bcd60e51b815260040161055c906157fc565b60015460ff16158015611ea1576001805460ff19168117905560008290555b603480546001600160a01b0319166001600160a01b0385161790556109c4603a556009603b556080603c558015610d1f576001805460ff19169055505050565b611ee96126ae565b6001600160a01b038083166000908152603560205260408082206005810154600682015460048084015494516370a0823160e01b81529396928316959183169490921692909185916370a0823191611f43918a91016153d9565b60206040518083038186803b158015611f5b57600080fd5b505afa158015611f6f573d6000803e3d6000fd5b505050506040513d601f19601f82011682018060405250810190611f93919061519e565b60405163548cad0960e01b815290915073__$de8c0cf1a7d7c36c802af9a64fb9d86036$__9063548cad0990611fd59088908b90899089908990600401615a55565b60006040518083038186803b158015611fed57600080fd5b505af4158015612001573d6000803e3d6000fd5b5050505061200e85612b93565b604051632770a7eb60e21b81526001600160a01b03851690639dc29fac9061203c908990859060040161541e565b600060405180830381600087803b15801561205657600080fd5b505af115801561206a573d6000803e3d6000fd5b505050600386015460405163b3f1c93d60e01b81526001600160a01b038716925063b3f1c93d916120ad918a91829187916001600160801b0316906004016153ed565b602060405180830381600087803b1580156120c757600080fd5b505af11580156120db573d6000803e3d6000fd5b505050506040513d601f19601f820116820180604052508101906120ff9190615182565b5061210e858884600080612ca2565b856001600160a01b0316876001600160a01b03167f9f439ae0c81e41a04d3fdfe07aed54e6a179fb0db15be7702eb66fa8ef6f530060405160405180910390a350505050505050565b6001600160a01b03811660009081526035602052604081206107209061402e565b60608060385467ffffffffffffffff8111801561219457600080fd5b506040519080825280602002602001820160405280156121be578160200160208202803683370190505b50905060005b6038548110156122175760008181526037602052604090205482516001600160a01b03909116908390839081106121f757fe5b6001600160a01b03909216602092830291909101909101526001016121c4565b50905090565b6122256126ae565b6001600160a01b038681166000908152603560209081526040918290206004015482518084019093526002835261363360f01b9183019190915290911633146122815760405162461bcd60e51b815260040161055c9190615703565b5061233d85603560366000896001600160a01b03166001600160a01b031681526020019081526020016000206037603854603460009054906101000a90046001600160a01b03166001600160a01b031663fca513a86040518163ffffffff1660e01b815260040160206040518083038186803b15801561230057600080fd5b505afa158015612314573d6000803e3d6000fd5b505050506040513d601f19601f820116820180604052508101906123389190614d4c565b61408d565b6001600160a01b03868116600090815260356020526040902060080154600160a01b900460ff16908581169087161461245d5761237a8385612c60565b6123e6576001600160a01b0386166000908152603660205260408120906123a490829084906130fd565b866001600160a01b0316886001600160a01b03167f44c58d81365b66dd4b1a7f36c25aa97b8c71c361ee4937adc1a00000227db5dd60405160405180910390a3505b811580156123f357508315155b1561245d576001600160a01b038516600090815260366020526040902061241c818360016130fd565b856001600160a01b0316886001600160a01b03167e058a56ea94653cdf4f152d227ace22d4c00ad99e2a43f58cb7d9e3feb295f260405160405180910390a3505b50505050505050565b603a5490565b6124746126ae565b6001600160a01b038416600090815260356020526040908190209051630eca322b60e01b815273__$de8c0cf1a7d7c36c802af9a64fb9d86036$__90630eca322b906124c69084908890600401615ab8565b60006040518083038186803b1580156124de57600080fd5b505af41580156124f2573d6000803e3d6000fd5b5050505060048101546001600160a01b031661250d82612b93565b61251b828783886000612ca2565b6125306001600160a01b03871633838861309f565b6001820154604051630ab714fb60e11b81526000916001600160a01b0384169163156e29f6916125729189918b916001600160801b0390911690600401615437565b602060405180830381600087803b15801561258c57600080fd5b505af11580156125a0573d6000803e3d6000fd5b505050506040513d601f19601f820116820180604052508101906125c49190615182565b9050801561263e5760088301546001600160a01b03861660009081526036602052604090206125fe91600160a01b900460ff1660016130fd565b846001600160a01b0316876001600160a01b03167e058a56ea94653cdf4f152d227ace22d4c00ad99e2a43f58cb7d9e3feb295f260405160405180910390a35b8361ffff16856001600160a01b0316886001600160a01b03167fde6857219544bb5b7746f48ed30be6386fefc61b2f864cacf559893bf50fd951338a60405161268892919061541e565b60405180910390a450505050505050565b603c5490565b6034546001600160a01b031690565b6039546040805180820190915260028152610d8d60f21b60208201529060ff1615611d015760405162461bcd60e51b815260040161055c9190615703565b603454604080516385c858b160e01b8152905133926001600160a01b0316916385c858b1916004808301926020929190829003018186803b15801561273057600080fd5b505afa158015612744573d6000803e3d6000fd5b505050506040513d601f19601f820116820180604052508101906127689190614d4c565b6001600160a01b03161460405180604001604052806002815260200161323760f01b81525090611d015760405162461bcd60e51b815260040161055c9190615703565b600381015460009064ffffffffff600160801b90910481169042168114156127e95750506001810154600160801b90046001600160801b03166106fa565b60018301546002840154600091610b57916001600160801b03600160801b9283900481169261281a92041685614104565b90614111565b60058101546040516370a0823160e01b815260009182916001600160a01b03909116906370a08231906128579087906004016153d9565b60206040518083038186803b15801561286f57600080fd5b505afa158015612883573d6000803e3d6000fd5b505050506040513d601f19601f820116820180604052508101906128a7919061519e565b60068401546040516370a0823160e01b81526001600160a01b03909116906370a08231906128d99088906004016153d9565b60206040518083038186803b1580156128f157600080fd5b505afa158015612905573d6000803e3d6000fd5b505050506040513d601f19601f82011682018060405250810190612929919061519e565b915091505b9250929050565b6000808260060160009054906101000a90046001600160a01b03166001600160a01b031663b1bf962d6040518163ffffffff1660e01b815260040160206040518083038186803b15801561298857600080fd5b505afa15801561299c573d6000803e3d6000fd5b505050506040513d601f19601f820116820180604052508101906129c0919061519e565b60018401546003850154919250600160801b8082046001600160801b03908116939216910464ffffffffff166000806129fc88878688876141a4565b91509150612a08614b41565b612a1189614301565b6101208201819052612a2d5760009750505050505050506106fa565b8860050160009054906101000a90046001600160a01b03166001600160a01b031663797743386040518163ffffffff1660e01b815260040160806040518083038186803b158015612a7d57600080fd5b505afa158015612a91573d6000803e3d6000fd5b505050506040513d601f19601f82011682018060405250810190612ab591906152ad565b64ffffffffff1661014085015260a084015282526020820152612ad88787614111565b6080820152612ae78783614111565b606082015260a0810151610140820151612b09919064ffffffffff871661430c565b60c082018190526020820151612b1e91614111565b60408201819052608082015182516060840151612b439392610992929091839161300a565b60e08201819052610120820151612b5a91906143e2565b610100820181905260e0820151600091612b749190612c60565b90506000612b84826109c46143e2565b9b9a5050505050505050505050565b60068101546040805163b1bf962d60e01b815290516000926001600160a01b03169163b1bf962d916004808301926020929190829003018186803b158015612bda57600080fd5b505afa158015612bee573d6000803e3d6000fd5b505050506040513d601f19601f82011682018060405250810190612c12919061519e565b60018301546003840154919250600160801b8082046001600160801b03908116939216910464ffffffffff16600080612c4e87878688876141a4565b9150915061245d878787858588614451565b600061105083836040518060400160405280601e81526020017f536166654d6174683a207375627472616374696f6e206f766572666c6f770000815250614614565b612caa614ba2565b60058601546001600160a01b031680825260408051637b98f4df60e11b8152815163f731e9be92600480840193919291829003018186803b158015612cee57600080fd5b505afa158015612d02573d6000803e3d6000fd5b505050506040513d601f19601f82011682018060405250810190612d26919061525d565b60c083015260408083019190915260018701546006880154825163b1bf962d60e01b81529251612dcb93600160801b9093046001600160801b0316926001600160a01b039092169163b1bf962d916004808301926020929190829003018186803b158015612d9357600080fd5b505afa158015612da7573d6000803e3d6000fd5b505050506040513d601f19601f8201168201806040525081019061281a919061519e565b60e082018190526007870154604083015160c08401516001600160a01b03909216926329db497d9289928992899289929190612e068f614301565b6040518963ffffffff1660e01b8152600401612e299897969594939291906154e2565b60606040518083038186803b158015612e4157600080fd5b505afa158015612e55573d6000803e3d6000fd5b505050506040513d601f19601f82011682018060405250810190612e799190615280565b60a0840152608083015260608201819052604080518082019091526002815261353360f01b6020820152906001600160801b031015612ecb5760405162461bcd60e51b815260040161055c9190615703565b506080810151604080518082019091526002815261353560f01b6020820152906001600160801b031015612f125760405162461bcd60e51b815260040161055c9190615703565b5060a08101516040805180820190915260028152610d4d60f21b6020820152906001600160801b031015612f595760405162461bcd60e51b815260040161055c9190615703565b506060810151600287018054608084015160038a0180546001600160801b03199081166001600160801b038085169190911790925560a08701519316818616178116600160801b84831681029190911790945560018b01546040516001600160a01b038c16967f804c9b842b2748a22bb64b345453a3de7ca54a6ca45ce00d415894979e22897a96612ffa9691959491938083169391900490911690615b2b565b60405180910390a2505050505050565b6000828201838110156110505760405162461bcd60e51b815260040161055c9061574f565b604080518082019091526002815261373760f01b6020820152605583106130695760405162461bcd60e51b815260040161055c9190615703565b50816003028161307a57600061307d565b60015b60ff16901b826003026001901b19846000015416178360000181905550505050565b6130f7846323b872dd60e01b8585856040516024016130c093929190615495565b60408051601f198184030181529190526020810180516001600160e01b03166001600160e01b031990931692909217909152614640565b50505050565b604080518082019091526002815261373760f01b6020820152605583106131375760405162461bcd60e51b815260040161055c9190615703565b50816003026001018161314b57600061314e565b60015b60ff16901b826003026001016001901b19846000015416178360000181905550505050565b60608161319857506040805180820190915260018152600360fc1b60208201526106fa565b8160005b81156131b057600101600a8204915061319c565b60608167ffffffffffffffff811180156131c957600080fd5b506040519080825280601f01601f1916602001820160405280156131f4576020820181803683370190505b50859350905060001982015b831561324557600a840660300160f81b8282806001900393508151811061322357fe5b60200101906001600160f81b031916908160001a905350600a84049350613200565b50949350505050565b610d1f83838360405160240161326693929190615716565b60408051601f198184030181529190526020810180516001600160e01b0316632ced7cef60e01b179052614725565b80516001600160a01b0390811660009081526035602090815260408083208186015185168452603683528184206034548351631f94a27560e31b81529351929691959491169263fca513a89260048083019392829003018186803b1580156132fc57600080fd5b505afa158015613310573d6000803e3d6000fd5b505050506040513d601f19601f820116820180604052508101906133349190614d4c565b905060006133d561334485614746565b600a0a61169e8760600151856001600160a01b031663b3596f078a600001516040518263ffffffff1660e01b815260040161337f91906153d9565b60206040518083038186803b15801561339757600080fd5b505afa1580156133ab573d6000803e3d6000fd5b505050506040513d601f19601f820116820180604052508101906133cf919061519e565b906137cc565b905073__$de8c0cf1a7d7c36c802af9a64fb9d86036$__63721a92f986600001518688604001518960600151868b60800151603a5460358c60376038548e6040518d63ffffffff1660e01b815260040161343a9c9b9a99989796959493929190615526565b60006040518083038186803b15801561345257600080fd5b505af4158015613466573d6000803e3d6000fd5b5050505061347384612b93565b60008060018760800151600281111561348857fe5b600281111561349357fe5b1415613548576003860154600587015460208901516040808b015160608c0151915163b3f1c93d60e01b81526001600160801b0390951696506001600160a01b039093169363b3f1c93d936134ef9392909188906004016154b9565b602060405180830381600087803b15801561350957600080fd5b505af115801561351d573d6000803e3d6000fd5b505050506040513d601f19601f820116820180604052508101906135419190615182565b90506135f7565b600686015460208801516040808a015160608b015160018b0154925163b3f1c93d60e01b81526001600160a01b039095169463b3f1c93d946135a29490939291600160801b9091046001600160801b0316906004016153ed565b602060405180830381600087803b1580156135bc57600080fd5b505af11580156135d0573d6000803e3d6000fd5b505050506040513d601f19601f820116820180604052508101906135f49190615182565b90505b8015613619576008860154613619908690600160a01b900460ff16600161302f565b61364887600001518860a0015160008a60e0015161363857600061363e565b8a606001515b8a93929190612ca2565b8660e00151156136e0578660a001516001600160a01b0316634efecaa5886020015189606001516040518363ffffffff1660e01b815260040161368c92919061541e565b602060405180830381600087803b1580156136a657600080fd5b505af11580156136ba573d6000803e3d6000fd5b505050506040513d601f19601f820116820180604052508101906136de919061519e565b505b8660c0015161ffff1687604001516001600160a01b031688600001516001600160a01b03167fc6a898309e823ee50bac64e45ca8adba6690e99e7841c45d754e2a38e9019d9b8a602001518b606001518c608001516001600281111561374257fe5b8e60800151600281111561375257fe5b600281111561375d57fe5b1461377c5760028d0154600160801b90046001600160801b031661377e565b885b60405161268894939291906155d0565b805182511460405180604001604052806002815260200161373360f01b81525090610d1f5760405162461bcd60e51b815260040161055c9190615703565b6000826137db57506000610720565b828202828482816137e857fe5b04146110505760405162461bcd60e51b815260040161055c906157bb565b600061105083836040518060400160405280601a81526020017f536166654d6174683a206469766973696f6e206279207a65726f000000000000815250614750565b600061386561385684614787565b61385f84614787565b906147d7565b9050600061387b613874614882565b839061300a565b60018601549091506138979082906001600160801b0316614111565b604080518082019091526002815261353160f01b60208201529091506001600160801b038211156138db5760405162461bcd60e51b815260040161055c9190615703565b5060019490940180546001600160801b0319166001600160801b0390951694909417909355505050565b6000813f7fc5d2460186f7233c927e7db2dcc703c0e500b653ca82273b7bfad8045d85a470818114801590610b57575050151592915050565b603854603c54604080518082019091526002815261363560f01b602082015290821061397d5760405162461bcd60e51b815260040161055c9190615703565b506001600160a01b038216600090815260356020526040812060080154600160a01b900460ff161515806139e657506000805260376020527fa0a618d80eda9243166be83cb7421d97e9dab6ddddd3c70ac7a6b4440256e8e7546001600160a01b038481169116145b905080610d1f57506001600160a01b03919091166000818152603560209081526040808320600801805460ff60a01b1916600160a01b60ff8816021790558483526037909152902080546001600160a01b0319169091179055600101603855565b600080808080808b613a57614bf0565b60006101608201525b898161016001511015613ecd57610160810151600090815260208c81526040808320546001600160a01b03166101e085018190528352908f90529020613aa581614892565b506080860181905260c08601929092525060a0840191909152600a0a60208301526101e082015160405163b3596f0760e01b81526001600160a01b038c169163b3596f0791613af791906004016153d9565b60206040518083038186803b158015613b0f57600080fd5b505afa158015613b23573d6000803e3d6000fd5b505050506040513d601f19601f82011682018060405250810190613b47919061519e565b825260c082015115801590613b685750610160820151613b68908e906148bd565b15613c74576004808201546040516370a0823160e01b81526001600160a01b03909116916370a0823191613b9e918791016153d9565b60206040518083038186803b158015613bb657600080fd5b505afa158015613bca573d6000803e3d6000fd5b505050506040513d601f19601f82011682018060405250810190613bee919061519e565b6040830181905260208301518351600092613c0d929161169e916137cc565b610100840151909150613c20908261300a565b61010084015260a0830151613c4690613c3a9083906137cc565b6101408501519061300a565b61014084015260c0830151613c6c90613c609083906137cc565b6101808501519061300a565b610180840152505b610160820151613c85908e90614915565b15613dd35760058101546040516370a0823160e01b81526001600160a01b03909116906370a0823190613cbc9086906004016153d9565b60206040518083038186803b158015613cd457600080fd5b505afa158015613ce8573d6000803e3d6000fd5b505050506040513d601f19601f82011682018060405250810190613d0c919061519e565b606083015260068101546040516370a0823160e01b8152613da0916001600160a01b0316906370a0823190613d459087906004016153d9565b60206040518083038186803b158015613d5d57600080fd5b505afa158015613d71573d6000803e3d6000fd5b505050506040513d601f19601f82011682018060405250810190613d95919061519e565b60608401519061300a565b6060830181905260208301518351613dcc92613dc0929161169e916137cc565b6101208401519061300a565b6101208301525b602082015160088201546040516370a0823160e01b8152600092613e6d92909161169e916001600160a01b0316906370a0823190613e15908a906004016153d9565b60206040518083038186803b158015613e2d57600080fd5b505afa158015613e41573d6000803e3d6000fd5b505050506040513d601f19601f82011682018060405250810190613e65919061519e565b8651906137cc565b610240840151909150613e80908261300a565b61024084015260a0830151613e9a90613c3a9083906137cc565b61014084015260c0830151613eb490613c609083906137cc565b6101808401525050610160810180516001019052613a60565b6000613eec82610240015183610100015161300a90919063ffffffff16565b11613ef8576000613f24565b613f24613f1882610240015183610100015161300a90919063ffffffff16565b61014083015190613806565b610140820152610240810151610100820151600091613f43919061300a565b11613f4f576000613f7b565b613f7b613f6f82610240015183610100015161300a90919063ffffffff16565b61018083015190613806565b6101808201819052610100820151610120830151610240840151613f9f9390614966565b60e0820181905261010082015161012083015161014084015161018085015161024090950151929b509099509750919550935091505096509650965096509650969050565b600080613ffb84613ff5888661300a565b906143e2565b90508481101561400f576000915050610b57565b6140198186612c60565b9695505050505050565b600290565b303b1590565b600381015460009064ffffffffff600160801b909104811690421681141561406557505060018101546001600160801b03166106fa565b60018301546002840154600091610b57916001600160801b039182169161281a911685614997565b6040805160208101909152845481526000906140af9088908890878787613a47565b50945050505050670de0b6b3a7640000811015604051806040016040528060018152602001601b60f91b815250906140fa5760405162461bcd60e51b815260040161055c9190615703565b5050505050505050565b600061105083834261430c565b600082158061411e575081155b1561412b57506000610720565b816b019d971e4fe8401e74000000198161414157fe5b0483111560405180604001604052806002815260200161068760f31b8152509061417e5760405162461bcd60e51b815260040161055c9190615703565b506b033b2e3c9fd0803ce80000006002815b04838502018161419c57fe5b049392505050565b600285015460009081906001600160801b0316858582156142d25760006141cb8488614997565b90506141d7818a614111565b604080518082019091526002815261353160f01b60208201529093506001600160801b0384111561421b5760405162461bcd60e51b815260040161055c9190615703565b5060018b0180546001600160801b0319166001600160801b03851617905589156142d05760028b015460009061426190600160801b90046001600160801b031689614104565b905061426d818a614111565b6040805180820190915260028152611a9960f11b60208201529093506001600160801b038411156142b15760405162461bcd60e51b815260040161055c9190615703565b505060018b0180546001600160801b03808516600160801b0291161790555b505b600399909901805464ffffffffff60801b1916600160801b4264ffffffffff1602179055989650505050505050565b5460401c61ffff1690565b6000806143208364ffffffffff8616612c60565b9050806143375761432f614882565b915050611050565b600019810160006002831161434d576000614352565b600283035b90506301e13380870460006143678280614111565b905060006143758284614111565b905060006002614389846133cf8a8a6137cc565b8161439057fe5b049050600060066143a7846133cf89818d8d6137cc565b816143ae57fe5b0490506143d2816143cc84816143c48a8e6137cc565b6143cc614882565b9061300a565b9c9b505050505050505050505050565b60008215806143ef575081155b156143fc57506000610720565b81611388198161440857fe5b0483111560405180604001604052806002815260200161068760f31b815250906144455760405162461bcd60e51b815260040161055c9190615703565b50612710600281614190565b614459614b41565b61446287614301565b610120820181905261447457506114ac565b8660050160009054906101000a90046001600160a01b03166001600160a01b031663797743386040518163ffffffff1660e01b815260040160806040518083038186803b1580156144c457600080fd5b505afa1580156144d8573d6000803e3d6000fd5b505050506040513d601f19601f820116820180604052508101906144fc91906152ad565b64ffffffffff1661014085015260a08401528252602082015261451f8686614111565b608082015261452e8684614111565b606082015260a0810151610140820151614550919064ffffffffff851661430c565b60c08201819052602082015161456591614111565b6040820181905260808201518251606084015161458a9392610992929091839161300a565b60e082018190526101208201516145a191906143e2565b61010082018190521561245d57600480880154610100830151604051637df5bd3b60e01b81526001600160a01b0390921692637df5bd3b926145e69291899101615ab8565b600060405180830381600087803b15801561460057600080fd5b505af11580156105c4573d6000803e3d6000fd5b600081848411156146385760405162461bcd60e51b815260040161055c9190615703565b505050900390565b614652826001600160a01b0316613905565b61466e5760405162461bcd60e51b815260040161055c90615894565b60006060836001600160a01b03168360405161468a91906153bd565b6000604051808303816000865af19150503d80600081146146c7576040519150601f19603f3d011682016040523d82523d6000602084013e6146cc565b606091505b5091509150816146ee5760405162461bcd60e51b815260040161055c90615786565b8051156130f757808060200190518101906147099190615182565b6130f75760405162461bcd60e51b815260040161055c9061584a565b80516a636f6e736f6c652e6c6f67602083016000808483855afa5050505050565b5460301c60ff1690565b600081836147715760405162461bcd60e51b815260040161055c9190615703565b50600083858161477d57fe5b0495945050505050565b6000633b9aca0082810290839082041460405180604001604052806002815260200161068760f31b815250906147d05760405162461bcd60e51b815260040161055c9190615703565b5092915050565b604080518082019091526002815261035360f41b6020820152600090826148115760405162461bcd60e51b815260040161055c9190615703565b5060408051808201909152600280825261068760f31b60208301528304906b033b2e3c9fd0803ce800000082190485111561485f5760405162461bcd60e51b815260040161055c9190615703565b5082816b033b2e3c9fd0803ce80000008602018161487957fe5b04949350505050565b6b033b2e3c9fd0803ce800000090565b5461ffff80821692601083901c821692602081901c831692603082901c60ff169260409290921c1690565b60006055821060405180604001604052806002815260200161373760f01b815250906148fc5760405162461bcd60e51b815260040161055c9190615703565b5050815160016003830281019190911c16151592915050565b60006055821060405180604001604052806002815260200161373760f01b815250906149545760405162461bcd60e51b815260040161055c9190615703565b50509051600160039092021c16151590565b6000836149765750600019610b57565b61498e8461498885613ff5898761300a565b906149d5565b95945050505050565b6000806149ab4264ffffffffff8516612c60565b9050610b576149b8614882565b6301e133806149c787856137cc565b816149ce57fe5b049061300a565b604080518082019091526002815261035360f41b602082015260009082614a0f5760405162461bcd60e51b815260040161055c9190615703565b5060408051808201909152600280825261068760f31b6020830152830490670de0b6b3a7640000821904851115614a595760405162461bcd60e51b815260040161055c9190615703565b508281670de0b6b3a76400008602018161487957fe5b604051806101a00160405280614a83614ae2565b815260006020820181905260408201819052606082018190526080820181905260a0820181905260c0820181905260e0820181905261010082018190526101208201819052610140820181905261016082018190526101809091015290565b6040518060200160405280600081525090565b6040805161012081018252600080825260208201819052918101829052606081018290526080810182905260a0810182905260c0810182905260e0810182905261010081019190915290565b60405180610160016040528060008152602001600081526020016000815260200160008152602001600081526020016000815260200160008152602001600081526020016000815260200160008152602001600064ffffffffff1681525090565b60405180610100016040528060006001600160a01b03168152602001600081526020016000815260200160008152602001600081526020016000815260200160008152602001600081525090565b604051806102600160405280600081526020016000815260200160008152602001600081526020016000815260200160008152602001600081526020016000815260200160008152602001600081526020016000815260200160008152602001600081526020016000815260200160001515815260200160006001600160a01b03168152602001600015158152602001600015158152602001600081525090565b803561072081615bc1565b60008083601f840112614cad578182fd5b50813567ffffffffffffffff811115614cc4578182fd5b602083019150836020808302850101111561292e57600080fd5b60008083601f840112614cef578182fd5b50813567ffffffffffffffff811115614d06578182fd5b60208301915083602082850101111561292e57600080fd5b803561ffff8116811461072057600080fd5b600060208284031215614d41578081fd5b813561105081615bc1565b600060208284031215614d5d578081fd5b815161105081615bc1565b60008060408385031215614d7a578081fd5b8235614d8581615bc1565b91506020830135614d9581615bc1565b809150509250929050565b60008060008060008060c08789031215614db8578182fd5b8635614dc381615bc1565b95506020870135614dd381615bc1565b94506040870135614de381615bc1565b93506060870135614df381615bc1565b92506080870135614e0381615bc1565b915060a0870135614e1381615bc1565b809150509295509295509295565b600080600080600060a08688031215614e38578081fd5b8535614e4381615bc1565b94506020860135614e5381615bc1565b93506040860135614e6381615bc1565b9250606086013591506080860135614e7a81615bd6565b809150509295509295909350565b60008060008060008060c08789031215614ea0578182fd5b8635614eab81615bc1565b95506020870135614ebb81615bc1565b94506040870135614ecb81615bc1565b959894975094956060810135955060808101359460a0909101359350915050565b600080600080600080600080600080600060e08c8e031215614f0c578485fd5b614f168d8d614c91565b9a5067ffffffffffffffff8060208e01351115614f31578586fd5b614f418e60208f01358f01614c9c565b909b50995060408d0135811015614f56578586fd5b614f668e60408f01358f01614c9c565b909950975060608d0135811015614f7b578586fd5b614f8b8e60608f01358f01614c9c565b9097509550614f9d8e60808f01614c91565b94508060a08e01351115614faf578384fd5b50614fc08d60a08e01358e01614cde565b9093509150614fd28d60c08e01614d1e565b90509295989b509295989b9093969950565b60008060408385031215614ff6578182fd5b823561500181615bc1565b91506020830135614d9581615bd6565b60008060408385031215615023578182fd5b823561502e81615bc1565b946020939093013593505050565b600080600060608486031215615050578081fd5b833561505b81615bc1565b925060208401359150604084013561507281615bc1565b809150509250925092565b60008060008060808587031215615092578182fd5b843561509d81615bc1565b93506020850135925060408501356150b481615bc1565b91506150c38660608701614d1e565b905092959194509250565b600080600080608085870312156150e3578182fd5b84356150ee81615bc1565b93506020850135925060408501359150606085013561510c81615bc1565b939692955090935050565b600080600080600060a0868803121561512e578283fd5b853561513981615bc1565b945060208601359350604086013592506151568760608801614d1e565b91506080860135614e7a81615bc1565b600060208284031215615177578081fd5b813561105081615bd6565b600060208284031215615193578081fd5b815161105081615bd6565b6000602082840312156151af578081fd5b5051919050565b600080604083850312156151c8578182fd5b82519150602083015167ffffffffffffffff808211156151e6578283fd5b818501915085601f8301126151f9578283fd5b815181811115615207578384fd5b604051601f8201601f191681016020018381118282101715615227578586fd5b60405281815283820160200188101561523e578485fd5b61524f826020830160208701615b95565b809450505050509250929050565b6000806040838503121561526f578182fd5b505080516020909101519092909150565b600080600060608486031215615294578081fd5b8351925060208401519150604084015190509250925092565b600080600080608085870312156152c2578182fd5b845193506020850151925060408501519150606085015164ffffffffff8116811461510c578182fd5b6001600160a01b0316815260200190565b6001600160a01b03169052565b6000815180845260208085019450808401835b838110156153385781518752958201959082019060010161531c565b509495945050505050565b60008284528282602086013780602084860101526020601f19601f85011685010190509392505050565b60008151808452615385816020860160208601615b95565b601f01601f19169290920160200192915050565b519052565b6001600160801b03169052565b64ffffffffff169052565b60ff169052565b600082516153cf818460208701615b95565b9190910192915050565b6001600160a01b0391909116815260200190565b6001600160a01b03948516815292909316602083015260408201526001600160801b03909116606082015260800190565b6001600160a01b03929092168252602082015260400190565b6001600160a01b0393909316835260208301919091526001600160801b0316604082015260600190565b6001600160a01b03958616815293851660208501529190931660408301526060820192909252901515608082015260a00190565b6001600160a01b039384168152919092166020820152604081019190915260600190565b6001600160a01b0394851681529290931660208301526040820152606081019190915260800190565b6001600160a01b03988916815296909716602087015260408601949094526060850192909252608084015260a083015260c082015260e08101919091526101000190565b6001600160a01b039c8d168152602081019b909b52988b1660408b015260608a0197909752608089019590955260a088019390935260c087019190915260e08601526101008501526101208401526101408301529091166101608201526101800190565b6001600160a01b039889168152602081019790975260408701959095526060860193909352608085019190915260a084015260c083015290911660e08201526101000190565b6001600160a01b0394909416845260208401929092526040830152606082015260800190565b600060a0820160a083528061560b8b83615b08565b90508b9150825b8b81101561563e57602083016156318361562c8387614c91565b6152eb565b9093509150600101615612565b5083810360208501528881526001600160fb1b0389111561565d578283fd5b602089029150818a602083013701602081810183815284830390910160408501526156888189615309565b91505061569860608401876152fc565b8281036080840152612b84818587615343565b6020808252825182820181905260009190848201906040850190845b818110156156ec5783516001600160a01b0316835292840192918401916001016156c7565b50909695505050505050565b901515815260200190565b600060208252611050602083018461536d565b600060608252615729606083018661536d565b828103602084015261573b818661536d565b90508281036040840152614019818561536d565b6020808252601b908201527f536166654d6174683a206164646974696f6e206f766572666c6f770000000000604082015260600190565b6020808252818101527f5361666545524332303a206c6f772d6c6576656c2063616c6c206661696c6564604082015260600190565b60208082526021908201527f536166654d6174683a206d756c7469706c69636174696f6e206f766572666c6f6040820152607760f81b606082015260800190565b6020808252602e908201527f436f6e747261637420696e7374616e63652068617320616c726561647920626560408201526d195b881a5b9a5d1a585b1a5e995960921b606082015260800190565b6020808252602a908201527f5361666545524332303a204552433230206f7065726174696f6e20646964206e6040820152691bdd081cdd58d8d9595960b21b606082015260800190565b6020808252601f908201527f5361666545524332303a2063616c6c20746f206e6f6e2d636f6e747261637400604082015260600190565b9051815260200190565b60006101a0820190506158e9828451615399565b60208301516158fb602084018261539e565b50604083015161590e604084018261539e565b506060830151615921606084018261539e565b506080830151615934608084018261539e565b5060a083015161594760a084018261539e565b5060c083015161595a60c08401826153ab565b5060e083015161596d60e08401826152fc565b5061010080840151615981828501826152fc565b505061012080840151615996828501826152fc565b5050610140808401516159ab828501826152fc565b5050610160808401516159c0828501826152fc565b5050610180808401516159d5828501826153b6565b505092915050565b9586526001600160a01b03948516602087015292841660408601529083166060850152821660808401521660a082015260c00190565b9788526001600160a01b03968716602089015294151560408801526060870193909352608086019190915260a085015260c08401521660e08201526101000190565b9485526001600160a01b03938416602086015291831660408501528216606084015216608082015260a00190565b600060a082019050868252856020830152846040830152836060830152615aa983615b8a565b60808301529695505050505050565b918252602082015260400190565b8681526020810186905260c08101615add86615b8a565b60408301526001600160a01b03949094166060820152608081019290925260a0909101529392505050565b90815260200190565b928352602083019190915261ffff16604082015260600190565b948552602085019390935260408401919091526001600160801b03908116606084015216608082015260a00190565b968752602087019590955260408601939093526060850191909152608084015260a083015260c082015260e00190565b80600381106106fa57fe5b60005b83811015615bb0578181015183820152602001615b98565b838111156130f75750506000910152565b6001600160a01b0381168114611d0157600080fd5b8015158114611d0157600080fdfe737461626c6544656274203a202573202c207661726961626c6544656274203a20257320737461626c654465627431203a202573202c207661726961626c654465627431203a202573a2646970667358221220abe65c44800bfdb183f07809b7961c33e2a1865c4a8af30be1e9323a1ee5c5fa64736f6c634300060c0033",
  "linkReferences": {
    "contracts/protocol/libraries/logic/ReserveLogic.sol": {
      "ReserveLogic": [
        {
          "length": 20,
          "start": 7200
        }
      ]
    },
    "contracts/protocol/libraries/logic/ValidationLogic.sol": {
      "ValidationLogic": [
        {
          "length": 20,
          "start": 2001
        },
        {
          "length": 20,
          "start": 3019
        },
        {
          "length": 20,
          "start": 3590
        },
        {
          "length": 20,
          "start": 4372
        },
        {
          "length": 20,
          "start": 8138
        },
        {
          "length": 20,
          "start": 9409
        },
        {
          "length": 20,
          "start": 13310
        }
      ]
    }
  },
  "deployedLinkReferences": {
    "contracts/protocol/libraries/logic/ReserveLogic.sol": {
      "ReserveLogic": [
        {
          "length": 20,
          "start": 7163
        }
      ]
    },
    "contracts/protocol/libraries/logic/ValidationLogic.sol": {
      "ValidationLogic": [
        {
          "length": 20,
          "start": 1964
        },
        {
          "length": 20,
          "start": 2982
        },
        {
          "length": 20,
          "start": 3553
        },
        {
          "length": 20,
          "start": 4335
        },
        {
          "length": 20,
          "start": 8101
        },
        {
          "length": 20,
          "start": 9372
        },
        {
          "length": 20,
          "start": 13273
        }
      ]
    }
  }
}