{
  "_format": "hh-sol-artifact-1",
  "contractName": "LendingPool",
  "sourceName": "contracts/protocol/lendingpool/LendingPool.sol",
  "abi": [
    {
      "anonymous": false,
      "inputs": [
        {
          "indexed": true,
          "internalType": "address",
          "name": "reserve",
          "type": "address"
        },
        {
          "indexed": false,
          "internalType": "address",
          "name": "user",
          "type": "address"
        },
        {
          "indexed": true,
          "internalType": "address",
          "name": "onBehalfOf",
          "type": "address"
        },
        {
          "indexed": false,
          "internalType": "uint256",
          "name": "amount",
          "type": "uint256"
        },
        {
          "indexed": false,
          "internalType": "uint256",
          "name": "borrowRateMode",
          "type": "uint256"
        },
        {
          "indexed": false,
          "internalType": "uint256",
          "name": "borrowRate",
          "type": "uint256"
        },
        {
          "indexed": true,
          "internalType": "uint16",
          "name": "referral",
          "type": "uint16"
        }
      ],
      "name": "Borrow",
      "type": "event"
    },
    {
      "anonymous": false,
      "inputs": [
        {
          "indexed": true,
          "internalType": "address",
          "name": "reserve",
          "type": "address"
        },
        {
          "indexed": false,
          "internalType": "address",
          "name": "user",
          "type": "address"
        },
        {
          "indexed": true,
          "internalType": "address",
          "name": "onBehalfOf",
          "type": "address"
        },
        {
          "indexed": false,
          "internalType": "uint256",
          "name": "amount",
          "type": "uint256"
        },
        {
          "indexed": true,
          "internalType": "uint16",
          "name": "referral",
          "type": "uint16"
        }
      ],
      "name": "Deposit",
      "type": "event"
    },
    {
      "anonymous": false,
      "inputs": [
        {
          "indexed": true,
          "internalType": "address",
          "name": "target",
          "type": "address"
        },
        {
          "indexed": true,
          "internalType": "address",
          "name": "initiator",
          "type": "address"
        },
        {
          "indexed": true,
          "internalType": "address",
          "name": "asset",
          "type": "address"
        },
        {
          "indexed": false,
          "internalType": "uint256",
          "name": "amount",
          "type": "uint256"
        },
        {
          "indexed": false,
          "internalType": "uint256",
          "name": "premium",
          "type": "uint256"
        },
        {
          "indexed": false,
          "internalType": "uint16",
          "name": "referralCode",
          "type": "uint16"
        }
      ],
      "name": "FlashLoan",
      "type": "event"
    },
    {
      "anonymous": false,
      "inputs": [
        {
          "indexed": true,
          "internalType": "address",
          "name": "collateralAsset",
          "type": "address"
        },
        {
          "indexed": true,
          "internalType": "address",
          "name": "debtAsset",
          "type": "address"
        },
        {
          "indexed": true,
          "internalType": "address",
          "name": "user",
          "type": "address"
        },
        {
          "indexed": false,
          "internalType": "uint256",
          "name": "debtToCover",
          "type": "uint256"
        },
        {
          "indexed": false,
          "internalType": "uint256",
          "name": "liquidatedCollateralAmount",
          "type": "uint256"
        },
        {
          "indexed": false,
          "internalType": "address",
          "name": "liquidator",
          "type": "address"
        },
        {
          "indexed": false,
          "internalType": "bool",
          "name": "receiveAToken",
          "type": "bool"
        }
      ],
      "name": "LiquidationCall",
      "type": "event"
    },
    {
      "anonymous": false,
      "inputs": [],
      "name": "Paused",
      "type": "event"
    },
    {
      "anonymous": false,
      "inputs": [
        {
          "indexed": true,
          "internalType": "address",
          "name": "reserve",
          "type": "address"
        },
        {
          "indexed": true,
          "internalType": "address",
          "name": "user",
          "type": "address"
        }
      ],
      "name": "RebalanceStableBorrowRate",
      "type": "event"
    },
    {
      "anonymous": false,
      "inputs": [
        {
          "indexed": true,
          "internalType": "address",
          "name": "reserve",
          "type": "address"
        },
        {
          "indexed": true,
          "internalType": "address",
          "name": "user",
          "type": "address"
        },
        {
          "indexed": true,
          "internalType": "address",
          "name": "repayer",
          "type": "address"
        },
        {
          "indexed": false,
          "internalType": "uint256",
          "name": "amount",
          "type": "uint256"
        }
      ],
      "name": "Repay",
      "type": "event"
    },
    {
      "anonymous": false,
      "inputs": [
        {
          "indexed": true,
          "internalType": "address",
          "name": "reserve",
          "type": "address"
        },
        {
          "indexed": false,
          "internalType": "uint256",
          "name": "liquidityRate",
          "type": "uint256"
        },
        {
          "indexed": false,
          "internalType": "uint256",
          "name": "stableBorrowRate",
          "type": "uint256"
        },
        {
          "indexed": false,
          "internalType": "uint256",
          "name": "variableBorrowRate",
          "type": "uint256"
        },
        {
          "indexed": false,
          "internalType": "uint256",
          "name": "liquidityIndex",
          "type": "uint256"
        },
        {
          "indexed": false,
          "internalType": "uint256",
          "name": "variableBorrowIndex",
          "type": "uint256"
        }
      ],
      "name": "ReserveDataUpdated",
      "type": "event"
    },
    {
      "anonymous": false,
      "inputs": [
        {
          "indexed": true,
          "internalType": "address",
          "name": "reserve",
          "type": "address"
        },
        {
          "indexed": true,
          "internalType": "address",
          "name": "user",
          "type": "address"
        }
      ],
      "name": "ReserveUsedAsCollateralDisabled",
      "type": "event"
    },
    {
      "anonymous": false,
      "inputs": [
        {
          "indexed": true,
          "internalType": "address",
          "name": "reserve",
          "type": "address"
        },
        {
          "indexed": true,
          "internalType": "address",
          "name": "user",
          "type": "address"
        }
      ],
      "name": "ReserveUsedAsCollateralEnabled",
      "type": "event"
    },
    {
      "anonymous": false,
      "inputs": [
        {
          "indexed": true,
          "internalType": "address",
          "name": "reserve",
          "type": "address"
        },
        {
          "indexed": true,
          "internalType": "address",
          "name": "user",
          "type": "address"
        },
        {
          "indexed": false,
          "internalType": "uint256",
          "name": "rateMode",
          "type": "uint256"
        }
      ],
      "name": "Swap",
      "type": "event"
    },
    {
      "anonymous": false,
      "inputs": [],
      "name": "Unpaused",
      "type": "event"
    },
    {
      "anonymous": false,
      "inputs": [
        {
          "indexed": true,
          "internalType": "address",
          "name": "reserve",
          "type": "address"
        },
        {
          "indexed": true,
          "internalType": "address",
          "name": "user",
          "type": "address"
        },
        {
          "indexed": true,
          "internalType": "address",
          "name": "to",
          "type": "address"
        },
        {
          "indexed": false,
          "internalType": "uint256",
          "name": "amount",
          "type": "uint256"
        }
      ],
      "name": "Withdraw",
      "type": "event"
    },
    {
      "inputs": [],
      "name": "FLASHLOAN_PREMIUM_TOTAL",
      "outputs": [
        {
          "internalType": "uint256",
          "name": "",
          "type": "uint256"
        }
      ],
      "stateMutability": "view",
      "type": "function"
    },
    {
      "inputs": [],
      "name": "LENDINGPOOL_REVISION",
      "outputs": [
        {
          "internalType": "uint256",
          "name": "",
          "type": "uint256"
        }
      ],
      "stateMutability": "view",
      "type": "function"
    },
    {
      "inputs": [],
      "name": "MAX_NUMBER_RESERVES",
      "outputs": [
        {
          "internalType": "uint256",
          "name": "",
          "type": "uint256"
        }
      ],
      "stateMutability": "view",
      "type": "function"
    },
    {
      "inputs": [],
      "name": "MAX_STABLE_RATE_BORROW_SIZE_PERCENT",
      "outputs": [
        {
          "internalType": "uint256",
          "name": "",
          "type": "uint256"
        }
      ],
      "stateMutability": "view",
      "type": "function"
    },
    {
      "inputs": [
        {
          "internalType": "address",
          "name": "asset",
          "type": "address"
        },
        {
          "internalType": "uint256",
          "name": "amount",
          "type": "uint256"
        },
        {
          "internalType": "uint256",
          "name": "interestRateMode",
          "type": "uint256"
        },
        {
          "internalType": "uint16",
          "name": "referralCode",
          "type": "uint16"
        },
        {
          "internalType": "address",
          "name": "onBehalfOf",
          "type": "address"
        }
      ],
      "name": "borrow",
      "outputs": [],
      "stateMutability": "nonpayable",
      "type": "function"
    },
    {
      "inputs": [
        {
          "internalType": "address",
          "name": "asset",
          "type": "address"
        },
        {
          "internalType": "uint256",
          "name": "amount",
          "type": "uint256"
        },
        {
          "internalType": "address",
          "name": "onBehalfOf",
          "type": "address"
        },
        {
          "internalType": "uint16",
          "name": "referralCode",
          "type": "uint16"
        }
      ],
      "name": "deposit",
      "outputs": [],
      "stateMutability": "nonpayable",
      "type": "function"
    },
    {
      "inputs": [
        {
          "internalType": "address",
          "name": "asset",
          "type": "address"
        },
        {
          "internalType": "address",
          "name": "from",
          "type": "address"
        },
        {
          "internalType": "address",
          "name": "to",
          "type": "address"
        },
        {
          "internalType": "uint256",
          "name": "amount",
          "type": "uint256"
        },
        {
          "internalType": "uint256",
          "name": "balanceFromBefore",
          "type": "uint256"
        },
        {
          "internalType": "uint256",
          "name": "balanceToBefore",
          "type": "uint256"
        }
      ],
      "name": "finalizeTransfer",
      "outputs": [],
      "stateMutability": "nonpayable",
      "type": "function"
    },
    {
      "inputs": [
        {
          "internalType": "address",
          "name": "receiverAddress",
          "type": "address"
        },
        {
          "internalType": "address[]",
          "name": "assets",
          "type": "address[]"
        },
        {
          "internalType": "uint256[]",
          "name": "amounts",
          "type": "uint256[]"
        },
        {
          "internalType": "uint256[]",
          "name": "modes",
          "type": "uint256[]"
        },
        {
          "internalType": "address",
          "name": "onBehalfOf",
          "type": "address"
        },
        {
          "internalType": "bytes",
          "name": "params",
          "type": "bytes"
        },
        {
          "internalType": "uint16",
          "name": "referralCode",
          "type": "uint16"
        }
      ],
      "name": "flashLoan",
      "outputs": [],
      "stateMutability": "nonpayable",
      "type": "function"
    },
    {
      "inputs": [],
      "name": "getAddressesProvider",
      "outputs": [
        {
          "internalType": "contract ILendingPoolAddressesProvider",
          "name": "",
          "type": "address"
        }
      ],
      "stateMutability": "view",
      "type": "function"
    },
    {
      "inputs": [
        {
          "internalType": "address",
          "name": "asset",
          "type": "address"
        }
      ],
      "name": "getConfiguration",
      "outputs": [
        {
          "components": [
            {
              "internalType": "uint256",
              "name": "data",
              "type": "uint256"
            }
          ],
          "internalType": "struct DataTypes.ReserveConfigurationMap",
          "name": "",
          "type": "tuple"
        }
      ],
      "stateMutability": "view",
      "type": "function"
    },
    {
      "inputs": [
        {
          "internalType": "address",
          "name": "asset",
          "type": "address"
        }
      ],
      "name": "getReserveData",
      "outputs": [
        {
          "components": [
            {
              "components": [
                {
                  "internalType": "uint256",
                  "name": "data",
                  "type": "uint256"
                }
              ],
              "internalType": "struct DataTypes.ReserveConfigurationMap",
              "name": "configuration",
              "type": "tuple"
            },
            {
              "internalType": "uint128",
              "name": "liquidityIndex",
              "type": "uint128"
            },
            {
              "internalType": "uint128",
              "name": "variableBorrowIndex",
              "type": "uint128"
            },
            {
              "internalType": "uint128",
              "name": "currentLiquidityRate",
              "type": "uint128"
            },
            {
              "internalType": "uint128",
              "name": "currentVariableBorrowRate",
              "type": "uint128"
            },
            {
              "internalType": "uint128",
              "name": "currentStableBorrowRate",
              "type": "uint128"
            },
            {
              "internalType": "uint40",
              "name": "lastUpdateTimestamp",
              "type": "uint40"
            },
            {
              "internalType": "address",
              "name": "aTokenAddress",
              "type": "address"
            },
            {
              "internalType": "address",
              "name": "stableDebtTokenAddress",
              "type": "address"
            },
            {
              "internalType": "address",
              "name": "variableDebtTokenAddress",
              "type": "address"
            },
            {
              "internalType": "address",
              "name": "interestRateStrategyAddress",
              "type": "address"
            },
            {
              "internalType": "address",
              "name": "creditTokensAddress",
              "type": "address"
            },
            {
              "internalType": "uint8",
              "name": "id",
              "type": "uint8"
            }
          ],
          "internalType": "struct DataTypes.ReserveData",
          "name": "",
          "type": "tuple"
        }
      ],
      "stateMutability": "view",
      "type": "function"
    },
    {
      "inputs": [
        {
          "internalType": "address",
          "name": "asset",
          "type": "address"
        }
      ],
      "name": "getReserveNormalizedIncome",
      "outputs": [
        {
          "internalType": "uint256",
          "name": "",
          "type": "uint256"
        }
      ],
      "stateMutability": "view",
      "type": "function"
    },
    {
      "inputs": [
        {
          "internalType": "address",
          "name": "asset",
          "type": "address"
        }
      ],
      "name": "getReserveNormalizedVariableDebt",
      "outputs": [
        {
          "internalType": "uint256",
          "name": "",
          "type": "uint256"
        }
      ],
      "stateMutability": "view",
      "type": "function"
    },
    {
      "inputs": [],
      "name": "getReservesList",
      "outputs": [
        {
          "internalType": "address[]",
          "name": "",
          "type": "address[]"
        }
      ],
      "stateMutability": "view",
      "type": "function"
    },
    {
      "inputs": [
        {
          "internalType": "address",
          "name": "user",
          "type": "address"
        }
      ],
      "name": "getUserAccountData",
      "outputs": [
        {
          "internalType": "uint256",
          "name": "totalCollateralETH",
          "type": "uint256"
        },
        {
          "internalType": "uint256",
          "name": "totalDebtETH",
          "type": "uint256"
        },
        {
          "internalType": "uint256",
          "name": "availableBorrowsETH",
          "type": "uint256"
        },
        {
          "internalType": "uint256",
          "name": "currentLiquidationThreshold",
          "type": "uint256"
        },
        {
          "internalType": "uint256",
          "name": "ltv",
          "type": "uint256"
        },
        {
          "internalType": "uint256",
          "name": "healthFactor",
          "type": "uint256"
        },
        {
          "internalType": "uint256",
          "name": "totalCreditInEth",
          "type": "uint256"
        }
      ],
      "stateMutability": "view",
      "type": "function"
    },
    {
      "inputs": [
        {
          "internalType": "address",
          "name": "user",
          "type": "address"
        }
      ],
      "name": "getUserConfiguration",
      "outputs": [
        {
          "components": [
            {
              "internalType": "uint256",
              "name": "data",
              "type": "uint256"
            }
          ],
          "internalType": "struct DataTypes.UserConfigurationMap",
          "name": "",
          "type": "tuple"
        }
      ],
      "stateMutability": "view",
      "type": "function"
    },
    {
      "inputs": [
        {
          "internalType": "address",
          "name": "asset",
          "type": "address"
        },
        {
          "internalType": "address",
          "name": "aTokenAddress",
          "type": "address"
        },
        {
          "internalType": "address",
          "name": "stableDebtAddress",
          "type": "address"
        },
        {
          "internalType": "address",
          "name": "variableDebtAddress",
          "type": "address"
        },
        {
          "internalType": "address",
          "name": "interestRateStrategyAddress",
          "type": "address"
        },
        {
          "internalType": "address",
          "name": "creditTokenAddress",
          "type": "address"
        }
      ],
      "name": "initReserve",
      "outputs": [],
      "stateMutability": "nonpayable",
      "type": "function"
    },
    {
      "inputs": [
        {
          "internalType": "contract ILendingPoolAddressesProvider",
          "name": "provider",
          "type": "address"
        }
      ],
      "name": "initialize",
      "outputs": [],
      "stateMutability": "nonpayable",
      "type": "function"
    },
    {
      "inputs": [
        {
          "internalType": "address",
          "name": "collateralAsset",
          "type": "address"
        },
        {
          "internalType": "address",
          "name": "debtAsset",
          "type": "address"
        },
        {
          "internalType": "address",
          "name": "user",
          "type": "address"
        },
        {
          "internalType": "uint256",
          "name": "debtToCover",
          "type": "uint256"
        },
        {
          "internalType": "bool",
          "name": "receiveAToken",
          "type": "bool"
        }
      ],
      "name": "liquidationCall",
      "outputs": [],
      "stateMutability": "nonpayable",
      "type": "function"
    },
    {
      "inputs": [],
      "name": "paused",
      "outputs": [
        {
          "internalType": "bool",
          "name": "",
          "type": "bool"
        }
      ],
      "stateMutability": "view",
      "type": "function"
    },
    {
      "inputs": [
        {
          "internalType": "address",
          "name": "asset",
          "type": "address"
        },
        {
          "internalType": "address",
          "name": "user",
          "type": "address"
        }
      ],
      "name": "rebalanceStableBorrowRate",
      "outputs": [],
      "stateMutability": "nonpayable",
      "type": "function"
    },
    {
      "inputs": [
        {
          "internalType": "address",
          "name": "asset",
          "type": "address"
        },
        {
          "internalType": "uint256",
          "name": "amount",
          "type": "uint256"
        },
        {
          "internalType": "uint256",
          "name": "rateMode",
          "type": "uint256"
        },
        {
          "internalType": "address",
          "name": "onBehalfOf",
          "type": "address"
        }
      ],
      "name": "repay",
      "outputs": [
        {
          "internalType": "uint256",
          "name": "",
          "type": "uint256"
        }
      ],
      "stateMutability": "nonpayable",
      "type": "function"
    },
    {
      "inputs": [
        {
          "internalType": "address",
          "name": "asset",
          "type": "address"
        },
        {
          "internalType": "uint256",
          "name": "configuration",
          "type": "uint256"
        }
      ],
      "name": "setConfiguration",
      "outputs": [],
      "stateMutability": "nonpayable",
      "type": "function"
    },
    {
      "inputs": [
        {
          "internalType": "bool",
          "name": "val",
          "type": "bool"
        }
      ],
      "name": "setPause",
      "outputs": [],
      "stateMutability": "nonpayable",
      "type": "function"
    },
    {
      "inputs": [
        {
          "internalType": "address",
          "name": "asset",
          "type": "address"
        },
        {
          "internalType": "address",
          "name": "rateStrategyAddress",
          "type": "address"
        }
      ],
      "name": "setReserveInterestRateStrategyAddress",
      "outputs": [],
      "stateMutability": "nonpayable",
      "type": "function"
    },
    {
      "inputs": [
        {
          "internalType": "address",
          "name": "asset",
          "type": "address"
        },
        {
          "internalType": "bool",
          "name": "useAsCollateral",
          "type": "bool"
        }
      ],
      "name": "setUserUseReserveAsCollateral",
      "outputs": [],
      "stateMutability": "nonpayable",
      "type": "function"
    },
    {
      "inputs": [
        {
          "internalType": "address",
          "name": "asset",
          "type": "address"
        },
        {
          "internalType": "uint256",
          "name": "rateMode",
          "type": "uint256"
        }
      ],
      "name": "swapBorrowRateMode",
      "outputs": [],
      "stateMutability": "nonpayable",
      "type": "function"
    },
    {
      "inputs": [
        {
          "internalType": "address",
          "name": "asset",
          "type": "address"
        },
        {
          "internalType": "uint256",
          "name": "amount",
          "type": "uint256"
        },
        {
          "internalType": "address",
          "name": "to",
          "type": "address"
        }
      ],
      "name": "withdraw",
      "outputs": [
        {
          "internalType": "uint256",
          "name": "",
          "type": "uint256"
        }
      ],
      "stateMutability": "nonpayable",
      "type": "function"
    }
  ],
  "bytecode": "0x60806040526000805534801561001457600080fd5b50615ac380620000256000396000f3fe608060405234801561001057600080fd5b50600436106101c35760003560e01c8063ac6abd4e116100f9578063d15e005311610097578063e82fec2f11610071578063e82fec2f146103c3578063e8eda9df146103cb578063f8119d51146103de578063fe65acfe146103e6576101c3565b8063d15e005314610388578063d1946dbc1461039b578063d5ed3933146103b0576101c3565b8063bf92857c116100d3578063bf92857c14610329578063c44b11f71461034f578063c4d66de814610362578063cd11238214610375576101c3565b8063ac6abd4e146102f0578063b8d2927614610303578063bedb86fb14610316576101c3565b80635a3b74b9116101665780638afaff02116101405780638afaff02146102af57806394ba89a2146102b7578063a415bcad146102ca578063ab9c4b5d146102dd576101c3565b80635a3b74b9146102745780635c975abb1461028757806369328dec1461029c576101c3565b806335ea6a75116101a257806335ea6a751461020e578063386497fd1461022e5780634417a58314610241578063573ade8114610261576101c3565b8062a718a9146101c8578063074b2e43146101dd5780631d2118f9146101fb575b600080fd5b6101db6101d6366004614cd5565b6103fb565b005b6101e56105d1565b6040516101f291906159bc565b60405180910390f35b6101db610209366004614c1c565b6105d7565b61022161021c366004614be4565b610610565b6040516101f29190615784565b6101e561023c366004614be4565b6106ff565b61025461024f366004614be4565b610726565b6040516101f2919061577a565b6101e561026f366004614f82565b610759565b6101db610282366004614e98565b610b68565b61028f610d2d565b6040516101f291906155bb565b6101e56102aa366004614ef0565b610d36565b6101e5611060565b6101db6102c5366004614ec5565b611065565b6101db6102d8366004614fcb565b6113d2565b6101db6102eb366004614da0565b611452565b6101db6102fe366004614c54565b611b26565b6101db610311366004614ec5565b611c03565b6101db61032436600461501a565b611c27565b61033c610337366004614be4565b611ca2565b6040516101f29796959493929190615a0e565b61025461035d366004614be4565b611da4565b6101db610370366004614be4565b611dd7565b6101db610383366004614c1c565b611e7f565b6101e5610396366004614be4565b6120f5565b6103a3612116565b6040516101f2919061556e565b6101db6103be366004614d3c565b6121bb565b6101e5612404565b6101db6103d9366004614f31565b61240a565b6101e5612637565b6103ee61263d565b6040516101f2919061528d565b61040361264c565b6034546040805163712d917160e01b815290516000926001600160a01b03169163712d9171916004808301926020929190829003018186803b15801561044857600080fd5b505afa15801561045c573d6000803e3d6000fd5b505050506040513d601f19601f820116820180604052508101906104809190614c00565b905060006060826001600160a01b031688888888886040516024016104a9959493929190615315565b60408051601f198184030181529181526020820180516001600160e01b031662a718a960e01b179052516104dd9190615271565b600060405180830381855af49150503d8060008114610518576040519150601f19603f3d011682016040523d82523d6000602084013e61051d565b606091505b50915091508160405180604001604052806002815260200161323360f01b815250906105655760405162461bcd60e51b815260040161055c91906155c6565b60405180910390fd5b50600060608280602001905181019061057e919061506a565b9150915081600014816040516020016105979190615271565b604051602081830303815290604052906105c45760405162461bcd60e51b815260040161055c91906155c6565b5050505050505050505050565b603b5490565b6105df61268a565b6001600160a01b03918216600090815260356020526040902060070180546001600160a01b03191691909216179055565b61061861492a565b506001600160a01b0381811660009081526035602090815260409182902082516101c08101845281546101a08201908152815260018201546001600160801b0380821694830194909452600160801b908190048416948201949094526002820154808416606083015284900483166080820152600382015492831660a08201529290910464ffffffffff1660c08301526004810154831660e083015260058101548316610100830152600681015483166101208301526007810154831661014083015260080154918216610160820152600160a01b90910460ff166101808201525b919050565b6001600160a01b038116600090815260356020526040812061072090612749565b92915050565b61072e61499d565b506001600160a01b031660009081526036602090815260409182902082519182019092529054815290565b600061076361264c565b6001600160a01b038516600090815260356020526040812086918061078886846127be565b91509150600087600281111561079a57fe5b60405163fa0c214960e01b815290915073__$de8c0cf1a7d7c36c802af9a64fb9d86036$__9063fa0c2149906107de9087908d9086908d908a908a90600401615977565b60006040518083038186803b1580156107f657600080fd5b505af415801561080a573d6000803e3d6000fd5b50600092506001915061081a9050565b82600281111561082657fe5b146108315782610833565b835b905060006108428b600a6128d3565b9050818b1015610850578a91505b61085986612952565b600183600281111561086757fe5b14156108d8576005860154604051632770a7eb60e21b81526001600160a01b0390911690639dc29fac906108a1908c9086906004016152d2565b600060405180830381600087803b1580156108bb57600080fd5b505af11580156108cf573d6000803e3d6000fd5b50505050610956565b60068601546001870154604051637a94c56560e11b81526001600160a01b039092169163f5298aca91610923918d918791600160801b9091046001600160801b0316906004016152eb565b600060405180830381600087803b15801561093d57600080fd5b505af1158015610951573d6000803e3d6000fd5b505050505b600486015460088701546001600160a01b039182169116610987898361097c8787612a1f565b8b9291906000612a61565b61099b846109958989612dc9565b90612a1f565b6109d35760088801546001600160a01b038c1660009081526036602052604081206109d3929091600160a01b90910460ff1690612dee565b6109f433836109e28787612a1f565b6001600160a01b038d16929190612e5e565b6001600160a01b0382166388dd91a133610a0e8787612a1f565b6040518363ffffffff1660e01b8152600401610a2b9291906152d2565b600060405180830381600087803b158015610a4557600080fd5b505af1158015610a59573d6000803e3d6000fd5b50610a73925050506001600160a01b038a16338386612e5e565b600888015460405163b3f1c93d60e01b81526001600160a01b039091169063b3f1c93d90610aac908e908190889060009060040161536d565b602060405180830381600087803b158015610ac657600080fd5b505af1158015610ada573d6000803e3d6000fd5b505050506040513d601f19601f82011682018060405250810190610afe9190615036565b50336001600160a01b03168b6001600160a01b03168a6001600160a01b03167f4cdde6e09bb755c9a5589ebaec640bbfedff1362d4b255ebf8339782b9942faa87604051610b4c91906159bc565b60405180910390a450919750505050505050505b949350505050565b610b7061264c565b6001600160a01b03808316600090815260356020818152604080842033855260368352938190206038546034548351631f94a27560e31b81529351969773__$de8c0cf1a7d7c36c802af9a64fb9d86036$__97635fa297e5978a978d978d9792969295603795939493169263fca513a892600480840193919291829003018186803b158015610bfe57600080fd5b505afa158015610c12573d6000803e3d6000fd5b505050506040513d601f19601f82011682018060405250810190610c369190614c00565b6040518963ffffffff1660e01b8152600401610c599897969594939291906158c2565b60006040518083038186803b158015610c7157600080fd5b505af4158015610c85573d6000803e3d6000fd5b505050506008810154336000908152603660205260409020610cb191600160a01b900460ff1684612ebc565b8115610cf15760405133906001600160a01b038516907e058a56ea94653cdf4f152d227ace22d4c00ad99e2a43f58cb7d9e3feb295f290600090a3610d28565b60405133906001600160a01b038516907f44c58d81365b66dd4b1a7f36c25aa97b8c71c361ee4937adc1a00000227db5dd90600090a35b505050565b60395460ff1690565b6000610d4061264c565b6001600160a01b0380851660009081526035602052604080822060048082015492516370a0823160e01b8152919492909216929183916370a0823191610d889133910161528d565b60206040518083038186803b158015610da057600080fd5b505afa158015610db4573d6000803e3d6000fd5b505050506040513d601f19601f82011682018060405250810190610dd89190615052565b905085600019811415610de85750805b73__$de8c0cf1a7d7c36c802af9a64fb9d86036$__63d09db04a898385603560366000336001600160a01b03166001600160a01b031681526020019081526020016000206037603854603460009054906101000a90046001600160a01b03166001600160a01b031663fca513a86040518163ffffffff1660e01b815260040160206040518083038186803b158015610e7f57600080fd5b505afa158015610e93573d6000803e3d6000fd5b505050506040513d601f19601f82011682018060405250810190610eb79190614c00565b6040518963ffffffff1660e01b8152600401610eda98979695949392919061543e565b60006040518083038186803b158015610ef257600080fd5b505af4158015610f06573d6000803e3d6000fd5b50505050610f1384612952565b610f21848985600085612a61565b81811415610f8b576008840154336000908152603660205260408120610f54929091600160a01b90910460ff1690612ebc565b60405133906001600160a01b038a16907f44c58d81365b66dd4b1a7f36c25aa97b8c71c361ee4937adc1a00000227db5dd90600090a35b6001840154604051636b81068560e11b81526001600160a01b0385169163d7020d0a91610fcc9133918b9187916001600160801b03909116906004016152a1565b600060405180830381600087803b158015610fe657600080fd5b505af1158015610ffa573d6000803e3d6000fd5b50505050856001600160a01b0316336001600160a01b0316896001600160a01b03167f3115d1449a7b732c986cba18244e897a450f61e1bb8d589cd2e69e6c8924f9f78460405161104b91906159bc565b60405180910390a493505050505b9392505050565b600281565b61106d61264c565b6001600160a01b0382166000908152603560205260408120908061109133846127be565b9150915060008460028111156110a357fe5b3360009081526036602052604090819020905163a8695b1d60e01b815291925073__$de8c0cf1a7d7c36c802af9a64fb9d86036$__9163a8695b1d916110f491889190889088908890600401615932565b60006040518083038186803b15801561110c57600080fd5b505af4158015611120573d6000803e3d6000fd5b5050505061112d84612952565b600181600281111561113b57fe5b141561124b576005840154604051632770a7eb60e21b81526001600160a01b0390911690639dc29fac9061117590339087906004016152d2565b600060405180830381600087803b15801561118f57600080fd5b505af11580156111a3573d6000803e3d6000fd5b505050506006840154600185015460405163b3f1c93d60e01b81526001600160a01b039092169163b3f1c93d916111f391339182918991600160801b90046001600160801b0316906004016152a1565b602060405180830381600087803b15801561120d57600080fd5b505af1158015611221573d6000803e3d6000fd5b505050506040513d601f19601f820116820180604052508101906112459190615036565b50611361565b60068401546001850154604051637a94c56560e11b81526001600160a01b039092169163f5298aca916112969133918791600160801b9091046001600160801b0316906004016152eb565b600060405180830381600087803b1580156112b057600080fd5b505af11580156112c4573d6000803e3d6000fd5b505050506005840154600385015460405163b3f1c93d60e01b81526001600160a01b039092169163b3f1c93d9161130d913391829188916001600160801b0316906004016152a1565b602060405180830381600087803b15801561132757600080fd5b505af115801561133b573d6000803e3d6000fd5b505050506040513d601f19601f8201168201806040525081019061135f9190615036565b505b600484015461137f90859088906001600160a01b0316600080612a61565b336001600160a01b0316866001600160a01b03167fea368a40e9570069bb8e6511d668293ad2e1f03b0d982431fd223de9f3b70ca6876040516113c291906159bc565b60405180910390a3505050505050565b6113da61264c565b6001600160a01b038086166000818152603560209081526040918290208251610100810184529384523391840191909152848416918301919091526060820187905260808201869052600481015490921660a082015261ffff841660c0820152600160e082015261144a90612f32565b505050505050565b61145a61264c565b6114626149b0565b6114cf8b8b8080602002602001604051908101604052809392919081815260200183836020028082843760009201919091525050604080516020808f0282810182019093528e82529093508e92508d91829185019084908082843760009201919091525061342b92505050565b60608a67ffffffffffffffff811180156114e857600080fd5b50604051908082528060200260200182016040528015611512578160200160208202803683370190505b50905060608b67ffffffffffffffff8111801561152e57600080fd5b50604051908082528060200260200182016040528015611558578160200160208202803683370190505b506001600160a01b038f1684526000604085015290505b60408301518c111561171c57603560008e8e866040015181811061158f57fe5b90506020020160208101906115a49190614be4565b6001600160a01b03166001600160a01b0316815260200190815260200160002060040160009054906101000a90046001600160a01b0316828460400151815181106115eb57fe5b60200260200101906001600160a01b031690816001600160a01b03168152505061164261271061163c603b548e8e886040015181811061162757fe5b9050602002013561346990919063ffffffff16565b906134a3565b8184604001518151811061165257fe5b6020026020010181815250508183604001518151811061166e57fe5b60200260200101516001600160a01b0316634efecaa58f8d8d876040015181811061169557fe5b905060200201356040518363ffffffff1660e01b81526004016116b99291906152d2565b602060405180830381600087803b1580156116d357600080fd5b505af11580156116e7573d6000803e3d6000fd5b505050506040513d601f19601f8201168201806040525081019061170b9190615052565b50604083018051600101905261156f565b82600001516001600160a01b031663920f5c848e8e8e8e86338d8d6040518963ffffffff1660e01b815260040161175a9897969594939291906154aa565b602060405180830381600087803b15801561177457600080fd5b505af1158015611788573d6000803e3d6000fd5b505050506040513d601f19601f820116820180604052508101906117ac9190615036565b604051806040016040528060028152602001611b1b60f11b815250906117e55760405162461bcd60e51b815260040161055c91906155c6565b50600060408401525b60408301518c1115611b16578c8c846040015181811061180a57fe5b905060200201602081019061181f9190614be4565b6001600160a01b0316606084015260408301518b908b9081811061183f57fe5b905060200201358360a00181815250508083604001518151811061185f57fe5b60200260200101518360c00181815250508183604001518151811061188057fe5b60209081029190910101516001600160a01b0316608084015260c083015160a08401516118ac91612dc9565b60e08401526000898985604001518181106118c357fe5b9050602002013560028111156118d557fe5b60028111156118e057fe5b1415611a125760608301516001600160a01b0316600090815260356020526040902061190b90612952565b6119ab83608001516001600160a01b03166318160ddd6040518163ffffffff1660e01b815260040160206040518083038186803b15801561194b57600080fd5b505afa15801561195f573d6000803e3d6000fd5b505050506040513d601f19601f820116820180604052508101906119839190615052565b60c085015160608601516001600160a01b0316600090815260356020526040902091906134e5565b6060830151608084015160e08501516001600160a01b03831660009081526035602052604081206119e194909390929091612a61565b611a0d8e84608001518560e0015186606001516001600160a01b0316612e5e909392919063ffffffff16565b611aa1565b611aa160405180610100016040528085606001516001600160a01b03168152602001336001600160a01b03168152602001896001600160a01b031681526020018560a0015181526020018b8b8760400151818110611a6c57fe5b90506020020135815260200185608001516001600160a01b031681526020018661ffff16815260200160001515815250612f32565b82606001516001600160a01b0316336001600160a01b03168f6001600160a01b03167f631042c832b07452973831137f2d73e395028b44b250dedc5abb0ee766e168ac8660a001518760c0015189604051611afe939291906159c5565b60405180910390a460408301805160010190526117ee565b5050505050505050505050505050565b611b2e61268a565b611b37866135a2565b6040518060400160405280600281526020016106e760f31b81525090611b705760405162461bcd60e51b815260040161055c91906155c6565b506001600160a01b0386166000908152603560205260409081902090516362b6ee6360e01b815273__$22cd43a9dda9ce44e9b92ba393b88fb9ac$__916362b6ee6391611bca91908990899089908990899060040161588c565b60006040518083038186803b158015611be257600080fd5b505af4158015611bf6573d6000803e3d6000fd5b5050505061144a866135db565b611c0b61268a565b6001600160a01b03909116600090815260356020526040902055565b611c2f61268a565b6039805460ff1916821515179081905560ff1615611c75576040517f9e87fac88ff661f02d44f95383c817fece4bce600a3dab7a54406878b965e75290600090a1611c9f565b6040517fa45f47fdea8a1efdd9029a5691c7f759c32b7c698632b563573e155625d1693390600090a15b50565b6000806000806000806000611d7d886035603660008c6001600160a01b03166001600160a01b031681526020019081526020016000206040518060200160405290816000820154815250506037603854603460009054906101000a90046001600160a01b03166001600160a01b031663fca513a86040518163ffffffff1660e01b815260040160206040518083038186803b158015611d4057600080fd5b505afa158015611d54573d6000803e3d6000fd5b505050506040513d601f19601f82011682018060405250810190611d789190614c00565b6136e4565b949b509299509650945092509050611d9787878584613d61565b9450919395979092949650565b611dac61499d565b506001600160a01b031660009081526035602090815260409182902082519182019092529054815290565b6000611de1613da0565b60015490915060ff1680611df85750611df8613da5565b80611e04575060005481115b611e205760405162461bcd60e51b815260040161055c906156ab565b60015460ff16158015611e3f576001805460ff19168117905560008290555b603480546001600160a01b0319166001600160a01b0385161790556109c4603a556009603b556080603c558015610d28576001805460ff19169055505050565b611e8761264c565b6001600160a01b038083166000908152603560205260408082206005810154600682015460048084015494516370a0823160e01b81529396928316959183169490921692909185916370a0823191611ee1918a910161528d565b60206040518083038186803b158015611ef957600080fd5b505afa158015611f0d573d6000803e3d6000fd5b505050506040513d601f19601f82011682018060405250810190611f319190615052565b60405163548cad0960e01b815290915073__$de8c0cf1a7d7c36c802af9a64fb9d86036$__9063548cad0990611f739088908b90899089908990600401615904565b60006040518083038186803b158015611f8b57600080fd5b505af4158015611f9f573d6000803e3d6000fd5b50505050611fac85612952565b604051632770a7eb60e21b81526001600160a01b03851690639dc29fac90611fda90899085906004016152d2565b600060405180830381600087803b158015611ff457600080fd5b505af1158015612008573d6000803e3d6000fd5b505050600386015460405163b3f1c93d60e01b81526001600160a01b038716925063b3f1c93d9161204b918a91829187916001600160801b0316906004016152a1565b602060405180830381600087803b15801561206557600080fd5b505af1158015612079573d6000803e3d6000fd5b505050506040513d601f19601f8201168201806040525081019061209d9190615036565b506120ac858884600080612a61565b856001600160a01b0316876001600160a01b03167f9f439ae0c81e41a04d3fdfe07aed54e6a179fb0db15be7702eb66fa8ef6f530060405160405180910390a350505050505050565b6001600160a01b038116600090815260356020526040812061072090613dab565b60608060385467ffffffffffffffff8111801561213257600080fd5b5060405190808252806020026020018201604052801561215c578160200160208202803683370190505b50905060005b6038548110156121b55760008181526037602052604090205482516001600160a01b039091169083908390811061219557fe5b6001600160a01b0390921660209283029190910190910152600101612162565b50905090565b6121c361264c565b6001600160a01b038681166000908152603560209081526040918290206004015482518084019093526002835261363360f01b91830191909152909116331461221f5760405162461bcd60e51b815260040161055c91906155c6565b506122db85603560366000896001600160a01b03166001600160a01b031681526020019081526020016000206037603854603460009054906101000a90046001600160a01b03166001600160a01b031663fca513a86040518163ffffffff1660e01b815260040160206040518083038186803b15801561229e57600080fd5b505afa1580156122b2573d6000803e3d6000fd5b505050506040513d601f19601f820116820180604052508101906122d69190614c00565b613e0a565b6001600160a01b03868116600090815260356020526040902060080154600160a01b900460ff1690858116908716146123fb576123188385612a1f565b612384576001600160a01b0386166000908152603660205260408120906123429082908490612ebc565b866001600160a01b0316886001600160a01b03167f44c58d81365b66dd4b1a7f36c25aa97b8c71c361ee4937adc1a00000227db5dd60405160405180910390a3505b8115801561239157508315155b156123fb576001600160a01b03851660009081526036602052604090206123ba81836001612ebc565b856001600160a01b0316886001600160a01b03167e058a56ea94653cdf4f152d227ace22d4c00ad99e2a43f58cb7d9e3feb295f260405160405180910390a3505b50505050505050565b603a5490565b61241261264c565b6001600160a01b038416600090815260356020526040908190209051630eca322b60e01b815273__$de8c0cf1a7d7c36c802af9a64fb9d86036$__90630eca322b906124649084908890600401615969565b60006040518083038186803b15801561247c57600080fd5b505af4158015612490573d6000803e3d6000fd5b5050505060048101546001600160a01b03166124ab82612952565b6124b9828783886000612a61565b6124ce6001600160a01b038716338388612e5e565b6001820154604051630ab714fb60e11b81526000916001600160a01b0384169163156e29f6916125109189918b916001600160801b03909116906004016152eb565b602060405180830381600087803b15801561252a57600080fd5b505af115801561253e573d6000803e3d6000fd5b505050506040513d601f19601f820116820180604052508101906125629190615036565b905080156125dc5760088301546001600160a01b038616600090815260366020526040902061259c91600160a01b900460ff166001612ebc565b846001600160a01b0316876001600160a01b03167e058a56ea94653cdf4f152d227ace22d4c00ad99e2a43f58cb7d9e3feb295f260405160405180910390a35b8361ffff16856001600160a01b0316886001600160a01b03167fde6857219544bb5b7746f48ed30be6386fefc61b2f864cacf559893bf50fd951338a6040516126269291906152d2565b60405180910390a450505050505050565b603c5490565b6034546001600160a01b031690565b6039546040805180820190915260028152610d8d60f21b60208201529060ff1615611c9f5760405162461bcd60e51b815260040161055c91906155c6565b603454604080516385c858b160e01b8152905133926001600160a01b0316916385c858b1916004808301926020929190829003018186803b1580156126ce57600080fd5b505afa1580156126e2573d6000803e3d6000fd5b505050506040513d601f19601f820116820180604052508101906127069190614c00565b6001600160a01b03161460405180604001604052806002815260200161323760f01b81525090611c9f5760405162461bcd60e51b815260040161055c91906155c6565b600381015460009064ffffffffff600160801b90910481169042168114156127875750506001810154600160801b90046001600160801b03166106fa565b60018301546002840154600091610b60916001600160801b03600160801b928390048116926127b892041685613e81565b90613e8e565b60058101546040516370a0823160e01b815260009182916001600160a01b03909116906370a08231906127f590879060040161528d565b60206040518083038186803b15801561280d57600080fd5b505afa158015612821573d6000803e3d6000fd5b505050506040513d601f19601f820116820180604052508101906128459190615052565b60068401546040516370a0823160e01b81526001600160a01b03909116906370a082319061287790889060040161528d565b60206040518083038186803b15801561288f57600080fd5b505afa1580156128a3573d6000803e3d6000fd5b505050506040513d601f19601f820116820180604052508101906128c79190615052565b915091505b9250929050565b60008215806128e0575081155b156128ed57506000610720565b8161138819816128f957fe5b0483111560405180604001604052806002815260200161068760f31b815250906129365760405162461bcd60e51b815260040161055c91906155c6565b506127106002815b04838502018161294a57fe5b049392505050565b60068101546040805163b1bf962d60e01b815290516000926001600160a01b03169163b1bf962d916004808301926020929190829003018186803b15801561299957600080fd5b505afa1580156129ad573d6000803e3d6000fd5b505050506040513d601f19601f820116820180604052508101906129d19190615052565b60018301546003840154919250600160801b8082046001600160801b03908116939216910464ffffffffff16600080612a0d8787868887613f11565b915091506123fb87878785858861406e565b600061105983836040518060400160405280601e81526020017f536166654d6174683a207375627472616374696f6e206f766572666c6f770000815250614231565b612a696149fc565b60058601546001600160a01b031680825260408051637b98f4df60e11b8152815163f731e9be92600480840193919291829003018186803b158015612aad57600080fd5b505afa158015612ac1573d6000803e3d6000fd5b505050506040513d601f19601f82011682018060405250810190612ae59190615111565b60c083015260408083019190915260018701546006880154825163b1bf962d60e01b81529251612b8a93600160801b9093046001600160801b0316926001600160a01b039092169163b1bf962d916004808301926020929190829003018186803b158015612b5257600080fd5b505afa158015612b66573d6000803e3d6000fd5b505050506040513d601f19601f820116820180604052508101906127b89190615052565b60e082018190526007870154604083015160c08401516001600160a01b03909216926329db497d9289928992899289929190612bc58f61425d565b6040518963ffffffff1660e01b8152600401612be8989796959493929190615396565b60606040518083038186803b158015612c0057600080fd5b505afa158015612c14573d6000803e3d6000fd5b505050506040513d601f19601f82011682018060405250810190612c389190615134565b60a0840152608083015260608201819052604080518082019091526002815261353360f01b6020820152906001600160801b031015612c8a5760405162461bcd60e51b815260040161055c91906155c6565b506080810151604080518082019091526002815261353560f01b6020820152906001600160801b031015612cd15760405162461bcd60e51b815260040161055c91906155c6565b5060a08101516040805180820190915260028152610d4d60f21b6020820152906001600160801b031015612d185760405162461bcd60e51b815260040161055c91906155c6565b506060810151600287018054608084015160038a0180546001600160801b03199081166001600160801b038085169190911790925560a08701519316818616178116600160801b84831681029190911790945560018b01546040516001600160a01b038c16967f804c9b842b2748a22bb64b345453a3de7ca54a6ca45ce00d415894979e22897a96612db996919594919380831693919004909116906159df565b60405180910390a2505050505050565b6000828201838110156110595760405162461bcd60e51b815260040161055c906155fe565b604080518082019091526002815261373760f01b602082015260558310612e285760405162461bcd60e51b815260040161055c91906155c6565b508160030281612e39576000612e3c565b60015b60ff16901b826003026001901b19846000015416178360000181905550505050565b612eb6846323b872dd60e01b858585604051602401612e7f93929190615349565b60408051601f198184030181529190526020810180516001600160e01b03166001600160e01b031990931692909217909152614268565b50505050565b604080518082019091526002815261373760f01b602082015260558310612ef65760405162461bcd60e51b815260040161055c91906155c6565b508160030260010181612f0a576000612f0d565b60015b60ff16901b826003026001016001901b19846000015416178360000181905550505050565b80516001600160a01b0390811660009081526035602090815260408083208186015185168452603683528184206034548351631f94a27560e31b81529351929691959491169263fca513a89260048083019392829003018186803b158015612f9957600080fd5b505afa158015612fad573d6000803e3d6000fd5b505050506040513d601f19601f82011682018060405250810190612fd19190614c00565b90506000613072612fe18561434d565b600a0a61163c8760600151856001600160a01b031663b3596f078a600001516040518263ffffffff1660e01b815260040161301c919061528d565b60206040518083038186803b15801561303457600080fd5b505afa158015613048573d6000803e3d6000fd5b505050506040513d601f19601f8201168201806040525081019061306c9190615052565b90613469565b905073__$de8c0cf1a7d7c36c802af9a64fb9d86036$__63721a92f986600001518688604001518960600151868b60800151603a5460358c60376038548e6040518d63ffffffff1660e01b81526004016130d79c9b9a999897969594939291906153da565b60006040518083038186803b1580156130ef57600080fd5b505af4158015613103573d6000803e3d6000fd5b5050505061311084612952565b60008060018760800151600281111561312557fe5b600281111561313057fe5b14156131e5576003860154600587015460208901516040808b015160608c0151915163b3f1c93d60e01b81526001600160801b0390951696506001600160a01b039093169363b3f1c93d9361318c93929091889060040161536d565b602060405180830381600087803b1580156131a657600080fd5b505af11580156131ba573d6000803e3d6000fd5b505050506040513d601f19601f820116820180604052508101906131de9190615036565b9050613294565b600686015460208801516040808a015160608b015160018b0154925163b3f1c93d60e01b81526001600160a01b039095169463b3f1c93d9461323f9490939291600160801b9091046001600160801b0316906004016152a1565b602060405180830381600087803b15801561325957600080fd5b505af115801561326d573d6000803e3d6000fd5b505050506040513d601f19601f820116820180604052508101906132919190615036565b90505b80156132b65760088601546132b6908690600160a01b900460ff166001612dee565b6132e587600001518860a0015160008a60e001516132d55760006132db565b8a606001515b8a93929190612a61565b8660e001511561337d578660a001516001600160a01b0316634efecaa5886020015189606001516040518363ffffffff1660e01b81526004016133299291906152d2565b602060405180830381600087803b15801561334357600080fd5b505af1158015613357573d6000803e3d6000fd5b505050506040513d601f19601f8201168201806040525081019061337b9190615052565b505b8660c0015161ffff1687604001516001600160a01b031688600001516001600160a01b03167fc6a898309e823ee50bac64e45ca8adba6690e99e7841c45d754e2a38e9019d9b8a602001518b606001518c60800151600160028111156133df57fe5b8e6080015160028111156133ef57fe5b60028111156133fa57fe5b146134195760028d0154600160801b90046001600160801b031661341b565b885b6040516126269493929190615484565b805182511460405180604001604052806002815260200161373360f01b81525090610d285760405162461bcd60e51b815260040161055c91906155c6565b60008261347857506000610720565b8282028284828161348557fe5b04146110595760405162461bcd60e51b815260040161055c9061566a565b600061105983836040518060400160405280601a81526020017f536166654d6174683a206469766973696f6e206279207a65726f000000000000815250614357565b60006135026134f38461438e565b6134fc8461438e565b906143de565b90506000613518613511614489565b8390612dc9565b60018601549091506135349082906001600160801b0316613e8e565b604080518082019091526002815261353160f01b60208201529091506001600160801b038211156135785760405162461bcd60e51b815260040161055c91906155c6565b5060019490940180546001600160801b0319166001600160801b0390951694909417909355505050565b6000813f7fc5d2460186f7233c927e7db2dcc703c0e500b653ca82273b7bfad8045d85a470818114801590610b60575050151592915050565b603854603c54604080518082019091526002815261363560f01b602082015290821061361a5760405162461bcd60e51b815260040161055c91906155c6565b506001600160a01b038216600090815260356020526040812060080154600160a01b900460ff1615158061368357506000805260376020527fa0a618d80eda9243166be83cb7421d97e9dab6ddddd3c70ac7a6b4440256e8e7546001600160a01b038481169116145b905080610d2857506001600160a01b03919091166000818152603560209081526040808320600801805460ff60a01b1916600160a01b60ff8816021790558483526037909152902080546001600160a01b0319169091179055600101603855565b600080808080808b6136f4614a4a565b6136fd8c614499565b156137205760008060008060001960009750975097509750975097505050613d52565b60005b8a811015613c48576137358d8261449e565b61373e57613c40565b8b600082815260200190815260200160002060009054906101000a90046001600160a01b0316826101c001906001600160a01b031690816001600160a01b03168152505060008e6000846101c001516001600160a01b03166001600160a01b0316815260200190815260200160002090506137bb816000016144ef565b506080870181905260c08701929092525060a0850191909152600a0a60208401526101c083015160405163b3596f0760e01b81526001600160a01b038d169163b3596f079161380d919060040161528d565b60206040518083038186803b15801561382557600080fd5b505afa158015613839573d6000803e3d6000fd5b505050506040513d601f19601f8201168201806040525081019061385d9190615052565b835260c08301511580159061387757506138778e8361451a565b15613983576004808201546040516370a0823160e01b81526001600160a01b03909116916370a08231916138ad9188910161528d565b60206040518083038186803b1580156138c557600080fd5b505afa1580156138d9573d6000803e3d6000fd5b505050506040513d601f19601f820116820180604052508101906138fd9190615052565b604084018190526020840151845160009261391c929161163c91613469565b61010085015190915061392f9082612dc9565b61010085015260a084015161395590613949908390613469565b61014086015190612dc9565b61014085015260c084015161397b9061396f908390613469565b61016086015190612dc9565b610160850152505b61398d8e83614572565b15613adb5760058101546040516370a0823160e01b81526001600160a01b03909116906370a08231906139c490879060040161528d565b60206040518083038186803b1580156139dc57600080fd5b505afa1580156139f0573d6000803e3d6000fd5b505050506040513d601f19601f82011682018060405250810190613a149190615052565b606084015260068101546040516370a0823160e01b8152613aa8916001600160a01b0316906370a0823190613a4d90889060040161528d565b60206040518083038186803b158015613a6557600080fd5b505afa158015613a79573d6000803e3d6000fd5b505050506040513d601f19601f82011682018060405250810190613a9d9190615052565b606085015190612dc9565b6060840181905260208401518451613ad492613ac8929161163c91613469565b61012085015190612dc9565b6101208401525b602083015160088201546040516370a0823160e01b8152600092613b7592909161163c916001600160a01b0316906370a0823190613b1d908b9060040161528d565b60206040518083038186803b158015613b3557600080fd5b505afa158015613b49573d6000803e3d6000fd5b505050506040513d601f19601f82011682018060405250810190613b6d9190615052565b875190613469565b610220850151909150613b889082612dc9565b61022085015260408051808201909152601781527f436f6d696e6720746f2047656e65726963204c6f6769630000000000000000006020820152613bcb906145c3565b613c036040518060400160405280600e81526020016d637265646974696e65746820257360901b815250613bfe83614606565b6146e1565b613c1d6139498560a001518361346990919063ffffffff16565b61014085015260c0840151613c379061396f908390613469565b61016085015250505b600101613723565b506000613c68826102200151836101000151612dc990919063ffffffff16565b11613c74576000613ca0565b613ca0613c94826102200151836101000151612dc990919063ffffffff16565b610140830151906134a3565b610140820152610220810151610100820151600091613cbf9190612dc9565b11613ccb576000613cf7565b613cf7613ceb826102200151836101000151612dc990919063ffffffff16565b610160830151906134a3565b6101608201819052610100820151610120830151610220840151613d1b939061472a565b60e0820181905261010082015161012083015161014084015161016085015161022090950151929b50909950975091955093509150505b96509650965096509650969050565b600080613d7884613d728886612dc9565b906128d3565b905084811015613d8c576000915050610b60565b613d968186612a1f565b9695505050505050565b600290565b303b1590565b600381015460009064ffffffffff600160801b9091048116904216811415613de257505060018101546001600160801b03166106fa565b60018301546002840154600091610b60916001600160801b03918216916127b891168561475b565b604080516020810190915284548152600090613e2c90889088908787876136e4565b50945050505050670de0b6b3a7640000811015604051806040016040528060018152602001601b60f91b81525090613e775760405162461bcd60e51b815260040161055c91906155c6565b5050505050505050565b6000611059838342614799565b6000821580613e9b575081155b15613ea857506000610720565b816b019d971e4fe8401e740000001981613ebe57fe5b0483111560405180604001604052806002815260200161068760f31b81525090613efb5760405162461bcd60e51b815260040161055c91906155c6565b506b033b2e3c9fd0803ce800000060028161293e565b600285015460009081906001600160801b03168585821561403f576000613f38848861475b565b9050613f44818a613e8e565b604080518082019091526002815261353160f01b60208201529093506001600160801b03841115613f885760405162461bcd60e51b815260040161055c91906155c6565b5060018b0180546001600160801b0319166001600160801b038516179055891561403d5760028b0154600090613fce90600160801b90046001600160801b031689613e81565b9050613fda818a613e8e565b6040805180820190915260028152611a9960f11b60208201529093506001600160801b0384111561401e5760405162461bcd60e51b815260040161055c91906155c6565b505060018b0180546001600160801b03808516600160801b0291161790555b505b600399909901805464ffffffffff60801b1916600160801b4264ffffffffff1602179055989650505050505050565b614076614ae4565b61407f8761425d565b6101208201819052614091575061144a565b8660050160009054906101000a90046001600160a01b03166001600160a01b031663797743386040518163ffffffff1660e01b815260040160806040518083038186803b1580156140e157600080fd5b505afa1580156140f5573d6000803e3d6000fd5b505050506040513d601f19601f820116820180604052508101906141199190615161565b64ffffffffff1661014085015260a08401528252602082015261413c8686613e8e565b608082015261414b8684613e8e565b606082015260a081015161014082015161416d919064ffffffffff8516614799565b60c08201819052602082015161418291613e8e565b604082018190526080820151825160608401516141a793926109959290918391612dc9565b60e082018190526101208201516141be91906128d3565b6101008201819052156123fb57600480880154610100830151604051637df5bd3b60e01b81526001600160a01b0390921692637df5bd3b926142039291899101615969565b600060405180830381600087803b15801561421d57600080fd5b505af11580156105c4573d6000803e3d6000fd5b600081848411156142555760405162461bcd60e51b815260040161055c91906155c6565b505050900390565b5460401c61ffff1690565b61427a826001600160a01b03166135a2565b6142965760405162461bcd60e51b815260040161055c90615743565b60006060836001600160a01b0316836040516142b29190615271565b6000604051808303816000865af19150503d80600081146142ef576040519150601f19603f3d011682016040523d82523d6000602084013e6142f4565b606091505b5091509150816143165760405162461bcd60e51b815260040161055c90615635565b805115612eb657808060200190518101906143319190615036565b612eb65760405162461bcd60e51b815260040161055c906156f9565b5460301c60ff1690565b600081836143785760405162461bcd60e51b815260040161055c91906155c6565b50600083858161438457fe5b0495945050505050565b6000633b9aca0082810290839082041460405180604001604052806002815260200161068760f31b815250906143d75760405162461bcd60e51b815260040161055c91906155c6565b5092915050565b604080518082019091526002815261035360f41b6020820152600090826144185760405162461bcd60e51b815260040161055c91906155c6565b5060408051808201909152600280825261068760f31b60208301528304906b033b2e3c9fd0803ce80000008219048511156144665760405162461bcd60e51b815260040161055c91906155c6565b5082816b033b2e3c9fd0803ce80000008602018161448057fe5b04949350505050565b6b033b2e3c9fd0803ce800000090565b511590565b60006055821060405180604001604052806002815260200161373760f01b815250906144dd5760405162461bcd60e51b815260040161055c91906155c6565b50509051600760039092021c16151590565b5461ffff80821692601083901c821692602081901c831692603082901c60ff169260409290921c1690565b60006055821060405180604001604052806002815260200161373760f01b815250906145595760405162461bcd60e51b815260040161055c91906155c6565b5050815160016003830281019190911c16151592915050565b60006055821060405180604001604052806002815260200161373760f01b815250906145b15760405162461bcd60e51b815260040161055c91906155c6565b50509051600160039092021c16151590565b611c9f816040516024016145d791906155c6565b60408051601f198184030181529190526020810180516001600160e01b031663104c13eb60e21b17905261486f565b60608161462b57506040805180820190915260018152600360fc1b60208201526106fa565b8160005b811561464357600101600a8204915061462f565b60608167ffffffffffffffff8111801561465c57600080fd5b506040519080825280601f01601f191660200182016040528015614687576020820181803683370190505b50859350905060001982015b83156146d857600a840660300160f81b828280600190039350815181106146b657fe5b60200101906001600160f81b031916908160001a905350600a84049350614693565b50949350505050565b61472682826040516024016146f79291906155d9565b60408051601f198184030181529190526020810180516001600160e01b0316634b5c427760e01b17905261486f565b5050565b60008361473a5750600019610b60565b6147528461474c85613d728987612dc9565b90614890565b95945050505050565b60008061476f4264ffffffffff8516612a1f565b9050610b6061477c614489565b6301e1338061478b8785613469565b8161479257fe5b0490612dc9565b6000806147ad8364ffffffffff8616612a1f565b9050806147c4576147bc614489565b915050611059565b60001981016000600283116147da5760006147df565b600283035b90506301e13380870460006147f48280613e8e565b905060006148028284613e8e565b9050600060026148168461306c8a8a613469565b8161481d57fe5b049050600060066148348461306c89818d8d613469565b8161483b57fe5b04905061485f8161485984816148518a8e613469565b614859614489565b90612dc9565b9c9b505050505050505050505050565b80516a636f6e736f6c652e6c6f67602083016000808483855afa5050505050565b604080518082019091526002815261035360f41b6020820152600090826148ca5760405162461bcd60e51b815260040161055c91906155c6565b5060408051808201909152600280825261068760f31b6020830152830490670de0b6b3a76400008219048511156149145760405162461bcd60e51b815260040161055c91906155c6565b508281670de0b6b3a76400008602018161448057fe5b604051806101a0016040528061493e61499d565b815260006020820181905260408201819052606082018190526080820181905260a0820181905260c0820181905260e0820181905261010082018190526101208201819052610140820181905261016082018190526101809091015290565b6040518060200160405280600081525090565b6040805161012081018252600080825260208201819052918101829052606081018290526080810182905260a0810182905260c0810182905260e0810182905261010081019190915290565b60405180610100016040528060006001600160a01b03168152602001600081526020016000815260200160008152602001600081526020016000815260200160008152602001600081525090565b6040518061024001604052806000815260200160008152602001600081526020016000815260200160008152602001600081526020016000815260200160008152602001600081526020016000815260200160008152602001600081526020016000815260200160001515815260200160006001600160a01b03168152602001600015158152602001600015158152602001600081525090565b60405180610160016040528060008152602001600081526020016000815260200160008152602001600081526020016000815260200160008152602001600081526020016000815260200160008152602001600064ffffffffff1681525090565b803561072081615a6a565b60008083601f840112614b61578182fd5b50813567ffffffffffffffff811115614b78578182fd5b60208301915083602080830285010111156128cc57600080fd5b60008083601f840112614ba3578182fd5b50813567ffffffffffffffff811115614bba578182fd5b6020830191508360208285010111156128cc57600080fd5b803561ffff8116811461072057600080fd5b600060208284031215614bf5578081fd5b813561105981615a6a565b600060208284031215614c11578081fd5b815161105981615a6a565b60008060408385031215614c2e578081fd5b8235614c3981615a6a565b91506020830135614c4981615a6a565b809150509250929050565b60008060008060008060c08789031215614c6c578182fd5b8635614c7781615a6a565b95506020870135614c8781615a6a565b94506040870135614c9781615a6a565b93506060870135614ca781615a6a565b92506080870135614cb781615a6a565b915060a0870135614cc781615a6a565b809150509295509295509295565b600080600080600060a08688031215614cec578081fd5b8535614cf781615a6a565b94506020860135614d0781615a6a565b93506040860135614d1781615a6a565b9250606086013591506080860135614d2e81615a7f565b809150509295509295909350565b60008060008060008060c08789031215614d54578182fd5b8635614d5f81615a6a565b95506020870135614d6f81615a6a565b94506040870135614d7f81615a6a565b959894975094956060810135955060808101359460a0909101359350915050565b600080600080600080600080600080600060e08c8e031215614dc0578485fd5b614dca8d8d614b45565b9a5067ffffffffffffffff8060208e01351115614de5578586fd5b614df58e60208f01358f01614b50565b909b50995060408d0135811015614e0a578586fd5b614e1a8e60408f01358f01614b50565b909950975060608d0135811015614e2f578586fd5b614e3f8e60608f01358f01614b50565b9097509550614e518e60808f01614b45565b94508060a08e01351115614e63578384fd5b50614e748d60a08e01358e01614b92565b9093509150614e868d60c08e01614bd2565b90509295989b509295989b9093969950565b60008060408385031215614eaa578182fd5b8235614eb581615a6a565b91506020830135614c4981615a7f565b60008060408385031215614ed7578182fd5b8235614ee281615a6a565b946020939093013593505050565b600080600060608486031215614f04578081fd5b8335614f0f81615a6a565b9250602084013591506040840135614f2681615a6a565b809150509250925092565b60008060008060808587031215614f46578182fd5b8435614f5181615a6a565b9350602085013592506040850135614f6881615a6a565b9150614f778660608701614bd2565b905092959194509250565b60008060008060808587031215614f97578182fd5b8435614fa281615a6a565b935060208501359250604085013591506060850135614fc081615a6a565b939692955090935050565b600080600080600060a08688031215614fe2578283fd5b8535614fed81615a6a565b9450602086013593506040860135925061500a8760608801614bd2565b91506080860135614d2e81615a6a565b60006020828403121561502b578081fd5b813561105981615a7f565b600060208284031215615047578081fd5b815161105981615a7f565b600060208284031215615063578081fd5b5051919050565b6000806040838503121561507c578182fd5b82519150602083015167ffffffffffffffff8082111561509a578283fd5b818501915085601f8301126150ad578283fd5b8151818111156150bb578384fd5b604051601f8201601f1916810160200183811182821017156150db578586fd5b6040528181528382016020018810156150f2578485fd5b615103826020830160208701615a3e565b809450505050509250929050565b60008060408385031215615123578182fd5b505080516020909101519092909150565b600080600060608486031215615148578081fd5b8351925060208401519150604084015190509250925092565b60008060008060808587031215615176578182fd5b845193506020850151925060408501519150606085015164ffffffffff81168114614fc0578182fd5b6001600160a01b0316815260200190565b6001600160a01b03169052565b6000815180845260208085019450808401835b838110156151ec578151875295820195908201906001016151d0565b509495945050505050565b60008284528282602086013780602084860101526020601f19601f85011685010190509392505050565b60008151808452615239816020860160208601615a3e565b601f01601f19169290920160200192915050565b519052565b6001600160801b03169052565b64ffffffffff169052565b60ff169052565b60008251615283818460208701615a3e565b9190910192915050565b6001600160a01b0391909116815260200190565b6001600160a01b03948516815292909316602083015260408201526001600160801b03909116606082015260800190565b6001600160a01b03929092168252602082015260400190565b6001600160a01b0393909316835260208301919091526001600160801b0316604082015260600190565b6001600160a01b03958616815293851660208501529190931660408301526060820192909252901515608082015260a00190565b6001600160a01b039384168152919092166020820152604081019190915260600190565b6001600160a01b0394851681529290931660208301526040820152606081019190915260800190565b6001600160a01b03988916815296909716602087015260408601949094526060850192909252608084015260a083015260c082015260e08101919091526101000190565b6001600160a01b039c8d168152602081019b909b52988b1660408b015260608a0197909752608089019590955260a088019390935260c087019190915260e08601526101008501526101208401526101408301529091166101608201526101800190565b6001600160a01b039889168152602081019790975260408701959095526060860193909352608085019190915260a084015260c083015290911660e08201526101000190565b6001600160a01b0394909416845260208401929092526040830152606082015260800190565b600060a0820160a08352806154bf8b836159bc565b90508b9150825b8b8110156154f257602083016154e5836154e08387614b45565b61519f565b90935091506001016154c6565b5083810360208501528881526001600160fb1b03891115615511578283fd5b602089029150818a6020830137016020818101838152848303909101604085015261553c81896151bd565b91505061554c60608401876151b0565b828103608084015261555f8185876151f7565b9b9a5050505050505050505050565b6020808252825182820181905260009190848201906040850190845b818110156155af5783516001600160a01b03168352928401929184019160010161558a565b50909695505050505050565b901515815260200190565b6000602082526110596020830184615221565b6000604082526155ec6040830185615221565b82810360208401526147528185615221565b6020808252601b908201527f536166654d6174683a206164646974696f6e206f766572666c6f770000000000604082015260600190565b6020808252818101527f5361666545524332303a206c6f772d6c6576656c2063616c6c206661696c6564604082015260600190565b60208082526021908201527f536166654d6174683a206d756c7469706c69636174696f6e206f766572666c6f6040820152607760f81b606082015260800190565b6020808252602e908201527f436f6e747261637420696e7374616e63652068617320616c726561647920626560408201526d195b881a5b9a5d1a585b1a5e995960921b606082015260800190565b6020808252602a908201527f5361666545524332303a204552433230206f7065726174696f6e20646964206e6040820152691bdd081cdd58d8d9595960b21b606082015260800190565b6020808252601f908201527f5361666545524332303a2063616c6c20746f206e6f6e2d636f6e747261637400604082015260600190565b9051815260200190565b60006101a08201905061579882845161524d565b60208301516157aa6020840182615252565b5060408301516157bd6040840182615252565b5060608301516157d06060840182615252565b5060808301516157e36080840182615252565b5060a08301516157f660a0840182615252565b5060c083015161580960c084018261525f565b5060e083015161581c60e08401826151b0565b5061010080840151615830828501826151b0565b505061012080840151615845828501826151b0565b50506101408084015161585a828501826151b0565b50506101608084015161586f828501826151b0565b5050610180808401516158848285018261526a565b505092915050565b9586526001600160a01b03948516602087015292841660408601529083166060850152821660808401521660a082015260c00190565b9788526001600160a01b03968716602089015294151560408801526060870193909352608086019190915260a085015260c08401521660e08201526101000190565b9485526001600160a01b03938416602086015291831660408501528216606084015216608082015260a00190565b600060a0820190508682528560208301528460408301528360608301526003831061595957fe5b8260808301529695505050505050565b918252602082015260400190565b8681526020810186905260c081016003861061598f57fe5b60408201959095526001600160a01b03939093166060840152608083019190915260a09091015292915050565b90815260200190565b928352602083019190915261ffff16604082015260600190565b948552602085019390935260408401919091526001600160801b03908116606084015216608082015260a00190565b968752602087019590955260408601939093526060850191909152608084015260a083015260c082015260e00190565b60005b83811015615a59578181015183820152602001615a41565b83811115612eb65750506000910152565b6001600160a01b0381168114611c9f57600080fd5b8015158114611c9f57600080fdfea26469706673582212209a123db5de99a60c498665e91513a16bc0a9cffc16fca239e22e40b611e8522564736f6c634300060c0033",
  "linkReferences": {
    "contracts/protocol/libraries/logic/ReserveLogic.sol": {
      "ReserveLogic": [
        {
          "length": 20,
          "start": 7102
        }
      ]
    },
    "contracts/protocol/libraries/logic/ValidationLogic.sol": {
      "ValidationLogic": [
        {
          "length": 20,
          "start": 2001
        },
        {
          "length": 20,
          "start": 3028
        },
        {
          "length": 20,
          "start": 3599
        },
        {
          "length": 20,
          "start": 4330
        },
        {
          "length": 20,
          "start": 8040
        },
        {
          "length": 20,
          "start": 9311
        },
        {
          "length": 20,
          "start": 12443
        }
      ]
    }
  },
  "deployedLinkReferences": {
    "contracts/protocol/libraries/logic/ReserveLogic.sol": {
      "ReserveLogic": [
        {
          "length": 20,
          "start": 7065
        }
      ]
    },
    "contracts/protocol/libraries/logic/ValidationLogic.sol": {
      "ValidationLogic": [
        {
          "length": 20,
          "start": 1964
        },
        {
          "length": 20,
          "start": 2991
        },
        {
          "length": 20,
          "start": 3562
        },
        {
          "length": 20,
          "start": 4293
        },
        {
          "length": 20,
          "start": 8003
        },
        {
          "length": 20,
          "start": 9274
        },
        {
          "length": 20,
          "start": 12406
        }
      ]
    }
  }
}