{
  "_format": "hh-sol-artifact-1",
  "contractName": "UiPoolDataProvider",
  "sourceName": "contracts/misc/UiPoolDataProvider.sol",
  "abi": [
    {
      "inputs": [
        {
          "internalType": "contract IAaveIncentivesController",
          "name": "_incentivesController",
          "type": "address"
        },
        {
          "internalType": "contract IPriceOracleGetter",
          "name": "_oracle",
          "type": "address"
        }
      ],
      "stateMutability": "nonpayable",
      "type": "constructor"
    },
    {
      "inputs": [],
      "name": "MOCK_USD_ADDRESS",
      "outputs": [
        {
          "internalType": "address",
          "name": "",
          "type": "address"
        }
      ],
      "stateMutability": "view",
      "type": "function"
    },
    {
      "inputs": [
        {
          "internalType": "contract ILendingPoolAddressesProvider",
          "name": "provider",
          "type": "address"
        },
        {
          "internalType": "address",
          "name": "user",
          "type": "address"
        }
      ],
      "name": "getReservesData",
      "outputs": [
        {
          "components": [
            {
              "internalType": "address",
              "name": "underlyingAsset",
              "type": "address"
            },
            {
              "internalType": "string",
              "name": "name",
              "type": "string"
            },
            {
              "internalType": "string",
              "name": "symbol",
              "type": "string"
            },
            {
              "internalType": "uint256",
              "name": "decimals",
              "type": "uint256"
            },
            {
              "internalType": "uint256",
              "name": "baseLTVasCollateral",
              "type": "uint256"
            },
            {
              "internalType": "uint256",
              "name": "reserveLiquidationThreshold",
              "type": "uint256"
            },
            {
              "internalType": "uint256",
              "name": "reserveLiquidationBonus",
              "type": "uint256"
            },
            {
              "internalType": "uint256",
              "name": "reserveFactor",
              "type": "uint256"
            },
            {
              "internalType": "bool",
              "name": "usageAsCollateralEnabled",
              "type": "bool"
            },
            {
              "internalType": "bool",
              "name": "borrowingEnabled",
              "type": "bool"
            },
            {
              "internalType": "bool",
              "name": "stableBorrowRateEnabled",
              "type": "bool"
            },
            {
              "internalType": "bool",
              "name": "isActive",
              "type": "bool"
            },
            {
              "internalType": "bool",
              "name": "isFrozen",
              "type": "bool"
            },
            {
              "internalType": "uint128",
              "name": "liquidityIndex",
              "type": "uint128"
            },
            {
              "internalType": "uint128",
              "name": "variableBorrowIndex",
              "type": "uint128"
            },
            {
              "internalType": "uint128",
              "name": "liquidityRate",
              "type": "uint128"
            },
            {
              "internalType": "uint128",
              "name": "variableBorrowRate",
              "type": "uint128"
            },
            {
              "internalType": "uint128",
              "name": "stableBorrowRate",
              "type": "uint128"
            },
            {
              "internalType": "uint40",
              "name": "lastUpdateTimestamp",
              "type": "uint40"
            },
            {
              "internalType": "address",
              "name": "aTokenAddress",
              "type": "address"
            },
            {
              "internalType": "address",
              "name": "stableDebtTokenAddress",
              "type": "address"
            },
            {
              "internalType": "address",
              "name": "variableDebtTokenAddress",
              "type": "address"
            },
            {
              "internalType": "address",
              "name": "interestRateStrategyAddress",
              "type": "address"
            },
            {
              "internalType": "uint256",
              "name": "availableLiquidity",
              "type": "uint256"
            },
            {
              "internalType": "uint256",
              "name": "totalPrincipalStableDebt",
              "type": "uint256"
            },
            {
              "internalType": "uint256",
              "name": "averageStableRate",
              "type": "uint256"
            },
            {
              "internalType": "uint256",
              "name": "stableDebtLastUpdateTimestamp",
              "type": "uint256"
            },
            {
              "internalType": "uint256",
              "name": "totalScaledVariableDebt",
              "type": "uint256"
            },
            {
              "internalType": "uint256",
              "name": "priceInEth",
              "type": "uint256"
            },
            {
              "internalType": "uint256",
              "name": "variableRateSlope1",
              "type": "uint256"
            },
            {
              "internalType": "uint256",
              "name": "variableRateSlope2",
              "type": "uint256"
            },
            {
              "internalType": "uint256",
              "name": "stableRateSlope1",
              "type": "uint256"
            },
            {
              "internalType": "uint256",
              "name": "stableRateSlope2",
              "type": "uint256"
            },
            {
              "internalType": "uint256",
              "name": "aEmissionPerSecond",
              "type": "uint256"
            },
            {
              "internalType": "uint256",
              "name": "vEmissionPerSecond",
              "type": "uint256"
            },
            {
              "internalType": "uint256",
              "name": "sEmissionPerSecond",
              "type": "uint256"
            },
            {
              "internalType": "uint256",
              "name": "aIncentivesLastUpdateTimestamp",
              "type": "uint256"
            },
            {
              "internalType": "uint256",
              "name": "vIncentivesLastUpdateTimestamp",
              "type": "uint256"
            },
            {
              "internalType": "uint256",
              "name": "sIncentivesLastUpdateTimestamp",
              "type": "uint256"
            },
            {
              "internalType": "uint256",
              "name": "aTokenIncentivesIndex",
              "type": "uint256"
            },
            {
              "internalType": "uint256",
              "name": "vTokenIncentivesIndex",
              "type": "uint256"
            },
            {
              "internalType": "uint256",
              "name": "sTokenIncentivesIndex",
              "type": "uint256"
            }
          ],
          "internalType": "struct IUiPoolDataProvider.AggregatedReserveData[]",
          "name": "",
          "type": "tuple[]"
        },
        {
          "components": [
            {
              "internalType": "address",
              "name": "underlyingAsset",
              "type": "address"
            },
            {
              "internalType": "uint256",
              "name": "scaledATokenBalance",
              "type": "uint256"
            },
            {
              "internalType": "bool",
              "name": "usageAsCollateralEnabledOnUser",
              "type": "bool"
            },
            {
              "internalType": "uint256",
              "name": "stableBorrowRate",
              "type": "uint256"
            },
            {
              "internalType": "uint256",
              "name": "scaledVariableDebt",
              "type": "uint256"
            },
            {
              "internalType": "uint256",
              "name": "principalStableDebt",
              "type": "uint256"
            },
            {
              "internalType": "uint256",
              "name": "stableBorrowLastUpdateTimestamp",
              "type": "uint256"
            },
            {
              "internalType": "uint256",
              "name": "aTokenincentivesUserIndex",
              "type": "uint256"
            },
            {
              "internalType": "uint256",
              "name": "vTokenincentivesUserIndex",
              "type": "uint256"
            },
            {
              "internalType": "uint256",
              "name": "sTokenincentivesUserIndex",
              "type": "uint256"
            }
          ],
          "internalType": "struct IUiPoolDataProvider.UserReserveData[]",
          "name": "",
          "type": "tuple[]"
        },
        {
          "internalType": "uint256",
          "name": "",
          "type": "uint256"
        },
        {
          "components": [
            {
              "internalType": "uint256",
              "name": "userUnclaimedRewards",
              "type": "uint256"
            },
            {
              "internalType": "uint256",
              "name": "emissionEndTimestamp",
              "type": "uint256"
            }
          ],
          "internalType": "struct IUiPoolDataProvider.IncentivesControllerData",
          "name": "",
          "type": "tuple"
        }
      ],
      "stateMutability": "view",
      "type": "function"
    },
    {
      "inputs": [
        {
          "internalType": "contract ILendingPoolAddressesProvider",
          "name": "provider",
          "type": "address"
        }
      ],
      "name": "getReservesList",
      "outputs": [
        {
          "internalType": "address[]",
          "name": "",
          "type": "address[]"
        }
      ],
      "stateMutability": "view",
      "type": "function"
    },
    {
      "inputs": [
        {
          "internalType": "contract ILendingPoolAddressesProvider",
          "name": "provider",
          "type": "address"
        }
      ],
      "name": "getSimpleReservesData",
      "outputs": [
        {
          "components": [
            {
              "internalType": "address",
              "name": "underlyingAsset",
              "type": "address"
            },
            {
              "internalType": "string",
              "name": "name",
              "type": "string"
            },
            {
              "internalType": "string",
              "name": "symbol",
              "type": "string"
            },
            {
              "internalType": "uint256",
              "name": "decimals",
              "type": "uint256"
            },
            {
              "internalType": "uint256",
              "name": "baseLTVasCollateral",
              "type": "uint256"
            },
            {
              "internalType": "uint256",
              "name": "reserveLiquidationThreshold",
              "type": "uint256"
            },
            {
              "internalType": "uint256",
              "name": "reserveLiquidationBonus",
              "type": "uint256"
            },
            {
              "internalType": "uint256",
              "name": "reserveFactor",
              "type": "uint256"
            },
            {
              "internalType": "bool",
              "name": "usageAsCollateralEnabled",
              "type": "bool"
            },
            {
              "internalType": "bool",
              "name": "borrowingEnabled",
              "type": "bool"
            },
            {
              "internalType": "bool",
              "name": "stableBorrowRateEnabled",
              "type": "bool"
            },
            {
              "internalType": "bool",
              "name": "isActive",
              "type": "bool"
            },
            {
              "internalType": "bool",
              "name": "isFrozen",
              "type": "bool"
            },
            {
              "internalType": "uint128",
              "name": "liquidityIndex",
              "type": "uint128"
            },
            {
              "internalType": "uint128",
              "name": "variableBorrowIndex",
              "type": "uint128"
            },
            {
              "internalType": "uint128",
              "name": "liquidityRate",
              "type": "uint128"
            },
            {
              "internalType": "uint128",
              "name": "variableBorrowRate",
              "type": "uint128"
            },
            {
              "internalType": "uint128",
              "name": "stableBorrowRate",
              "type": "uint128"
            },
            {
              "internalType": "uint40",
              "name": "lastUpdateTimestamp",
              "type": "uint40"
            },
            {
              "internalType": "address",
              "name": "aTokenAddress",
              "type": "address"
            },
            {
              "internalType": "address",
              "name": "stableDebtTokenAddress",
              "type": "address"
            },
            {
              "internalType": "address",
              "name": "variableDebtTokenAddress",
              "type": "address"
            },
            {
              "internalType": "address",
              "name": "interestRateStrategyAddress",
              "type": "address"
            },
            {
              "internalType": "uint256",
              "name": "availableLiquidity",
              "type": "uint256"
            },
            {
              "internalType": "uint256",
              "name": "totalPrincipalStableDebt",
              "type": "uint256"
            },
            {
              "internalType": "uint256",
              "name": "averageStableRate",
              "type": "uint256"
            },
            {
              "internalType": "uint256",
              "name": "stableDebtLastUpdateTimestamp",
              "type": "uint256"
            },
            {
              "internalType": "uint256",
              "name": "totalScaledVariableDebt",
              "type": "uint256"
            },
            {
              "internalType": "uint256",
              "name": "priceInEth",
              "type": "uint256"
            },
            {
              "internalType": "uint256",
              "name": "variableRateSlope1",
              "type": "uint256"
            },
            {
              "internalType": "uint256",
              "name": "variableRateSlope2",
              "type": "uint256"
            },
            {
              "internalType": "uint256",
              "name": "stableRateSlope1",
              "type": "uint256"
            },
            {
              "internalType": "uint256",
              "name": "stableRateSlope2",
              "type": "uint256"
            },
            {
              "internalType": "uint256",
              "name": "aEmissionPerSecond",
              "type": "uint256"
            },
            {
              "internalType": "uint256",
              "name": "vEmissionPerSecond",
              "type": "uint256"
            },
            {
              "internalType": "uint256",
              "name": "sEmissionPerSecond",
              "type": "uint256"
            },
            {
              "internalType": "uint256",
              "name": "aIncentivesLastUpdateTimestamp",
              "type": "uint256"
            },
            {
              "internalType": "uint256",
              "name": "vIncentivesLastUpdateTimestamp",
              "type": "uint256"
            },
            {
              "internalType": "uint256",
              "name": "sIncentivesLastUpdateTimestamp",
              "type": "uint256"
            },
            {
              "internalType": "uint256",
              "name": "aTokenIncentivesIndex",
              "type": "uint256"
            },
            {
              "internalType": "uint256",
              "name": "vTokenIncentivesIndex",
              "type": "uint256"
            },
            {
              "internalType": "uint256",
              "name": "sTokenIncentivesIndex",
              "type": "uint256"
            }
          ],
          "internalType": "struct IUiPoolDataProvider.AggregatedReserveData[]",
          "name": "",
          "type": "tuple[]"
        },
        {
          "internalType": "uint256",
          "name": "",
          "type": "uint256"
        },
        {
          "internalType": "uint256",
          "name": "",
          "type": "uint256"
        }
      ],
      "stateMutability": "view",
      "type": "function"
    },
    {
      "inputs": [
        {
          "internalType": "contract ILendingPoolAddressesProvider",
          "name": "provider",
          "type": "address"
        },
        {
          "internalType": "address",
          "name": "user",
          "type": "address"
        }
      ],
      "name": "getUserReservesData",
      "outputs": [
        {
          "components": [
            {
              "internalType": "address",
              "name": "underlyingAsset",
              "type": "address"
            },
            {
              "internalType": "uint256",
              "name": "scaledATokenBalance",
              "type": "uint256"
            },
            {
              "internalType": "bool",
              "name": "usageAsCollateralEnabledOnUser",
              "type": "bool"
            },
            {
              "internalType": "uint256",
              "name": "stableBorrowRate",
              "type": "uint256"
            },
            {
              "internalType": "uint256",
              "name": "scaledVariableDebt",
              "type": "uint256"
            },
            {
              "internalType": "uint256",
              "name": "principalStableDebt",
              "type": "uint256"
            },
            {
              "internalType": "uint256",
              "name": "stableBorrowLastUpdateTimestamp",
              "type": "uint256"
            },
            {
              "internalType": "uint256",
              "name": "aTokenincentivesUserIndex",
              "type": "uint256"
            },
            {
              "internalType": "uint256",
              "name": "vTokenincentivesUserIndex",
              "type": "uint256"
            },
            {
              "internalType": "uint256",
              "name": "sTokenincentivesUserIndex",
              "type": "uint256"
            }
          ],
          "internalType": "struct IUiPoolDataProvider.UserReserveData[]",
          "name": "",
          "type": "tuple[]"
        },
        {
          "internalType": "uint256",
          "name": "",
          "type": "uint256"
        }
      ],
      "stateMutability": "view",
      "type": "function"
    },
    {
      "inputs": [],
      "name": "incentivesController",
      "outputs": [
        {
          "internalType": "contract IAaveIncentivesController",
          "name": "",
          "type": "address"
        }
      ],
      "stateMutability": "view",
      "type": "function"
    },
    {
      "inputs": [],
      "name": "oracle",
      "outputs": [
        {
          "internalType": "contract IPriceOracleGetter",
          "name": "",
          "type": "address"
        }
      ],
      "stateMutability": "view",
      "type": "function"
    }
  ],
  "bytecode": "0x60c06040523480156200001157600080fd5b506040516200382638038062003826833981016040819052620000349162000053565b6001600160601b0319606092831b8116608052911b1660a052620000aa565b6000806040838503121562000066578182fd5b8251620000738162000091565b6020840151909250620000868162000091565b809150509250929050565b6001600160a01b0381168114620000a757600080fd5b50565b60805160601c60a05160601c6136cb6200015b600039806104035280610a7c5280611596528061198052806126bd5250806107545280610796528061084952806108fc52806109aa52806109d15280610db95280610dfa5280610eb75280610f5b52806113cf528061140b5280611cd15280611d135280611dc65280611e795280611f295280611f50528061200f52806120cf528061254f528061259a5280612624528061278352506136cb6000f3fe608060405234801561001057600080fd5b506004361061007d5760003560e01c80637dc0d1d01161005b5780637dc0d1d0146100ee57806387e40db714610103578063af1df25514610126578063b8c0a5b11461012e5761007d565b80634331f2a41461008257806351974cc0146100ad578063586c1442146100ce575b600080fd5b610095610090366004612e80565b610136565b6040516100a4939291906135b9565b60405180910390f35b6100c06100bb366004612e9c565b610b25565b6040516100a49291906135de565b6100e16100dc366004612e80565b6114a1565b6040516100a49190613524565b6100f6611594565b6040516100a491906134f6565b610116610111366004612e9c565b6115b8565b6040516100a49493929190613571565b6100f6612781565b6100f66127a5565b60606000806000846001600160a01b0316630261bf8b6040518163ffffffff1660e01b815260040160206040518083038186803b15801561017657600080fd5b505afa15801561018a573d6000803e3d6000fd5b505050506040513d601f19601f820116820180604052508101906101ae9190612db9565b90506060816001600160a01b031663d1946dbc6040518163ffffffff1660e01b815260040160006040518083038186803b1580156101eb57600080fd5b505afa1580156101ff573d6000803e3d6000fd5b505050506040513d6000823e601f3d908101601f191682016040526102279190810190612dd5565b90506060815167ffffffffffffffff8111801561024357600080fd5b5060405190808252806020026020018201604052801561027d57816020015b61026a612ab0565b8152602001906001900390816102625790505b50905060005b825181101561099d57610294612ab0565b8282815181106102a057fe5b602002602001015190508382815181106102b657fe5b60209081029190910101516001600160a01b031681526102d4612c4e565b81516040516335ea6a7560e01b81526001600160a01b038816916335ea6a759161030191906004016134f6565b6101a06040518083038186803b15801561031a57600080fd5b505afa15801561032e573d6000803e3d6000fd5b505050506040513d601f19601f820116820180604052508101906103529190612f60565b60208101516001600160801b039081166101a085015260408083015182166101c0860152606083015182166101e08601526080830151821661020086015260a083015190911661022085015260c082015164ffffffffff1661024085015260e08201516001600160a01b03908116610260860152610100830151811661028086015261012083015181166102a086015261014083015181166102c08601528451915163b3596f0760e01b81529293507f0000000000000000000000000000000000000000000000000000000000000000169163b3596f0791610436916004016134f6565b60206040518083038186803b15801561044e57600080fd5b505afa158015610462573d6000803e3d6000fd5b505050506040513d601f19601f820116820180604052508101906104869190613089565b61038083015281516102608301516040516370a0823160e01b81526001600160a01b03909216916370a08231916104bf916004016134f6565b60206040518083038186803b1580156104d757600080fd5b505afa1580156104eb573d6000803e3d6000fd5b505050506040513d601f19601f8201168201806040525081019061050f9190613089565b826102e00181815250508161028001516001600160a01b031663797743386040518163ffffffff1660e01b815260040160806040518083038186803b15801561055757600080fd5b505afa15801561056b573d6000803e3d6000fd5b505050506040513d601f19601f8201168201806040525081019061058f91906130ce565b64ffffffffff16610340860152610320850152506103008301526102a08201516040805163b1bf962d60e01b815290516001600160a01b039092169163b1bf962d91600480820192602092909190829003018186803b1580156105f157600080fd5b505afa158015610605573d6000803e3d6000fd5b505050506040513d601f19601f820116820180604052508101906106299190613089565b8261036001818152505081600001516001600160a01b03166395d89b416040518163ffffffff1660e01b815260040160006040518083038186803b15801561067057600080fd5b505afa158015610684573d6000803e3d6000fd5b505050506040513d6000823e601f3d908101601f191682016040526106ac9190810190612ed4565b60408084019190915280516020808201909252600081529083015280516106d2906127bd565b60e0870152606086015260c085015260a0840152608083015280516106f6906127e8565b1515610140860152151561012085015215156101808401521515610160830152608082015115156101008301526102c082015161073290612824565b6104008601526103e08501526103c08401526103a08301526001600160a01b037f0000000000000000000000000000000000000000000000000000000000000000161561099357610260820151604051631652e7b760e01b81526001600160a01b037f00000000000000000000000000000000000000000000000000000000000000001691631652e7b7916107ca91906004016134f6565b60606040518083038186803b1580156107e257600080fd5b505afa1580156107f6573d6000803e3d6000fd5b505050506040513d601f19601f8201168201806040525081019061081a91906130a1565b6104808501526104208401526104e0830152610280820151604051631652e7b760e01b81526001600160a01b037f00000000000000000000000000000000000000000000000000000000000000001691631652e7b79161087d91906004016134f6565b60606040518083038186803b15801561089557600080fd5b505afa1580156108a9573d6000803e3d6000fd5b505050506040513d601f19601f820116820180604052508101906108cd91906130a1565b6104c08501526104608401526105208301526102a0820151604051631652e7b760e01b81526001600160a01b037f00000000000000000000000000000000000000000000000000000000000000001691631652e7b79161093091906004016134f6565b60606040518083038186803b15801561094857600080fd5b505afa15801561095c573d6000803e3d6000fd5b505050506040513d601f19601f8201168201806040525081019061098091906130a1565b6104a08501526104408401526105008301525b5050600101610283565b5060006001600160a01b037f00000000000000000000000000000000000000000000000000000000000000001615610a63577f00000000000000000000000000000000000000000000000000000000000000006001600160a01b031663919cd40f6040518163ffffffff1660e01b815260040160206040518083038186803b158015610a2857600080fd5b505afa158015610a3c573d6000803e3d6000fd5b505050506040513d601f19601f82011682018060405250810190610a609190613089565b90505b60405163b3596f0760e01b815282906001600160a01b037f0000000000000000000000000000000000000000000000000000000000000000169063b3596f0790610ac5907310f7fc1f91ba351f9c629c5947ad69bd03c05b96906004016134f6565b60206040518083038186803b158015610add57600080fd5b505afa158015610af1573d6000803e3d6000fd5b505050506040513d601f19601f82011682018060405250810190610b159190613089565b9099909850909650945050505050565b6060600080846001600160a01b0316630261bf8b6040518163ffffffff1660e01b815260040160206040518083038186803b158015610b6357600080fd5b505afa158015610b77573d6000803e3d6000fd5b505050506040513d601f19601f82011682018060405250810190610b9b9190612db9565b90506060816001600160a01b031663d1946dbc6040518163ffffffff1660e01b815260040160006040518083038186803b158015610bd857600080fd5b505afa158015610bec573d6000803e3d6000fd5b505050506040513d6000823e601f3d908101601f19168201604052610c149190810190612dd5565b9050610c1e612cc1565b604051634417a58360e01b81526001600160a01b03841690634417a58390610c4a9089906004016134f6565b60206040518083038186803b158015610c6257600080fd5b505afa158015610c76573d6000803e3d6000fd5b505050506040513d601f19601f82011682018060405250810190610c9a919061306e565b905060606001600160a01b038716610cb3576000610cb6565b82515b67ffffffffffffffff81118015610ccc57600080fd5b50604051908082528060200260200182016040528015610d0657816020015b610cf3612cd4565b815260200190600190039081610ceb5790505b50905060005b83518110156113c257610d1d612c4e565b856001600160a01b03166335ea6a75868481518110610d3857fe5b60200260200101516040518263ffffffff1660e01b8152600401610d5c91906134f6565b6101a06040518083038186803b158015610d7557600080fd5b505afa158015610d89573d6000803e3d6000fd5b505050506040513d601f19601f82011682018060405250810190610dad9190612f60565b90506001600160a01b037f0000000000000000000000000000000000000000000000000000000000000000161561101a5760e0810151604051630cdcfb9360e21b81526001600160a01b037f00000000000000000000000000000000000000000000000000000000000000001691633373ee4c91610e2f918d9160040161350a565b60206040518083038186803b158015610e4757600080fd5b505afa158015610e5b573d6000803e3d6000fd5b505050506040513d601f19601f82011682018060405250810190610e7f9190613089565b838381518110610e8b57fe5b602090810291909101015160e00152610120810151604051630cdcfb9360e21b81526001600160a01b037f00000000000000000000000000000000000000000000000000000000000000001691633373ee4c91610eec918d9160040161350a565b60206040518083038186803b158015610f0457600080fd5b505afa158015610f18573d6000803e3d6000fd5b505050506040513d601f19601f82011682018060405250810190610f3c9190613089565b838381518110610f4857fe5b60200260200101516101000181815250507f00000000000000000000000000000000000000000000000000000000000000006001600160a01b0316633373ee4c8a8361010001516040518363ffffffff1660e01b8152600401610fac92919061350a565b60206040518083038186803b158015610fc457600080fd5b505afa158015610fd8573d6000803e3d6000fd5b505050506040513d601f19601f82011682018060405250810190610ffc9190613089565b83838151811061100857fe5b60200260200101516101200181815250505b84828151811061102657fe5b602002602001015183838151811061103a57fe5b60209081029190910101516001600160a01b03918216905260e0820151604051630ed1279f60e11b8152911690631da24f3e9061107b908c906004016134f6565b60206040518083038186803b15801561109357600080fd5b505afa1580156110a7573d6000803e3d6000fd5b505050506040513d601f19601f820116820180604052508101906110cb9190613089565b8383815181106110d757fe5b60209081029190910181015101526110ef84836129fd565b8383815181106110fb57fe5b60209081029190910101519015156040909101526111198483612a5f565b156113b9578061012001516001600160a01b0316631da24f3e8a6040518263ffffffff1660e01b815260040161114f91906134f6565b60206040518083038186803b15801561116757600080fd5b505afa15801561117b573d6000803e3d6000fd5b505050506040513d601f19601f8201168201806040525081019061119f9190613089565b8383815181106111ab57fe5b602002602001015160800181815250508061010001516001600160a01b031663c634dfaa8a6040518263ffffffff1660e01b81526004016111ec91906134f6565b60206040518083038186803b15801561120457600080fd5b505afa158015611218573d6000803e3d6000fd5b505050506040513d601f19601f8201168201806040525081019061123c9190613089565b83838151811061124857fe5b602002602001015160a001818152505082828151811061126457fe5b602002602001015160a001516000146113b9578061010001516001600160a01b031663e78c9b3b8a6040518263ffffffff1660e01b81526004016112a891906134f6565b60206040518083038186803b1580156112c057600080fd5b505afa1580156112d4573d6000803e3d6000fd5b505050506040513d601f19601f820116820180604052508101906112f89190613089565b83838151811061130457fe5b602002602001015160600181815250508061010001516001600160a01b03166379ce6b8c8a6040518263ffffffff1660e01b815260040161134591906134f6565b60206040518083038186803b15801561135d57600080fd5b505afa158015611371573d6000803e3d6000fd5b505050506040513d601f19601f82011682018060405250810190611395919061310e565b64ffffffffff168383815181106113a857fe5b602002602001015160c00181815250505b50600101610d0c565b5060006001600160a01b037f0000000000000000000000000000000000000000000000000000000000000000161561149357604051630cc7d40f60e11b81526001600160a01b037f0000000000000000000000000000000000000000000000000000000000000000169063198fa81e90611440908b906004016134f6565b60206040518083038186803b15801561145857600080fd5b505afa15801561146c573d6000803e3d6000fd5b505050506040513d601f19601f820116820180604052508101906114909190613089565b90505b909890975095505050505050565b60606000826001600160a01b0316630261bf8b6040518163ffffffff1660e01b815260040160206040518083038186803b1580156114de57600080fd5b505afa1580156114f2573d6000803e3d6000fd5b505050506040513d601f19601f820116820180604052508101906115169190612db9565b9050806001600160a01b031663d1946dbc6040518163ffffffff1660e01b815260040160006040518083038186803b15801561155157600080fd5b505afa158015611565573d6000803e3d6000fd5b505050506040513d6000823e601f3d908101601f1916820160405261158d9190810190612dd5565b9392505050565b7f000000000000000000000000000000000000000000000000000000000000000081565b60608060006115c5612d32565b6000866001600160a01b0316630261bf8b6040518163ffffffff1660e01b815260040160206040518083038186803b15801561160057600080fd5b505afa158015611614573d6000803e3d6000fd5b505050506040513d601f19601f820116820180604052508101906116389190612db9565b90506060816001600160a01b031663d1946dbc6040518163ffffffff1660e01b815260040160006040518083038186803b15801561167557600080fd5b505afa158015611689573d6000803e3d6000fd5b505050506040513d6000823e601f3d908101601f191682016040526116b19190810190612dd5565b90506116bb612cc1565b604051634417a58360e01b81526001600160a01b03841690634417a583906116e7908b906004016134f6565b60206040518083038186803b1580156116ff57600080fd5b505afa158015611713573d6000803e3d6000fd5b505050506040513d601f19601f82011682018060405250810190611737919061306e565b90506060825167ffffffffffffffff8111801561175357600080fd5b5060405190808252806020026020018201604052801561178d57816020015b61177a612ab0565b8152602001906001900390816117725790505b50905060606001600160a01b038a166117a75760006117aa565b83515b67ffffffffffffffff811180156117c057600080fd5b506040519080825280602002602001820160405280156117fa57816020015b6117e7612cd4565b8152602001906001900390816117df5790505b50905060005b845181101561253c57611811612ab0565b83828151811061181d57fe5b6020026020010151905085828151811061183357fe5b60209081029190910101516001600160a01b03168152611851612c4e565b81516040516335ea6a7560e01b81526001600160a01b038a16916335ea6a759161187e91906004016134f6565b6101a06040518083038186803b15801561189757600080fd5b505afa1580156118ab573d6000803e3d6000fd5b505050506040513d601f19601f820116820180604052508101906118cf9190612f60565b60208101516001600160801b039081166101a085015260408083015182166101c0860152606083015182166101e08601526080830151821661020086015260a083015190911661022085015260c082015164ffffffffff1661024085015260e08201516001600160a01b03908116610260860152610100830151811661028086015261012083015181166102a086015261014083015181166102c08601528451915163b3596f0760e01b81529293507f0000000000000000000000000000000000000000000000000000000000000000169163b3596f07916119b3916004016134f6565b60206040518083038186803b1580156119cb57600080fd5b505afa1580156119df573d6000803e3d6000fd5b505050506040513d601f19601f82011682018060405250810190611a039190613089565b61038083015281516102608301516040516370a0823160e01b81526001600160a01b03909216916370a0823191611a3c916004016134f6565b60206040518083038186803b158015611a5457600080fd5b505afa158015611a68573d6000803e3d6000fd5b505050506040513d601f19601f82011682018060405250810190611a8c9190613089565b826102e00181815250508161028001516001600160a01b031663797743386040518163ffffffff1660e01b815260040160806040518083038186803b158015611ad457600080fd5b505afa158015611ae8573d6000803e3d6000fd5b505050506040513d601f19601f82011682018060405250810190611b0c91906130ce565b64ffffffffff16610340860152610320850152506103008301526102a08201516040805163b1bf962d60e01b815290516001600160a01b039092169163b1bf962d91600480820192602092909190829003018186803b158015611b6e57600080fd5b505afa158015611b82573d6000803e3d6000fd5b505050506040513d601f19601f82011682018060405250810190611ba69190613089565b8261036001818152505081600001516001600160a01b03166395d89b416040518163ffffffff1660e01b815260040160006040518083038186803b158015611bed57600080fd5b505afa158015611c01573d6000803e3d6000fd5b505050506040513d6000823e601f3d908101601f19168201604052611c299190810190612ed4565b6040808401919091528051602080820190925260008152908301528051611c4f906127bd565b60e0870152606086015260c085015260a084015260808301528051611c73906127e8565b1515610140860152151561012085015215156101808401521515610160830152608082015115156101008301526102c0820151611caf90612824565b6104008601526103e08501526103c08401526103a08301526001600160a01b037f00000000000000000000000000000000000000000000000000000000000000001615611f1057610260820151604051631652e7b760e01b81526001600160a01b037f00000000000000000000000000000000000000000000000000000000000000001691631652e7b791611d4791906004016134f6565b60606040518083038186803b158015611d5f57600080fd5b505afa158015611d73573d6000803e3d6000fd5b505050506040513d601f19601f82011682018060405250810190611d9791906130a1565b6104808501526104208401526104e0830152610280820151604051631652e7b760e01b81526001600160a01b037f00000000000000000000000000000000000000000000000000000000000000001691631652e7b791611dfa91906004016134f6565b60606040518083038186803b158015611e1257600080fd5b505afa158015611e26573d6000803e3d6000fd5b505050506040513d601f19601f82011682018060405250810190611e4a91906130a1565b6104c08501526104608401526105208301526102a0820151604051631652e7b760e01b81526001600160a01b037f00000000000000000000000000000000000000000000000000000000000000001691631652e7b791611ead91906004016134f6565b60606040518083038186803b158015611ec557600080fd5b505afa158015611ed9573d6000803e3d6000fd5b505050506040513d601f19601f82011682018060405250810190611efd91906130a1565b6104a08501526104408401526105008301525b6001600160a01b038d1615612532576001600160a01b037f0000000000000000000000000000000000000000000000000000000000000000161561218e577f00000000000000000000000000000000000000000000000000000000000000006001600160a01b0316633373ee4c8e8461026001516040518363ffffffff1660e01b8152600401611fa192919061350a565b60206040518083038186803b158015611fb957600080fd5b505afa158015611fcd573d6000803e3d6000fd5b505050506040513d601f19601f82011682018060405250810190611ff19190613089565b848481518110611ffd57fe5b602002602001015160e00181815250507f00000000000000000000000000000000000000000000000000000000000000006001600160a01b0316633373ee4c8e846102a001516040518363ffffffff1660e01b815260040161206092919061350a565b60206040518083038186803b15801561207857600080fd5b505afa15801561208c573d6000803e3d6000fd5b505050506040513d601f19601f820116820180604052508101906120b09190613089565b8484815181106120bc57fe5b60200260200101516101000181815250507f00000000000000000000000000000000000000000000000000000000000000006001600160a01b0316633373ee4c8e8461028001516040518363ffffffff1660e01b815260040161212092919061350a565b60206040518083038186803b15801561213857600080fd5b505afa15801561214c573d6000803e3d6000fd5b505050506040513d601f19601f820116820180604052508101906121709190613089565b84848151811061217c57fe5b60200260200101516101200181815250505b816000015184848151811061219f57fe5b6020026020010151600001906001600160a01b031690816001600160a01b0316815250508161026001516001600160a01b0316631da24f3e8e6040518263ffffffff1660e01b81526004016121f491906134f6565b60206040518083038186803b15801561220c57600080fd5b505afa158015612220573d6000803e3d6000fd5b505050506040513d601f19601f820116820180604052508101906122449190613089565b84848151811061225057fe5b602090810291909101810151015261226886846129fd565b84848151811061227457fe5b60209081029190910101519015156040909101526122928684612a5f565b1561253257816102a001516001600160a01b0316631da24f3e8e6040518263ffffffff1660e01b81526004016122c891906134f6565b60206040518083038186803b1580156122e057600080fd5b505afa1580156122f4573d6000803e3d6000fd5b505050506040513d601f19601f820116820180604052508101906123189190613089565b84848151811061232457fe5b602002602001015160800181815250508161028001516001600160a01b031663c634dfaa8e6040518263ffffffff1660e01b815260040161236591906134f6565b60206040518083038186803b15801561237d57600080fd5b505afa158015612391573d6000803e3d6000fd5b505050506040513d601f19601f820116820180604052508101906123b59190613089565b8484815181106123c157fe5b602002602001015160a00181815250508383815181106123dd57fe5b602002602001015160a00151600014612532578161028001516001600160a01b031663e78c9b3b8e6040518263ffffffff1660e01b815260040161242191906134f6565b60206040518083038186803b15801561243957600080fd5b505afa15801561244d573d6000803e3d6000fd5b505050506040513d601f19601f820116820180604052508101906124719190613089565b84848151811061247d57fe5b602002602001015160600181815250508161028001516001600160a01b03166379ce6b8c8e6040518263ffffffff1660e01b81526004016124be91906134f6565b60206040518083038186803b1580156124d657600080fd5b505afa1580156124ea573d6000803e3d6000fd5b505050506040513d601f19601f8201168201806040525081019061250e919061310e565b64ffffffffff1684848151811061252157fe5b602002602001015160c00181815250505b5050600101611800565b50612545612d32565b6001600160a01b037f000000000000000000000000000000000000000000000000000000000000000016156126b9576001600160a01b038b161561262257604051630cc7d40f60e11b81526001600160a01b037f0000000000000000000000000000000000000000000000000000000000000000169063198fa81e906125cf908e906004016134f6565b60206040518083038186803b1580156125e757600080fd5b505afa1580156125fb573d6000803e3d6000fd5b505050506040513d601f19601f8201168201806040525081019061261f9190613089565b81525b7f00000000000000000000000000000000000000000000000000000000000000006001600160a01b031663919cd40f6040518163ffffffff1660e01b815260040160206040518083038186803b15801561267b57600080fd5b505afa15801561268f573d6000803e3d6000fd5b505050506040513d601f19601f820116820180604052508101906126b39190613089565b60208201525b82827f00000000000000000000000000000000000000000000000000000000000000006001600160a01b031663b3596f077310f7fc1f91ba351f9c629c5947ad69bd03c05b966040518263ffffffff1660e01b815260040161271b91906134f6565b60206040518083038186803b15801561273357600080fd5b505afa158015612747573d6000803e3d6000fd5b505050506040513d601f19601f8201168201806040525081019061276b9190613089565b919e909d50909b50909950975050505050505050565b7f000000000000000000000000000000000000000000000000000000000000000081565b7310f7fc1f91ba351f9c629c5947ad69bd03c05b9681565b5161ffff80821692601083901c821692602081901c831692603082901c60ff169260409290921c1690565b51670100000000000000811615159167020000000000000082161515916704000000000000008116151591670800000000000000909116151590565b600080600080846001600160a01b0316637b832f586040518163ffffffff1660e01b815260040160206040518083038186803b15801561286357600080fd5b505afa158015612877573d6000803e3d6000fd5b505050506040513d601f19601f8201168201806040525081019061289b9190613089565b856001600160a01b03166365614f816040518163ffffffff1660e01b815260040160206040518083038186803b1580156128d457600080fd5b505afa1580156128e8573d6000803e3d6000fd5b505050506040513d601f19601f8201168201806040525081019061290c9190613089565b866001600160a01b0316630bdf953f6040518163ffffffff1660e01b815260040160206040518083038186803b15801561294557600080fd5b505afa158015612959573d6000803e3d6000fd5b505050506040513d601f19601f8201168201806040525081019061297d9190613089565b876001600160a01b031663ccab01a36040518163ffffffff1660e01b815260040160206040518083038186803b1580156129b657600080fd5b505afa1580156129ca573d6000803e3d6000fd5b505050506040513d601f19601f820116820180604052508101906129ee9190613089565b93509350935093509193509193565b60006055821060405180604001604052806002815260200161373760f01b81525090612a455760405162461bcd60e51b8152600401612a3c9190613600565b60405180910390fd5b5050815160016003830281019190911c1615155b92915050565b60006055821060405180604001604052806002815260200161373760f01b81525090612a9e5760405162461bcd60e51b8152600401612a3c9190613600565b50509051600160039092021c16151590565b60405180610540016040528060006001600160a01b031681526020016060815260200160608152602001600081526020016000815260200160008152602001600081526020016000815260200160001515815260200160001515815260200160001515815260200160001515815260200160001515815260200160006001600160801b0316815260200160006001600160801b0316815260200160006001600160801b0316815260200160006001600160801b0316815260200160006001600160801b03168152602001600064ffffffffff16815260200160006001600160a01b0316815260200160006001600160a01b0316815260200160006001600160a01b0316815260200160006001600160a01b03168152602001600081526020016000815260200160008152602001600081526020016000815260200160008152602001600081526020016000815260200160008152602001600081526020016000815260200160008152602001600081526020016000815260200160008152602001600081526020016000815260200160008152602001600081525090565b604051806101a00160405280612c62612cc1565b815260006020820181905260408201819052606082018190526080820181905260a0820181905260c0820181905260e0820181905261010082018190526101208201819052610140820181905261016082018190526101809091015290565b6040518060200160405280600081525090565b60405180610140016040528060006001600160a01b0316815260200160008152602001600015158152602001600081526020016000815260200160008152602001600081526020016000815260200160008152602001600081525090565b604051806040016040528060008152602001600081525090565b8051612a598161366a565b600060208284031215612d68578081fd5b612d726020613613565b9151825250919050565b80516001600160801b0381168114612a5957600080fd5b805164ffffffffff81168114612a5957600080fd5b805160ff81168114612a5957600080fd5b600060208284031215612dca578081fd5b815161158d8161366a565b60006020808385031215612de7578182fd5b825167ffffffffffffffff80821115612dfe578384fd5b818501915085601f830112612e11578384fd5b815181811115612e1f578485fd5b8381029150612e2f848301613613565b8181528481019084860184860187018a1015612e49578788fd5b8795505b83861015612e7357612e5f8a82612d4c565b835260019590950194918601918601612e4d565b5098975050505050505050565b600060208284031215612e91578081fd5b813561158d8161366a565b60008060408385031215612eae578081fd5b8235612eb98161366a565b91506020830135612ec98161366a565b809150509250929050565b600060208284031215612ee5578081fd5b815167ffffffffffffffff80821115612efc578283fd5b818401915084601f830112612f0f578283fd5b815181811115612f1d578384fd5b612f30601f8201601f1916602001613613565b9150808252856020828501011115612f46578384fd5b612f5781602084016020860161363a565b50949350505050565b60006101a0808385031215612f73578182fd5b612f7c81613613565b9050612f888484612d57565b8152612f978460208501612d7c565b6020820152612fa98460408501612d7c565b6040820152612fbb8460608501612d7c565b6060820152612fcd8460808501612d7c565b6080820152612fdf8460a08501612d7c565b60a0820152612ff18460c08501612d93565b60c08201526130038460e08501612d4c565b60e082015261010061301785828601612d4c565b9082015261012061302a85858301612d4c565b9082015261014061303d85858301612d4c565b9082015261016061305085858301612d4c565b9082015261018061306385858301612da8565b908201529392505050565b60006020828403121561307f578081fd5b61158d8383612d57565b60006020828403121561309a578081fd5b5051919050565b6000806000606084860312156130b5578081fd5b8351925060208401519150604084015190509250925092565b600080600080608085870312156130e3578081fd5b845193506020850151925060408501519150606085015161310381613682565b939692955090935050565b60006020828403121561311f578081fd5b815161158d81613682565b6001600160a01b03169052565b6000815180845260208085018081965082840281019150828601855b858110156133f5578284038952815161054061317086835161312a565b868201518188880152613185828801826134b2565b9150506040808301518783038289015261319f83826134b2565b606085810151908a0152608080860151908a015260a080860151908a015260c080860151908a015260e080860151908a015261010080860151919450925090506131eb828901826134ac565b505061012080830151613200828901826134ac565b505061014080830151613215828901826134ac565b50506101608083015161322a828901826134ac565b50506101808083015161323f828901826134ac565b50506101a080830151613254828901826134de565b50506101c080830151613269828901826134de565b50506101e08083015161327e828901826134de565b505061020080830151613293828901826134de565b5050610220808301516132a8828901826134de565b5050610240808301516132bd828901826134eb565b5050610260808301516132d28289018261312a565b5050610280808301516132e78289018261312a565b50506102a0808301516132fc8289018261312a565b50506102c0808301516133118289018261312a565b50506102e08281015190870152610300808301519087015261032080830151908701526103408083015190870152610360808301519087015261038080830151908701526103a080830151908701526103c080830151908701526103e08083015190870152610400808301519087015261042080830151908701526104408083015190870152610460808301519087015261048080830151908701526104a080830151908701526104c080830151908701526104e0808301519087015261050080830151908701526105209182015191909501529784019790840190600101613153565b5091979650505050505050565b6000815180845260208085019450808401835b838110156134a157815161342a88825161312a565b8381015184890152604080820151613444828b01826134ac565b5050606081810151908901526080808201519089015260a0808201519089015260c0808201519089015260e08082015190890152610100808201519089015261012090810151908801526101409096019590820190600101613415565b509495945050505050565b15159052565b600081518084526134ca81602086016020860161363a565b601f01601f19169290920160200192915050565b6001600160801b03169052565b64ffffffffff169052565b6001600160a01b0391909116815260200190565b6001600160a01b0392831681529116602082015260400190565b6020808252825182820181905260009190848201906040850190845b818110156135655783516001600160a01b031683529284019291840191600101613540565b50909695505050505050565b600060a0825261358460a0830187613137565b82810360208401526135968187613402565b915050836040830152825160608301526020830151608083015295945050505050565b6000606082526135cc6060830186613137565b60208301949094525060400152919050565b6000604082526135f16040830185613402565b90508260208301529392505050565b60006020825261158d60208301846134b2565b60405181810167ffffffffffffffff8111828210171561363257600080fd5b604052919050565b60005b8381101561365557818101518382015260200161363d565b83811115613664576000848401525b50505050565b6001600160a01b038116811461367f57600080fd5b50565b64ffffffffff8116811461367f57600080fdfea26469706673582212205d7653cdf99df480790321df99696bc1759a02a9563d17a0b922936036fb2d0164736f6c634300060c0033",
  "linkReferences": {},
  "deployedLinkReferences": {}
}