{
  "_format": "hh-sol-artifact-1",
  "contractName": "GenericLogic",
  "sourceName": "contracts/protocol/libraries/logic/GenericLogic.sol",
  "abi": [
    {
      "inputs": [],
      "name": "HEALTH_FACTOR_LIQUIDATION_THRESHOLD",
      "outputs": [
        {
          "internalType": "uint256",
          "name": "",
          "type": "uint256"
        }
      ],
      "stateMutability": "view",
      "type": "function"
    }
  ],
  "bytecode": "0x610f50610026600b82828239805160001a60731461001957fe5b30600052607381538281f3fe73000000000000000000000000000000000000000030146080604052600436106100405760003560e01c8063c3525c2814610045578063e617042414610063575b600080fd5b61004d610083565b60405161005a9190610ef9565b60405180910390f35b610076610071366004610d22565b61008f565b60405161005a9190610e23565b670de0b6b3a764000081565b60006100a86100a336879003870187610dba565b6102e7565b15806100f057506001600160a01b0389166000908152602087905260409020600801546100ee90600160a01b900460ff166100e836889003880188610dba565b9061030f565b155b156100fd575060016102db565b610105610c25565b6001600160a01b038a16600090815260208890526040902061012690610371565b5084525060208301819052151590506101435760019150506102db565b61015f8988610157368a90038a018a610dba565b88888861039c565b610140870152506080850152506060830181905260408301919091526101895760019150506102db565b6102208160000151600a0a61021a8a866001600160a01b031663b3596f078f6040518263ffffffff1660e01b81526004016101c49190610e0f565b60206040518083038186803b1580156101dc57600080fd5b505afa1580156101f0573d6000803e3d6000fd5b505050506040513d601f19601f820116820180604052508101906102149190610df7565b90610939565b9061097a565b60a082018190526101408201516040830151610247929161024191906109bc565b906109e1565b60c0820181905261025c5760009150506102db565b6102a68160c0015161021a61028284602001518560a0015161093990919063ffffffff16565b610241856080015161021487610140015188604001516109bc90919063ffffffff16565b60e0820181905260c082015160608301516101408401516000936102cb939291610a23565b670de0b6b3a76400001115925050505b98975050505050505050565b517fdb6db6db6db6db6db6db6db6db6db6db6db6db6db6db6db6db6db6db6db6db6d16151590565b60006055821060405180604001604052806002815260200161373760f01b815250906103575760405162461bcd60e51b815260040161034e9190610e2e565b60405180910390fd5b5050815160016003830281019190911c1615155b92915050565b5461ffff80821692601083901c821692602081901c831692603082901c60ff169260409290921c1690565b600080808080808b6103ac610c81565b60006101608201525b89816101600151101561082257610160810151600090815260208c81526040808320546001600160a01b03166101e085018190528352908f905290206103fa81610371565b506080860181905260c08601929092525060a0840191909152600a0a60208301526101e082015160405163b3596f0760e01b81526001600160a01b038c169163b3596f079161044c9190600401610e0f565b60206040518083038186803b15801561046457600080fd5b505afa158015610478573d6000803e3d6000fd5b505050506040513d601f19601f8201168201806040525081019061049c9190610df7565b825260c0820151158015906104bd57506101608201516104bd908e9061030f565b156105c9576004808201546040516370a0823160e01b81526001600160a01b03909116916370a08231916104f391879101610e0f565b60206040518083038186803b15801561050b57600080fd5b505afa15801561051f573d6000803e3d6000fd5b505050506040513d601f19601f820116820180604052508101906105439190610df7565b6040830181905260208301518351600092610562929161021a91610939565b61010084015190915061057590826109bc565b61010084015260a083015161059b9061058f908390610939565b610140850151906109bc565b61014084015260c08301516105c1906105b5908390610939565b610180850151906109bc565b610180840152505b6101608201516105da908e90610a5c565b156107285760058101546040516370a0823160e01b81526001600160a01b03909116906370a0823190610611908690600401610e0f565b60206040518083038186803b15801561062957600080fd5b505afa15801561063d573d6000803e3d6000fd5b505050506040513d601f19601f820116820180604052508101906106619190610df7565b606083015260068101546040516370a0823160e01b81526106f5916001600160a01b0316906370a082319061069a908790600401610e0f565b60206040518083038186803b1580156106b257600080fd5b505afa1580156106c6573d6000803e3d6000fd5b505050506040513d601f19601f820116820180604052508101906106ea9190610df7565b6060840151906109bc565b606083018190526020830151835161072192610715929161021a91610939565b610120840151906109bc565b6101208301525b602082015160088201546040516370a0823160e01b81526000926107c292909161021a916001600160a01b0316906370a082319061076a908a90600401610e0f565b60206040518083038186803b15801561078257600080fd5b505afa158015610796573d6000803e3d6000fd5b505050506040513d601f19601f820116820180604052508101906107ba9190610df7565b865190610939565b6102408401519091506107d590826109bc565b61024084015260a08301516107ef9061058f908390610939565b61014084015260c0830151610809906105b5908390610939565b61018084015250506101608101805160010190526103b5565b60006108418261024001518361010001516109bc90919063ffffffff16565b1161084d576000610879565b61087961086d8261024001518361010001516109bc90919063ffffffff16565b6101408301519061097a565b61014082015261024081015161010082015160009161089891906109bc565b116108a45760006108d0565b6108d06108c48261024001518361010001516109bc90919063ffffffff16565b6101808301519061097a565b61018082018190526101008201516101208301516102408401516108f49390610a23565b60e0820181905261010082015161012083015161014084015161018085015161024090950151929b509099509750919550935091505096509650965096509650969050565b6000826109485750600061036b565b8282028284828161095557fe5b04146109735760405162461bcd60e51b815260040161034e90610eb8565b9392505050565b600061097383836040518060400160405280601a81526020017f536166654d6174683a206469766973696f6e206279207a65726f000000000000815250610aad565b6000828201838110156109735760405162461bcd60e51b815260040161034e90610e81565b600061097383836040518060400160405280601e81526020017f536166654d6174683a207375627472616374696f6e206f766572666c6f770000815250610ae4565b600083610a335750600019610a54565b610a5184610a4b85610a4589876109bc565b90610b10565b90610b82565b90505b949350505050565b60006055821060405180604001604052806002815260200161373760f01b81525090610a9b5760405162461bcd60e51b815260040161034e9190610e2e565b50509051600160039092021c16151590565b60008183610ace5760405162461bcd60e51b815260040161034e9190610e2e565b506000838581610ada57fe5b0495945050505050565b60008184841115610b085760405162461bcd60e51b815260040161034e9190610e2e565b505050900390565b6000821580610b1d575081155b15610b2a5750600061036b565b816113881981610b3657fe5b0483111560405180604001604052806002815260200161068760f31b81525090610b735760405162461bcd60e51b815260040161034e9190610e2e565b50506127109102611388010490565b604080518082019091526002815261035360f41b602082015260009082610bbc5760405162461bcd60e51b815260040161034e9190610e2e565b5060408051808201909152600280825261068760f31b6020830152830490670de0b6b3a7640000821904851115610c065760405162461bcd60e51b815260040161034e9190610e2e565b508281670de0b6b3a764000086020181610c1c57fe5b04949350505050565b604051806101600160405280600081526020016000815260200160008152602001600081526020016000815260200160008152602001600081526020016000815260200160008152602001600015158152602001600081525090565b604051806102600160405280600081526020016000815260200160008152602001600081526020016000815260200160008152602001600081526020016000815260200160008152602001600081526020016000815260200160008152602001600081526020016000815260200160001515815260200160006001600160a01b03168152602001600015158152602001600015158152602001600081525090565b600080600080600080600080888a03610100811215610d3f578485fd5b8935610d4a81610f02565b985060208a0135610d5a81610f02565b975060408a0135965060608a013595506020607f1982011215610d7b578485fd5b5060808901935060a0890135925060c0890135915060e08901356001600160a01b0381168114610da9578182fd5b809150509295985092959890939650565b600060208284031215610dcb578081fd5b6040516020810181811067ffffffffffffffff82111715610dea578283fd5b6040529135825250919050565b600060208284031215610e08578081fd5b5051919050565b6001600160a01b0391909116815260200190565b901515815260200190565b6000602080835283518082850152825b81811015610e5a57858101830151858201604001528201610e3e565b81811115610e6b5783604083870101525b50601f01601f1916929092016040019392505050565b6020808252601b908201527f536166654d6174683a206164646974696f6e206f766572666c6f770000000000604082015260600190565b60208082526021908201527f536166654d6174683a206d756c7469706c69636174696f6e206f766572666c6f6040820152607760f81b606082015260800190565b90815260200190565b6001600160a01b0381168114610f1757600080fd5b5056fea2646970667358221220200445c84f265f87797964be9d41ab7a363449f0bce18755c47cea77bcd1021f64736f6c634300060c0033",
  "linkReferences": {},
  "deployedLinkReferences": {}
}