{
  "_format": "hh-sol-artifact-1",
  "contractName": "GenericLogic",
  "sourceName": "contracts/protocol/libraries/logic/GenericLogic.sol",
  "abi": [
    {
      "inputs": [],
      "name": "HEALTH_FACTOR_LIQUIDATION_THRESHOLD",
      "outputs": [
        {
          "internalType": "uint256",
          "name": "",
          "type": "uint256"
        }
      ],
      "stateMutability": "view",
      "type": "function"
    }
  ],
  "bytecode": "0x611236610026600b82828239805160001a60731461001957fe5b30600052607381538281f3fe73000000000000000000000000000000000000000030146080604052600436106100405760003560e01c8063c3525c2814610045578063e617042414610063575b600080fd5b61004d610083565b60405161005a91906111f7565b60405180910390f35b610076610071366004610ff7565b61008f565b60405161005a9190611133565b670de0b6b3a764000081565b60006100a86100a33687900387018761107f565b6102e7565b15806100f057506001600160a01b0389166000908152602087905260409020600801546100ee90600160a01b900460ff166100e83688900388018861107f565b90610313565b155b156100fd575060016102db565b610105610eea565b6001600160a01b038a16600090815260208890526040902061012690610375565b5084525060208301819052151590506101435760019150506102db565b61015f8988610157368a90038a018a61107f565b8888886103a0565b610140870152506080850152506060830181905260408301919091526101895760019150506102db565b6102208160000151600a0a61021a8a866001600160a01b031663b3596f078f6040518263ffffffff1660e01b81526004016101c4919061111f565b60206040518083038186803b1580156101dc57600080fd5b505afa1580156101f0573d6000803e3d6000fd5b505050506040513d601f19601f8201168201806040525081019061021491906110bc565b90610a1d565b90610a5e565b60a08201819052610140820151604083015161024792916102419190610aa0565b90610ac5565b60c0820181905261025c5760009150506102db565b6102a68160c0015161021a61028284602001518560a00151610a1d90919063ffffffff16565b61024185608001516102148761014001518860400151610aa090919063ffffffff16565b60e0820181905260c082015160608301516101408401516000936102cb939291610b07565b670de0b6b3a76400001115925050505b98975050505050505050565b80517fdb6db6db6db6db6db6db6db6db6db6db6db6db6db6db6db6db6db6db6db6db6d1615155b919050565b60006055821060405180604001604052806002815260200161373760f01b8152509061035b5760405162461bcd60e51b8152600401610352919061113e565b60405180910390fd5b5050815160016003830281019190911c1615155b92915050565b5461ffff80821692601083901c821692602081901c831692603082901c60ff169260409290921c1690565b600080808080808b6103b0610f46565b6103b98c610b40565b156103dc5760008060008060001960009750975097509750975097505050610a0e565b60005b8a811015610904576103f18d82610b45565b6103fa576108fc565b8b600082815260200190815260200160002060009054906101000a90046001600160a01b0316826101c001906001600160a01b031690816001600160a01b03168152505060008e6000846101c001516001600160a01b03166001600160a01b03168152602001908152602001600020905061047781600001610375565b506080870181905260c08701929092525060a0850191909152600a0a60208401526101c083015160405163b3596f0760e01b81526001600160a01b038d169163b3596f07916104c9919060040161111f565b60206040518083038186803b1580156104e157600080fd5b505afa1580156104f5573d6000803e3d6000fd5b505050506040513d601f19601f8201168201806040525081019061051991906110bc565b835260c08301511580159061053357506105338e83610313565b1561063f576004808201546040516370a0823160e01b81526001600160a01b03909116916370a08231916105699188910161111f565b60206040518083038186803b15801561058157600080fd5b505afa158015610595573d6000803e3d6000fd5b505050506040513d601f19601f820116820180604052508101906105b991906110bc565b60408401819052602084015184516000926105d8929161021a91610a1d565b6101008501519091506105eb9082610aa0565b61010085015260a084015161061190610605908390610a1d565b61014086015190610aa0565b61014085015260c08401516106379061062b908390610a1d565b61016086015190610aa0565b610160850152505b6106498e83610b96565b156107975760058101546040516370a0823160e01b81526001600160a01b03909116906370a082319061068090879060040161111f565b60206040518083038186803b15801561069857600080fd5b505afa1580156106ac573d6000803e3d6000fd5b505050506040513d601f19601f820116820180604052508101906106d091906110bc565b606084015260068101546040516370a0823160e01b8152610764916001600160a01b0316906370a082319061070990889060040161111f565b60206040518083038186803b15801561072157600080fd5b505afa158015610735573d6000803e3d6000fd5b505050506040513d601f19601f8201168201806040525081019061075991906110bc565b606085015190610aa0565b606084018190526020840151845161079092610784929161021a91610a1d565b61012085015190610aa0565b6101208401525b602083015160088201546040516370a0823160e01b815260009261083192909161021a916001600160a01b0316906370a08231906107d9908b9060040161111f565b60206040518083038186803b1580156107f157600080fd5b505afa158015610805573d6000803e3d6000fd5b505050506040513d601f19601f8201168201806040525081019061082991906110bc565b875190610a1d565b6102208501519091506108449082610aa0565b61022085015260408051808201909152601781527f436f6d696e6720746f2047656e65726963204c6f676963000000000000000000602082015261088790610be7565b6108bf6040518060400160405280600e81526020016d637265646974696e65746820257360901b8152506108ba83610c2d565b610d08565b6108d96106058560a0015183610a1d90919063ffffffff16565b61014085015260c08401516108f39061062b908390610a1d565b61016085015250505b6001016103df565b506000610924826102200151836101000151610aa090919063ffffffff16565b1161093057600061095c565b61095c610950826102200151836101000151610aa090919063ffffffff16565b61014083015190610a5e565b61014082015261022081015161010082015160009161097b9190610aa0565b116109875760006109b3565b6109b36109a7826102200151836101000151610aa090919063ffffffff16565b61016083015190610a5e565b61016082018190526101008201516101208301516102208401516109d79390610b07565b60e0820181905261010082015161012083015161014084015161016085015161022090950151929b50909950975091955093509150505b96509650965096509650969050565b600082610a2c5750600061036f565b82820282848281610a3957fe5b0414610a575760405162461bcd60e51b8152600401610352906111b6565b9392505050565b6000610a5783836040518060400160405280601a81526020017f536166654d6174683a206469766973696f6e206279207a65726f000000000000815250610d51565b600082820183811015610a575760405162461bcd60e51b81526004016103529061117f565b6000610a5783836040518060400160405280601e81526020017f536166654d6174683a207375627472616374696f6e206f766572666c6f770000815250610d88565b600083610b175750600019610b38565b610b3584610b2f85610b298987610aa0565b90610db4565b90610e26565b90505b949350505050565b511590565b60006055821060405180604001604052806002815260200161373760f01b81525090610b845760405162461bcd60e51b8152600401610352919061113e565b50509051600760039092021c16151590565b60006055821060405180604001604052806002815260200161373760f01b81525090610bd55760405162461bcd60e51b8152600401610352919061113e565b50509051600160039092021c16151590565b610c2a81604051602401610bfb919061113e565b60408051601f198184030181529190526020810180516001600160e01b031663104c13eb60e21b179052610ec9565b50565b606081610c5257506040805180820190915260018152600360fc1b602082015261030e565b8160005b8115610c6a57600101600a82049150610c56565b60608167ffffffffffffffff81118015610c8357600080fd5b506040519080825280601f01601f191660200182016040528015610cae576020820181803683370190505b50859350905060001982015b8315610cff57600a840660300160f81b82828060019003935081518110610cdd57fe5b60200101906001600160f81b031916908160001a905350600a84049350610cba565b50949350505050565b610d4d8282604051602401610d1e929190611151565b60408051601f198184030181529190526020810180516001600160e01b0316634b5c427760e01b179052610ec9565b5050565b60008183610d725760405162461bcd60e51b8152600401610352919061113e565b506000838581610d7e57fe5b0495945050505050565b60008184841115610dac5760405162461bcd60e51b8152600401610352919061113e565b505050900390565b6000821580610dc1575081155b15610dce5750600061036f565b816113881981610dda57fe5b0483111560405180604001604052806002815260200161068760f31b81525090610e175760405162461bcd60e51b8152600401610352919061113e565b50506127109102611388010490565b604080518082019091526002815261035360f41b602082015260009082610e605760405162461bcd60e51b8152600401610352919061113e565b5060408051808201909152600280825261068760f31b6020830152830490670de0b6b3a7640000821904851115610eaa5760405162461bcd60e51b8152600401610352919061113e565b508281670de0b6b3a764000086020181610ec057fe5b04949350505050565b80516a636f6e736f6c652e6c6f67602083016000808483855afa5050505050565b604051806101600160405280600081526020016000815260200160008152602001600081526020016000815260200160008152602001600081526020016000815260200160008152602001600015158152602001600081525090565b6040518061024001604052806000815260200160008152602001600081526020016000815260200160008152602001600081526020016000815260200160008152602001600081526020016000815260200160008152602001600081526020016000815260200160001515815260200160006001600160a01b03168152602001600015158152602001600015158152602001600081525090565b80356001600160a01b038116811461036f57600080fd5b600080600080600080600080888a03610100811215611014578485fd5b61101e8b8b610fe0565b985061102d8b60208c01610fe0565b975060408a0135965060608a013595506020607f198201121561104e578485fd5b5060808901935060a0890135925060c089013591506110708a60e08b01610fe0565b90509295985092959890939650565b600060208284031215611090578081fd5b6040516020810181811067ffffffffffffffff821117156110af578283fd5b6040529135825250919050565b6000602082840312156110cd578081fd5b5051919050565b60008151808452815b818110156110f9576020818501810151868301820152016110dd565b8181111561110a5782602083870101525b50601f01601f19169290920160200192915050565b6001600160a01b0391909116815260200190565b901515815260200190565b600060208252610a5760208301846110d4565b60006040825261116460408301856110d4565b828103602084015261117681856110d4565b95945050505050565b6020808252601b908201527f536166654d6174683a206164646974696f6e206f766572666c6f770000000000604082015260600190565b60208082526021908201527f536166654d6174683a206d756c7469706c69636174696f6e206f766572666c6f6040820152607760f81b606082015260800190565b9081526020019056fea26469706673582212204b97c91b8327da70c5466fe16cae8f407987de46c9a97f51c3445116e042384e64736f6c634300060c0033",
  "linkReferences": {},
  "deployedLinkReferences": {}
}