{
  "_format": "hh-sol-artifact-1",
  "contractName": "Faucet",
  "sourceName": "contracts/mocks/faucet/Faucet.sol",
  "abi": [
    {
      "inputs": [
        {
          "internalType": "address",
          "name": "reserve",
          "type": "address"
        },
        {
          "internalType": "uint256",
          "name": "value",
          "type": "uint256"
        }
      ],
      "name": "mint",
      "outputs": [
        {
          "internalType": "bool",
          "name": "",
          "type": "bool"
        }
      ],
      "stateMutability": "nonpayable",
      "type": "function"
    }
  ],
  "bytecode": "0x608060405234801561001057600080fd5b5061019e806100206000396000f3fe608060405234801561001057600080fd5b506004361061002b5760003560e01c806340c10f1914610030575b600080fd5b61005c6004803603604081101561004657600080fd5b506001600160a01b038135169060200135610070565b604080519115158252519081900360200190f35b6000826001600160a01b031663a0712d68836040518263ffffffff1660e01b815260040180828152602001915050602060405180830381600087803b1580156100b857600080fd5b505af11580156100cc573d6000803e3d6000fd5b505050506040513d60208110156100e257600080fd5b50506040805163a9059cbb60e01b81523360048201526024810184905290516001600160a01b0385169163a9059cbb9160448083019260209291908290030181600087803b15801561013357600080fd5b505af1158015610147573d6000803e3d6000fd5b505050506040513d602081101561015d57600080fd5b50600194935050505056fea2646970667358221220801992c21ab9f0d49d3c26008fa2495a867fe5b28f6e26e10294774bd343628a64736f6c634300060c0033",
  "linkReferences": {},
  "deployedLinkReferences": {}
}