{
  "_format": "hh-sol-artifact-1",
  "contractName": "ValidationLogic",
  "sourceName": "contracts/protocol/libraries/logic/ValidationLogic.sol",
  "abi": [
    {
      "inputs": [],
      "name": "REBALANCE_UP_LIQUIDITY_RATE_THRESHOLD",
      "outputs": [
        {
          "internalType": "uint256",
          "name": "",
          "type": "uint256"
        }
      ],
      "stateMutability": "view",
      "type": "function"
    },
    {
      "inputs": [],
      "name": "REBALANCE_UP_USAGE_RATIO_THRESHOLD",
      "outputs": [
        {
          "internalType": "uint256",
          "name": "",
          "type": "uint256"
        }
      ],
      "stateMutability": "view",
      "type": "function"
    }
  ],
  "bytecode": "0x612117610026600b82828239805160001a60731461001957fe5b30600052607381538281f3fe730000000000000000000000000000000000000000301460806040526004361061009d5760003560e01c8063721a92f911610070578063721a92f9146100fb578063a8695b1d1461010e578063abfcc86a14610121578063d09db04a14610129578063fa0c21491461013c5761009d565b80630eca322b146100a2578063548cad09146100b75780635494eb8a146100ca5780635fa297e5146100e8575b600080fd5b6100b56100b0366004611ef7565b61014f565b005b6100b56100c5366004611e4f565b610217565b6100d261050d565b6040516100df91906120b2565b60405180910390f35b6100b56100f6366004611de5565b61051d565b6100b5610109366004611cb3565b6106c2565b6100b561011c366004611eb6565b610bb4565b6100d2610e4d565b6100b5610137366004611d57565b610e53565b6100b561014a366004611f18565b610ff1565b60008061015b84611137565b50506040805180820190915260018152603160f81b60208201529193509150836101a15760405162461bcd60e51b81526004016101989190611fe7565b60405180910390fd5b506040805180820190915260018152601960f91b6020820152826101d85760405162461bcd60e51b81526004016101989190611fe7565b506040805180820190915260018152603360f81b602082015281156102105760405162461bcd60e51b81526004016101989190611fe7565b5050505050565b600061022286611137565b505050905080604051806040016040528060018152602001601960f91b815250906102605760405162461bcd60e51b81526004016101989190611fe7565b506000610356610351856001600160a01b03166318160ddd6040518163ffffffff1660e01b815260040160206040518083038186803b1580156102a257600080fd5b505afa1580156102b6573d6000803e3d6000fd5b505050506040513d601f19601f820116820180604052508101906102da9190611f76565b876001600160a01b03166318160ddd6040518163ffffffff1660e01b815260040160206040518083038186803b15801561031357600080fd5b505afa158015610327573d6000803e3d6000fd5b505050506040513d601f19601f8201168201806040525081019061034b9190611f76565b9061116f565b61119d565b905060006103d9876001600160a01b03166370a08231866040518263ffffffff1660e01b81526004016103899190611f8e565b60206040518083038186803b1580156103a157600080fd5b505afa1580156103b5573d6000803e3d6000fd5b505050506040513d601f19601f820116820180604052508101906103519190611f76565b9050600082156103fc576103f76103f0838561116f565b84906111ed565b6103ff565b60005b60028a015460078b0154604080516380031e3760e01b815290519394506fffffffffffffffffffffffffffffffff909216926000926001600160a01b03909216916380031e37916004808301926020929190829003018186803b15801561046557600080fd5b505afa158015610479573d6000803e3d6000fd5b505050506040513d601f19601f8201168201806040525081019061049d9190611f76565b90506b0311d253316c79d37600000083101580156104c657506104c281610fa0611298565b8211155b60405180604001604052806002815260200161191960f11b815250906104ff5760405162461bcd60e51b81526004016101989190611fe7565b505050505050505050505050565b6b0311d253316c79d37600000081565b6004808901546040516370a0823160e01b81526000926001600160a01b03909216916370a082319161055191339101611f8e565b60206040518083038186803b15801561056957600080fd5b505afa15801561057d573d6000803e3d6000fd5b505050506040513d601f19601f820116820180604052508101906105a19190611f76565b90506000811160405180604001604052806002815260200161313960f01b815250906105e05760405162461bcd60e51b81526004016101989190611fe7565b50868061067d5750604051633985c10960e21b815273__$52a8a86ab43135662ff256bbc95497e8e3$__9063e61704249061062d908b90339086908c908c908c908c908c90600401611fa2565b60206040518083038186803b15801561064557600080fd5b505af4158015610659573d6000803e3d6000fd5b505050506040513d601f19601f8201168201806040525081019061067d9190611dc9565b60405180604001604052806002815260200161032360f41b815250906106b65760405162461bcd60e51b81526004016101989190611fe7565b50505050505050505050565b6106ca611ba9565b6106d38c611137565b151561016085015215156101408401521515610120830152151561010082018190526040805180820190915260018152601960f91b60208201529061072b5760405162461bcd60e51b81526004016101989190611fe7565b5080610120015115604051806040016040528060018152602001603360f81b8152509061076b5760405162461bcd60e51b81526004016101989190611fe7565b506040805180820190915260018152603160f81b60208201528a6107a25760405162461bcd60e51b81526004016101989190611fe7565b50806101400151604051806040016040528060018152602001603760f81b815250906107e15760405162461bcd60e51b81526004016101989190611fe7565b5087600214806107f15750876001145b604051806040016040528060018152602001600760fb1b815250906108295760405162461bcd60e51b81526004016101989190611fe7565b50604080516020810190915285548152610849908c90889087878761130a565b6080870181905260e0870191909152602086019190915290845260a08401919091526060830182905260009161087e9161116f565b11604051806040016040528060018152602001603960f81b815250906108b75760405162461bcd60e51b81526004016101989190611fe7565b50670de0b6b3a76400008160e001511160405180604001604052806002815260200161031360f41b815250906109005760405162461bcd60e51b81526004016101989190611fe7565b50805160a082015161091d9190610917908c61116f565b906118ad565b6040820152608081015160608201516109359161116f565b8160400151111560405180604001604052806002815260200161313160f01b815250906109755760405162461bcd60e51b81526004016101989190611fe7565b506001881415610ba55780610160015160405180604001604052806002815260200161189960f11b815250906109be5760405162461bcd60e51b81526004016101989190611fe7565b5060088c01546040805160208101909152865481526109e691600160a01b900460ff1661193b565b15806109f857506109f68c611993565b155b80610a8257506004808d01546040516370a0823160e01b81526001600160a01b03909116916370a0823191610a2f918f9101611f8e565b60206040518083038186803b158015610a4757600080fd5b505afa158015610a5b573d6000803e3d6000fd5b505050506040513d601f19601f82011682018060405250810190610a7f9190611f76565b8a115b60405180604001604052806002815260200161313360f01b81525090610abb5760405162461bcd60e51b81526004016101989190611fe7565b508c6001600160a01b03166370a082318d60040160009054906101000a90046001600160a01b03166040518263ffffffff1660e01b8152600401610aff9190611f8e565b60206040518083038186803b158015610b1757600080fd5b505afa158015610b2b573d6000803e3d6000fd5b505050506040513d601f19601f82011682018060405250810190610b4f9190611f76565b60c08201819052600090610b639089611298565b9050808b1115604051806040016040528060028152602001610c4d60f21b81525090610ba25760405162461bcd60e51b81526004016101989190611fe7565b50505b50505050505050505050505050565b60008080610bc188611137565b9350509250925082604051806040016040528060018152602001601960f91b81525090610c015760405162461bcd60e51b81526004016101989190611fe7565b506040805180820190915260018152603360f81b60208201528215610c395760405162461bcd60e51b81526004016101989190611fe7565b506001846002811115610c4857fe5b1415610c8b57604080518082019091526002815261313760f01b602082015286610c855760405162461bcd60e51b81526004016101989190611fe7565b50610e43565b6002846002811115610c9957fe5b1415610e1457604080518082019091526002815261062760f31b602082015285610cd65760405162461bcd60e51b81526004016101989190611fe7565b50604080518082019091526002815261189960f11b602082015281610d0e5760405162461bcd60e51b81526004016101989190611fe7565b506008880154604080516020810190915288548152610d3691600160a01b900460ff1661193b565b1580610d485750610d4688611993565b155b80610ddb57506004808901546040516370a0823160e01b81526001600160a01b03909116916370a0823191610d7f91339101611f8e565b60206040518083038186803b158015610d9757600080fd5b505afa158015610dab573d6000803e3d6000fd5b505050506040513d601f19601f82011682018060405250810190610dcf9190611f76565b610dd9878761116f565b115b60405180604001604052806002815260200161313360f01b81525090610c855760405162461bcd60e51b81526004016101989190611fe7565b60408051808201825260018152600760fb1b6020820152905162461bcd60e51b81526101989190600401611fe7565b5050505050505050565b610fa081565b6040805180820190915260018152603160f81b602082015287610e895760405162461bcd60e51b81526004016101989190611fe7565b506040805180820190915260018152603560f81b602082015286881115610ec35760405162461bcd60e51b81526004016101989190611fe7565b506001600160a01b0388166000908152602086905260408120610ee590611137565b505050905080604051806040016040528060018152602001601960f91b81525090610f235760405162461bcd60e51b81526004016101989190611fe7565b50604051633985c10960e21b815273__$52a8a86ab43135662ff256bbc95497e8e3$__9063e617042490610f69908c9033908d908c908c908c908c908c90600401611fa2565b60206040518083038186803b158015610f8157600080fd5b505af4158015610f95573d6000803e3d6000fd5b505050506040513d601f19601f82011682018060405250810190610fb99190611dc9565b604051806040016040528060018152602001601b60f91b815250906106b65760405162461bcd60e51b81526004016101989190611fe7565b6000610ffc8761199b565b905080604051806040016040528060018152602001601960f91b815250906110375760405162461bcd60e51b81526004016101989190611fe7565b506040805180820190915260018152603160f81b60208201528661106e5760405162461bcd60e51b81526004016101989190611fe7565b5060008311801561108a5750600185600281111561108857fe5b145b806110ab57506000821180156110ab575060028560028111156110a957fe5b145b60405180604001604052806002815260200161313560f01b815250906110e45760405162461bcd60e51b81526004016101989190611fe7565b50600019861415806110fe5750336001600160a01b038516145b60405180604001604052806002815260200161189b60f11b81525090610e435760405162461bcd60e51b81526004016101989190611fe7565b54600160381b811615159167020000000000000082161515916704000000000000008116151591670800000000000000909116151590565b6000828201838110156111945760405162461bcd60e51b81526004016101989061203a565b90505b92915050565b6000633b9aca0082810290839082041460405180604001604052806002815260200161068760f31b815250906111e65760405162461bcd60e51b81526004016101989190611fe7565b5092915050565b604080518082019091526002815261035360f41b6020820152600090826112275760405162461bcd60e51b81526004016101989190611fe7565b5060408051808201909152600280825261068760f31b60208301528304906b033b2e3c9fd0803ce80000008219048511156112755760405162461bcd60e51b81526004016101989190611fe7565b5082816b033b2e3c9fd0803ce80000008602018161128f57fe5b04949350505050565b60008215806112a5575081155b156112b257506000611197565b8161138819816112be57fe5b0483111560405180604001604052806002815260200161068760f31b815250906112fb5760405162461bcd60e51b81526004016101989190611fe7565b50506127109102611388010490565b600080808080808b61131a611c12565b60006101608201525b89816101600151101561179657610160810151600090815260208c81526040808320546001600160a01b03166101e085018190528352908f90529020611368816119a7565b506080860181905260c08601929092525060a0840191909152600a0a60208301526101e082015160405163b3596f0760e01b81526001600160a01b038c169163b3596f07916113ba9190600401611f8e565b60206040518083038186803b1580156113d257600080fd5b505afa1580156113e6573d6000803e3d6000fd5b505050506040513d601f19601f8201168201806040525081019061140a9190611f76565b825260c08201511580159061142b575061016082015161142b908e9061193b565b1561153d576004808201546040516370a0823160e01b81526001600160a01b03909116916370a082319161146191879101611f8e565b60206040518083038186803b15801561147957600080fd5b505afa15801561148d573d6000803e3d6000fd5b505050506040513d601f19601f820116820180604052508101906114b19190611f76565b60408301819052602083015183516000926114d692916114d0916119d2565b90611a0c565b6101008401519091506114e9908261116f565b61010084015260a083015161150f906115039083906119d2565b6101408501519061116f565b61014084015260c0830151611535906115299083906119d2565b6101808501519061116f565b610180840152505b61016082015161154e908e90611a4e565b1561169c5760058101546040516370a0823160e01b81526001600160a01b03909116906370a0823190611585908690600401611f8e565b60206040518083038186803b15801561159d57600080fd5b505afa1580156115b1573d6000803e3d6000fd5b505050506040513d601f19601f820116820180604052508101906115d59190611f76565b606083015260068101546040516370a0823160e01b8152611669916001600160a01b0316906370a082319061160e908790600401611f8e565b60206040518083038186803b15801561162657600080fd5b505afa15801561163a573d6000803e3d6000fd5b505050506040513d601f19601f8201168201806040525081019061165e9190611f76565b60608401519061116f565b60608301819052602083015183516116959261168992916114d0916119d2565b6101208401519061116f565b6101208301525b602082015160088201546040516370a0823160e01b81526000926117369290916114d0916001600160a01b0316906370a08231906116de908a90600401611f8e565b60206040518083038186803b1580156116f657600080fd5b505afa15801561170a573d6000803e3d6000fd5b505050506040513d601f19601f8201168201806040525081019061172e9190611f76565b8651906119d2565b610240840151909150611749908261116f565b61024084015260a0830151611763906115039083906119d2565b61014084015260c083015161177d906115299083906119d2565b6101808401525050610160810180516001019052611323565b60006117b582610240015183610100015161116f90919063ffffffff16565b116117c15760006117ed565b6117ed6117e182610240015183610100015161116f90919063ffffffff16565b61014083015190611a0c565b61014082015261024081015161010082015160009161180c919061116f565b11611818576000611844565b61184461183882610240015183610100015161116f90919063ffffffff16565b61018083015190611a0c565b61018082018190526101008201516101208301516102408401516118689390611a9f565b60e0820181905261010082015161012083015161014084015161018085015161024090950151929b509099509750919550935091505096509650965096509650969050565b604080518082019091526002815261035360f41b6020820152600090826118e75760405162461bcd60e51b81526004016101989190611fe7565b5060408051808201909152600280825261068760f31b602083015283049061271082190485111561192b5760405162461bcd60e51b81526004016101989190611fe7565b5082816127108602018161128f57fe5b60006055821060405180604001604052806002815260200161373760f01b8152509061197a5760405162461bcd60e51b81526004016101989190611fe7565b5050815160016003830281019190911c16151592915050565b5461ffff1690565b54600160381b16151590565b5461ffff80821692601083901c821692602081901c831692603082901c60ff169260409290921c1690565b6000826119e157506000611197565b828202828482816119ee57fe5b04146111945760405162461bcd60e51b815260040161019890612071565b600061119483836040518060400160405280601a81526020017f536166654d6174683a206469766973696f6e206279207a65726f000000000000815250611ad8565b60006055821060405180604001604052806002815260200161373760f01b81525090611a8d5760405162461bcd60e51b81526004016101989190611fe7565b50509051600160039092021c16151590565b600083611aaf5750600019611ad0565b611acd84611ac785611ac1898761116f565b90611298565b90611b0f565b90505b949350505050565b60008183611af95760405162461bcd60e51b81526004016101989190611fe7565b506000838581611b0557fe5b0495945050505050565b604080518082019091526002815261035360f41b602082015260009082611b495760405162461bcd60e51b81526004016101989190611fe7565b5060408051808201909152600280825261068760f31b6020830152830490670de0b6b3a7640000821904851115611b935760405162461bcd60e51b81526004016101989190611fe7565b508281670de0b6b3a76400008602018161128f57fe5b60405180610180016040528060008152602001600081526020016000815260200160008152602001600081526020016000815260200160008152602001600081526020016000151581526020016000151581526020016000151581526020016000151581525090565b604051806102600160405280600081526020016000815260200160008152602001600081526020016000815260200160008152602001600081526020016000815260200160008152602001600081526020016000815260200160008152602001600081526020016000815260200160001515815260200160006001600160a01b03168152602001600015158152602001600015158152602001600081525090565b6000806000806000806000806000806000806101808d8f031215611cd5578788fd5b8c35611ce0816120bb565b9b5060208d01359a5060408d0135611cf7816120bb565b995060608d0135985060808d0135975060a08d0135965060c08d0135955060e08d013594506101008d013593506101208d013592506101408d013591506101608d0135611d43816120bb565b809150509295989b509295989b509295989b565b600080600080600080600080610100898b031215611d73578384fd5b8835611d7e816120bb565b97506020890135965060408901359550606089013594506080890135935060a0890135925060c0890135915060e0890135611db8816120bb565b809150509295985092959890939650565b600060208284031215611dda578081fd5b8151611194816120d3565b600080600080600080600080610100898b031215611e01578384fd5b883597506020890135611e13816120bb565b96506040890135611e23816120d3565b9550606089013594506080890135935060a0890135925060c0890135915060e0890135611db8816120bb565b600080600080600060a08688031215611e66578081fd5b853594506020860135611e78816120bb565b93506040860135611e88816120bb565b92506060860135611e98816120bb565b91506080860135611ea8816120bb565b809150509295509295909350565b600080600080600060a08688031215611ecd578081fd5b85359450602086013593506040860135925060608601359150608086013560038110611ea8578182fd5b60008060408385031215611f09578182fd5b50508035926020909101359150565b60008060008060008060c08789031215611f30578384fd5b8635955060208701359450604087013560038110611f4c578485fd5b93506060870135611f5c816120bb565b9598949750929560808101359460a0909101359350915050565b600060208284031215611f87578081fd5b5051919050565b6001600160a01b0391909116815260200190565b6001600160a01b0398891681529688166020880152604087019590955260608601939093529054608085015260a084015260c083015290911660e08201526101000190565b6000602080835283518082850152825b8181101561201357858101830151858201604001528201611ff7565b818111156120245783604083870101525b50601f01601f1916929092016040019392505050565b6020808252601b908201527f536166654d6174683a206164646974696f6e206f766572666c6f770000000000604082015260600190565b60208082526021908201527f536166654d6174683a206d756c7469706c69636174696f6e206f766572666c6f6040820152607760f81b606082015260800190565b90815260200190565b6001600160a01b03811681146120d057600080fd5b50565b80151581146120d057600080fdfea26469706673582212203cc9ff138c5c6503215ac064daeafdeb98c77f3e0af5341e133c03525fee82b764736f6c634300060c0033",
  "linkReferences": {
    "contracts/protocol/libraries/logic/GenericLogic.sol": {
      "GenericLogic": [
        {
          "length": 20,
          "start": 1565
        },
        {
          "length": 20,
          "start": 3929
        }
      ]
    }
  },
  "deployedLinkReferences": {
    "contracts/protocol/libraries/logic/GenericLogic.sol": {
      "GenericLogic": [
        {
          "length": 20,
          "start": 1527
        },
        {
          "length": 20,
          "start": 3891
        }
      ]
    }
  }
}