{
  "_format": "hh-sol-artifact-1",
  "contractName": "ValidationLogic",
  "sourceName": "contracts/protocol/libraries/logic/ValidationLogic.sol",
  "abi": [
    {
      "inputs": [],
      "name": "REBALANCE_UP_LIQUIDITY_RATE_THRESHOLD",
      "outputs": [
        {
          "internalType": "uint256",
          "name": "",
          "type": "uint256"
        }
      ],
      "stateMutability": "view",
      "type": "function"
    },
    {
      "inputs": [],
      "name": "REBALANCE_UP_USAGE_RATIO_THRESHOLD",
      "outputs": [
        {
          "internalType": "uint256",
          "name": "",
          "type": "uint256"
        }
      ],
      "stateMutability": "view",
      "type": "function"
    }
  ],
  "bytecode": "0x612409610026600b82828239805160001a60731461001957fe5b30600052607381538281f3fe730000000000000000000000000000000000000000301460806040526004361061009d5760003560e01c8063721a92f911610070578063721a92f9146100fb578063a8695b1d1461010e578063abfcc86a14610121578063d09db04a14610129578063fa0c21491461013c5761009d565b80630eca322b146100a2578063548cad09146100b75780635494eb8a146100ca5780635fa297e5146100e8575b600080fd5b6100b56100b03660046121b3565b61014f565b005b6100b56100c536600461210b565b610217565b6100d261050d565b6040516100df91906123a7565b60405180910390f35b6100b56100f63660046120a1565b61051d565b6100b5610109366004611f6f565b6106c2565b6100b561011c366004612172565b610bb4565b6100d2610e4d565b6100b5610137366004612013565b610e53565b6100b561014a3660046121d4565b610ff1565b60008061015b84611137565b50506040805180820190915260018152603160f81b60208201529193509150836101a15760405162461bcd60e51b815260040161019891906122ee565b60405180910390fd5b506040805180820190915260018152601960f91b6020820152826101d85760405162461bcd60e51b815260040161019891906122ee565b506040805180820190915260018152603360f81b602082015281156102105760405162461bcd60e51b815260040161019891906122ee565b5050505050565b600061022286611137565b505050905080604051806040016040528060018152602001601960f91b815250906102605760405162461bcd60e51b815260040161019891906122ee565b506000610356610351856001600160a01b03166318160ddd6040518163ffffffff1660e01b815260040160206040518083038186803b1580156102a257600080fd5b505afa1580156102b6573d6000803e3d6000fd5b505050506040513d601f19601f820116820180604052508101906102da9190612232565b876001600160a01b03166318160ddd6040518163ffffffff1660e01b815260040160206040518083038186803b15801561031357600080fd5b505afa158015610327573d6000803e3d6000fd5b505050506040513d601f19601f8201168201806040525081019061034b9190612232565b9061116f565b61119d565b905060006103d9876001600160a01b03166370a08231866040518263ffffffff1660e01b81526004016103899190612295565b60206040518083038186803b1580156103a157600080fd5b505afa1580156103b5573d6000803e3d6000fd5b505050506040513d601f19601f820116820180604052508101906103519190612232565b9050600082156103fc576103f76103f0838561116f565b84906111ef565b6103ff565b60005b60028a015460078b0154604080516380031e3760e01b815290519394506fffffffffffffffffffffffffffffffff909216926000926001600160a01b03909216916380031e37916004808301926020929190829003018186803b15801561046557600080fd5b505afa158015610479573d6000803e3d6000fd5b505050506040513d601f19601f8201168201806040525081019061049d9190612232565b90506b0311d253316c79d37600000083101580156104c657506104c281610fa061129a565b8211155b60405180604001604052806002815260200161191960f11b815250906104ff5760405162461bcd60e51b815260040161019891906122ee565b505050505050505050505050565b6b0311d253316c79d37600000081565b6004808901546040516370a0823160e01b81526000926001600160a01b03909216916370a082319161055191339101612295565b60206040518083038186803b15801561056957600080fd5b505afa15801561057d573d6000803e3d6000fd5b505050506040513d601f19601f820116820180604052508101906105a19190612232565b90506000811160405180604001604052806002815260200161313960f01b815250906105e05760405162461bcd60e51b815260040161019891906122ee565b50868061067d5750604051633985c10960e21b815273__$52a8a86ab43135662ff256bbc95497e8e3$__9063e61704249061062d908b90339086908c908c908c908c908c906004016122a9565b60206040518083038186803b15801561064557600080fd5b505af4158015610659573d6000803e3d6000fd5b505050506040513d601f19601f8201168201806040525081019061067d9190612085565b60405180604001604052806002815260200161032360f41b815250906106b65760405162461bcd60e51b815260040161019891906122ee565b50505050505050505050565b6106ca611e6c565b6106d38c611137565b151561016085015215156101408401521515610120830152151561010082018190526040805180820190915260018152601960f91b60208201529061072b5760405162461bcd60e51b815260040161019891906122ee565b5080610120015115604051806040016040528060018152602001603360f81b8152509061076b5760405162461bcd60e51b815260040161019891906122ee565b506040805180820190915260018152603160f81b60208201528a6107a25760405162461bcd60e51b815260040161019891906122ee565b50806101400151604051806040016040528060018152602001603760f81b815250906107e15760405162461bcd60e51b815260040161019891906122ee565b5087600214806107f15750876001145b604051806040016040528060018152602001600760fb1b815250906108295760405162461bcd60e51b815260040161019891906122ee565b50604080516020810190915285548152610849908c90889087878761130c565b6080870181905260e0870191909152602086019190915290845260a08401919091526060830182905260009161087e9161116f565b11604051806040016040528060018152602001603960f81b815250906108b75760405162461bcd60e51b815260040161019891906122ee565b50670de0b6b3a76400008160e001511160405180604001604052806002815260200161031360f41b815250906109005760405162461bcd60e51b815260040161019891906122ee565b50805160a082015161091d9190610917908c61116f565b9061198f565b6040820152608081015160608201516109359161116f565b8160400151111560405180604001604052806002815260200161313160f01b815250906109755760405162461bcd60e51b815260040161019891906122ee565b506001881415610ba55780610160015160405180604001604052806002815260200161189960f11b815250906109be5760405162461bcd60e51b815260040161019891906122ee565b5060088c01546040805160208101909152865481526109e691600160a01b900460ff16611a1d565b15806109f857506109f68c611a75565b155b80610a8257506004808d01546040516370a0823160e01b81526001600160a01b03909116916370a0823191610a2f918f9101612295565b60206040518083038186803b158015610a4757600080fd5b505afa158015610a5b573d6000803e3d6000fd5b505050506040513d601f19601f82011682018060405250810190610a7f9190612232565b8a115b60405180604001604052806002815260200161313360f01b81525090610abb5760405162461bcd60e51b815260040161019891906122ee565b508c6001600160a01b03166370a082318d60040160009054906101000a90046001600160a01b03166040518263ffffffff1660e01b8152600401610aff9190612295565b60206040518083038186803b158015610b1757600080fd5b505afa158015610b2b573d6000803e3d6000fd5b505050506040513d601f19601f82011682018060405250810190610b4f9190612232565b60c08201819052600090610b63908961129a565b9050808b1115604051806040016040528060028152602001610c4d60f21b81525090610ba25760405162461bcd60e51b815260040161019891906122ee565b50505b50505050505050505050505050565b60008080610bc188611137565b9350509250925082604051806040016040528060018152602001601960f91b81525090610c015760405162461bcd60e51b815260040161019891906122ee565b506040805180820190915260018152603360f81b60208201528215610c395760405162461bcd60e51b815260040161019891906122ee565b506001846002811115610c4857fe5b1415610c8b57604080518082019091526002815261313760f01b602082015286610c855760405162461bcd60e51b815260040161019891906122ee565b50610e43565b6002846002811115610c9957fe5b1415610e1457604080518082019091526002815261062760f31b602082015285610cd65760405162461bcd60e51b815260040161019891906122ee565b50604080518082019091526002815261189960f11b602082015281610d0e5760405162461bcd60e51b815260040161019891906122ee565b506008880154604080516020810190915288548152610d3691600160a01b900460ff16611a1d565b1580610d485750610d4688611a75565b155b80610ddb57506004808901546040516370a0823160e01b81526001600160a01b03909116916370a0823191610d7f91339101612295565b60206040518083038186803b158015610d9757600080fd5b505afa158015610dab573d6000803e3d6000fd5b505050506040513d601f19601f82011682018060405250810190610dcf9190612232565b610dd9878761116f565b115b60405180604001604052806002815260200161313360f01b81525090610c855760405162461bcd60e51b815260040161019891906122ee565b60408051808201825260018152600760fb1b6020820152905162461bcd60e51b815261019891906004016122ee565b5050505050505050565b610fa081565b6040805180820190915260018152603160f81b602082015287610e895760405162461bcd60e51b815260040161019891906122ee565b506040805180820190915260018152603560f81b602082015286881115610ec35760405162461bcd60e51b815260040161019891906122ee565b506001600160a01b0388166000908152602086905260408120610ee590611137565b505050905080604051806040016040528060018152602001601960f91b81525090610f235760405162461bcd60e51b815260040161019891906122ee565b50604051633985c10960e21b815273__$52a8a86ab43135662ff256bbc95497e8e3$__9063e617042490610f69908c9033908d908c908c908c908c908c906004016122a9565b60206040518083038186803b158015610f8157600080fd5b505af4158015610f95573d6000803e3d6000fd5b505050506040513d601f19601f82011682018060405250810190610fb99190612085565b604051806040016040528060018152602001601b60f91b815250906106b65760405162461bcd60e51b815260040161019891906122ee565b6000610ffc87611a7d565b905080604051806040016040528060018152602001601960f91b815250906110375760405162461bcd60e51b815260040161019891906122ee565b506040805180820190915260018152603160f81b60208201528661106e5760405162461bcd60e51b815260040161019891906122ee565b5060008311801561108a5750600185600281111561108857fe5b145b806110ab57506000821180156110ab575060028560028111156110a957fe5b145b60405180604001604052806002815260200161313560f01b815250906110e45760405162461bcd60e51b815260040161019891906122ee565b50600019861415806110fe5750336001600160a01b038516145b60405180604001604052806002815260200161189b60f11b81525090610e435760405162461bcd60e51b815260040161019891906122ee565b54600160381b811615159167020000000000000082161515916704000000000000008116151591670800000000000000909116151590565b6000828201838110156111945760405162461bcd60e51b81526004016101989061232f565b90505b92915050565b6000633b9aca0082810290839082041460405180604001604052806002815260200161068760f31b815250906111e65760405162461bcd60e51b815260040161019891906122ee565b5090505b919050565b604080518082019091526002815261035360f41b6020820152600090826112295760405162461bcd60e51b815260040161019891906122ee565b5060408051808201909152600280825261068760f31b60208301528304906b033b2e3c9fd0803ce80000008219048511156112775760405162461bcd60e51b815260040161019891906122ee565b5082816b033b2e3c9fd0803ce80000008602018161129157fe5b04949350505050565b60008215806112a7575081155b156112b457506000611197565b8161138819816112c057fe5b0483111560405180604001604052806002815260200161068760f31b815250906112fd5760405162461bcd60e51b815260040161019891906122ee565b50506127109102611388010490565b600080808080808b61131c611ed5565b6113258c611a89565b156113485760008060008060001960009750975097509750975097505050611980565b60005b8a8110156118765761135d8d82611a8e565b6113665761186e565b8b600082815260200190815260200160002060009054906101000a90046001600160a01b0316826101c001906001600160a01b031690816001600160a01b03168152505060008e6000846101c001516001600160a01b03166001600160a01b0316815260200190815260200160002090506113e381600001611adf565b506080870181905260c08701929092525060a0850191909152600a0a60208401526101c083015160405163b3596f0760e01b81526001600160a01b038d169163b3596f07916114359190600401612295565b60206040518083038186803b15801561144d57600080fd5b505afa158015611461573d6000803e3d6000fd5b505050506040513d601f19601f820116820180604052508101906114859190612232565b835260c08301511580159061149f575061149f8e83611a1d565b156115b1576004808201546040516370a0823160e01b81526001600160a01b03909116916370a08231916114d591889101612295565b60206040518083038186803b1580156114ed57600080fd5b505afa158015611501573d6000803e3d6000fd5b505050506040513d601f19601f820116820180604052508101906115259190612232565b604084018190526020840151845160009261154a929161154491611b0a565b90611b44565b61010085015190915061155d908261116f565b61010085015260a084015161158390611577908390611b0a565b6101408601519061116f565b61014085015260c08401516115a99061159d908390611b0a565b6101608601519061116f565b610160850152505b6115bb8e83611b86565b156117095760058101546040516370a0823160e01b81526001600160a01b03909116906370a08231906115f2908790600401612295565b60206040518083038186803b15801561160a57600080fd5b505afa15801561161e573d6000803e3d6000fd5b505050506040513d601f19601f820116820180604052508101906116429190612232565b606084015260068101546040516370a0823160e01b81526116d6916001600160a01b0316906370a082319061167b908890600401612295565b60206040518083038186803b15801561169357600080fd5b505afa1580156116a7573d6000803e3d6000fd5b505050506040513d601f19601f820116820180604052508101906116cb9190612232565b60608501519061116f565b6060840181905260208401518451611702926116f6929161154491611b0a565b6101208501519061116f565b6101208401525b602083015160088201546040516370a0823160e01b81526000926117a3929091611544916001600160a01b0316906370a082319061174b908b90600401612295565b60206040518083038186803b15801561176357600080fd5b505afa158015611777573d6000803e3d6000fd5b505050506040513d601f19601f8201168201806040525081019061179b9190612232565b875190611b0a565b6102208501519091506117b6908261116f565b61022085015260408051808201909152601781527f436f6d696e6720746f2047656e65726963204c6f67696300000000000000000060208201526117f990611bd7565b6118316040518060400160405280600e81526020016d637265646974696e65746820257360901b81525061182c83611c1d565b611cf8565b61184b6115778560a0015183611b0a90919063ffffffff16565b61014085015260c08401516118659061159d908390611b0a565b61016085015250505b60010161134b565b50600061189682610220015183610100015161116f90919063ffffffff16565b116118a25760006118ce565b6118ce6118c282610220015183610100015161116f90919063ffffffff16565b61014083015190611b44565b6101408201526102208101516101008201516000916118ed919061116f565b116118f9576000611925565b61192561191982610220015183610100015161116f90919063ffffffff16565b61016083015190611b44565b61016082018190526101008201516101208301516102208401516119499390611d41565b60e0820181905261010082015161012083015161014084015161016085015161022090950151929b50909950975091955093509150505b96509650965096509650969050565b604080518082019091526002815261035360f41b6020820152600090826119c95760405162461bcd60e51b815260040161019891906122ee565b5060408051808201909152600280825261068760f31b6020830152830490612710821904851115611a0d5760405162461bcd60e51b815260040161019891906122ee565b5082816127108602018161129157fe5b60006055821060405180604001604052806002815260200161373760f01b81525090611a5c5760405162461bcd60e51b815260040161019891906122ee565b5050815160016003830281019190911c16151592915050565b5461ffff1690565b54600160381b16151590565b511590565b60006055821060405180604001604052806002815260200161373760f01b81525090611acd5760405162461bcd60e51b815260040161019891906122ee565b50509051600760039092021c16151590565b5461ffff80821692601083901c821692602081901c831692603082901c60ff169260409290921c1690565b600082611b1957506000611197565b82820282848281611b2657fe5b04146111945760405162461bcd60e51b815260040161019890612366565b600061119483836040518060400160405280601a81526020017f536166654d6174683a206469766973696f6e206279207a65726f000000000000815250611d7a565b60006055821060405180604001604052806002815260200161373760f01b81525090611bc55760405162461bcd60e51b815260040161019891906122ee565b50509051600160039092021c16151590565b611c1a81604051602401611beb91906122ee565b60408051601f198184030181529190526020810180516001600160e01b031663104c13eb60e21b179052611db1565b50565b606081611c4257506040805180820190915260018152600360fc1b60208201526111ea565b8160005b8115611c5a57600101600a82049150611c46565b60608167ffffffffffffffff81118015611c7357600080fd5b506040519080825280601f01601f191660200182016040528015611c9e576020820181803683370190505b50859350905060001982015b8315611cef57600a840660300160f81b82828060019003935081518110611ccd57fe5b60200101906001600160f81b031916908160001a905350600a84049350611caa565b50949350505050565b611d3d8282604051602401611d0e929190612301565b60408051601f198184030181529190526020810180516001600160e01b0316634b5c427760e01b179052611db1565b5050565b600083611d515750600019611d72565b611d6f84611d6985611d63898761116f565b9061129a565b90611dd2565b90505b949350505050565b60008183611d9b5760405162461bcd60e51b815260040161019891906122ee565b506000838581611da757fe5b0495945050505050565b80516a636f6e736f6c652e6c6f67602083016000808483855afa5050505050565b604080518082019091526002815261035360f41b602082015260009082611e0c5760405162461bcd60e51b815260040161019891906122ee565b5060408051808201909152600280825261068760f31b6020830152830490670de0b6b3a7640000821904851115611e565760405162461bcd60e51b815260040161019891906122ee565b508281670de0b6b3a76400008602018161129157fe5b60405180610180016040528060008152602001600081526020016000815260200160008152602001600081526020016000815260200160008152602001600081526020016000151581526020016000151581526020016000151581526020016000151581525090565b6040518061024001604052806000815260200160008152602001600081526020016000815260200160008152602001600081526020016000815260200160008152602001600081526020016000815260200160008152602001600081526020016000815260200160001515815260200160006001600160a01b03168152602001600015158152602001600015158152602001600081525090565b6000806000806000806000806000806000806101808d8f031215611f91578788fd5b8c35611f9c816123b0565b9b5060208d01359a5060408d0135611fb3816123b0565b995060608d0135985060808d0135975060a08d0135965060c08d0135955060e08d013594506101008d013593506101208d013592506101408d013591506101608d0135611fff816123b0565b809150509295989b509295989b509295989b565b600080600080600080600080610100898b03121561202f578384fd5b883561203a816123b0565b97506020890135965060408901359550606089013594506080890135935060a0890135925060c0890135915060e0890135612074816123b0565b809150509295985092959890939650565b600060208284031215612096578081fd5b8151611194816123c5565b600080600080600080600080610100898b0312156120bd578384fd5b8835975060208901356120cf816123b0565b965060408901356120df816123c5565b9550606089013594506080890135935060a0890135925060c0890135915060e0890135612074816123b0565b600080600080600060a08688031215612122578081fd5b853594506020860135612134816123b0565b93506040860135612144816123b0565b92506060860135612154816123b0565b91506080860135612164816123b0565b809150509295509295909350565b600080600080600060a08688031215612189578081fd5b85359450602086013593506040860135925060608601359150608086013560038110612164578182fd5b600080604083850312156121c5578182fd5b50508035926020909101359150565b60008060008060008060c087890312156121ec578384fd5b8635955060208701359450604087013560038110612208578485fd5b93506060870135612218816123b0565b9598949750929560808101359460a0909101359350915050565b600060208284031215612243578081fd5b5051919050565b60008151808452815b8181101561226f57602081850181015186830182015201612253565b818111156122805782602083870101525b50601f01601f19169290920160200192915050565b6001600160a01b0391909116815260200190565b6001600160a01b0398891681529688166020880152604087019590955260608601939093529054608085015260a084015260c083015290911660e08201526101000190565b600060208252611194602083018461224a565b600060408252612314604083018561224a565b8281036020840152612326818561224a565b95945050505050565b6020808252601b908201527f536166654d6174683a206164646974696f6e206f766572666c6f770000000000604082015260600190565b60208082526021908201527f536166654d6174683a206d756c7469706c69636174696f6e206f766572666c6f6040820152607760f81b606082015260800190565b90815260200190565b6001600160a01b0381168114611c1a57600080fd5b8015158114611c1a57600080fdfea2646970667358221220b9b54f174f2803c705412ae1fb93e3b2f7527f67ccea7843cee34f2ca0a266f864736f6c634300060c0033",
  "linkReferences": {
    "contracts/protocol/libraries/logic/GenericLogic.sol": {
      "GenericLogic": [
        {
          "length": 20,
          "start": 1565
        },
        {
          "length": 20,
          "start": 3929
        }
      ]
    }
  },
  "deployedLinkReferences": {
    "contracts/protocol/libraries/logic/GenericLogic.sol": {
      "GenericLogic": [
        {
          "length": 20,
          "start": 1527
        },
        {
          "length": 20,
          "start": 3891
        }
      ]
    }
  }
}