{
  "_format": "hh-sol-artifact-1",
  "contractName": "UiIncentiveDataProviderV2",
  "sourceName": "contracts/misc/UiIncentiveDataProviderV2.sol",
  "abi": [
    {
      "inputs": [],
      "stateMutability": "nonpayable",
      "type": "constructor"
    },
    {
      "inputs": [
        {
          "internalType": "contract ILendingPoolAddressesProvider",
          "name": "provider",
          "type": "address"
        },
        {
          "internalType": "address",
          "name": "user",
          "type": "address"
        }
      ],
      "name": "getFullReservesIncentiveData",
      "outputs": [
        {
          "components": [
            {
              "internalType": "address",
              "name": "underlyingAsset",
              "type": "address"
            },
            {
              "components": [
                {
                  "internalType": "uint256",
                  "name": "emissionPerSecond",
                  "type": "uint256"
                },
                {
                  "internalType": "uint256",
                  "name": "incentivesLastUpdateTimestamp",
                  "type": "uint256"
                },
                {
                  "internalType": "uint256",
                  "name": "tokenIncentivesIndex",
                  "type": "uint256"
                },
                {
                  "internalType": "uint256",
                  "name": "emissionEndTimestamp",
                  "type": "uint256"
                },
                {
                  "internalType": "address",
                  "name": "tokenAddress",
                  "type": "address"
                },
                {
                  "internalType": "address",
                  "name": "rewardTokenAddress",
                  "type": "address"
                },
                {
                  "internalType": "address",
                  "name": "incentiveControllerAddress",
                  "type": "address"
                },
                {
                  "internalType": "uint8",
                  "name": "rewardTokenDecimals",
                  "type": "uint8"
                },
                {
                  "internalType": "uint8",
                  "name": "precision",
                  "type": "uint8"
                }
              ],
              "internalType": "struct IUiIncentiveDataProviderV2.IncentiveData",
              "name": "aIncentiveData",
              "type": "tuple"
            },
            {
              "components": [
                {
                  "internalType": "uint256",
                  "name": "emissionPerSecond",
                  "type": "uint256"
                },
                {
                  "internalType": "uint256",
                  "name": "incentivesLastUpdateTimestamp",
                  "type": "uint256"
                },
                {
                  "internalType": "uint256",
                  "name": "tokenIncentivesIndex",
                  "type": "uint256"
                },
                {
                  "internalType": "uint256",
                  "name": "emissionEndTimestamp",
                  "type": "uint256"
                },
                {
                  "internalType": "address",
                  "name": "tokenAddress",
                  "type": "address"
                },
                {
                  "internalType": "address",
                  "name": "rewardTokenAddress",
                  "type": "address"
                },
                {
                  "internalType": "address",
                  "name": "incentiveControllerAddress",
                  "type": "address"
                },
                {
                  "internalType": "uint8",
                  "name": "rewardTokenDecimals",
                  "type": "uint8"
                },
                {
                  "internalType": "uint8",
                  "name": "precision",
                  "type": "uint8"
                }
              ],
              "internalType": "struct IUiIncentiveDataProviderV2.IncentiveData",
              "name": "vIncentiveData",
              "type": "tuple"
            },
            {
              "components": [
                {
                  "internalType": "uint256",
                  "name": "emissionPerSecond",
                  "type": "uint256"
                },
                {
                  "internalType": "uint256",
                  "name": "incentivesLastUpdateTimestamp",
                  "type": "uint256"
                },
                {
                  "internalType": "uint256",
                  "name": "tokenIncentivesIndex",
                  "type": "uint256"
                },
                {
                  "internalType": "uint256",
                  "name": "emissionEndTimestamp",
                  "type": "uint256"
                },
                {
                  "internalType": "address",
                  "name": "tokenAddress",
                  "type": "address"
                },
                {
                  "internalType": "address",
                  "name": "rewardTokenAddress",
                  "type": "address"
                },
                {
                  "internalType": "address",
                  "name": "incentiveControllerAddress",
                  "type": "address"
                },
                {
                  "internalType": "uint8",
                  "name": "rewardTokenDecimals",
                  "type": "uint8"
                },
                {
                  "internalType": "uint8",
                  "name": "precision",
                  "type": "uint8"
                }
              ],
              "internalType": "struct IUiIncentiveDataProviderV2.IncentiveData",
              "name": "sIncentiveData",
              "type": "tuple"
            }
          ],
          "internalType": "struct IUiIncentiveDataProviderV2.AggregatedReserveIncentiveData[]",
          "name": "",
          "type": "tuple[]"
        },
        {
          "components": [
            {
              "internalType": "address",
              "name": "underlyingAsset",
              "type": "address"
            },
            {
              "components": [
                {
                  "internalType": "uint256",
                  "name": "tokenincentivesUserIndex",
                  "type": "uint256"
                },
                {
                  "internalType": "uint256",
                  "name": "userUnclaimedRewards",
                  "type": "uint256"
                },
                {
                  "internalType": "address",
                  "name": "tokenAddress",
                  "type": "address"
                },
                {
                  "internalType": "address",
                  "name": "rewardTokenAddress",
                  "type": "address"
                },
                {
                  "internalType": "address",
                  "name": "incentiveControllerAddress",
                  "type": "address"
                },
                {
                  "internalType": "uint8",
                  "name": "rewardTokenDecimals",
                  "type": "uint8"
                }
              ],
              "internalType": "struct IUiIncentiveDataProviderV2.UserIncentiveData",
              "name": "aTokenIncentivesUserData",
              "type": "tuple"
            },
            {
              "components": [
                {
                  "internalType": "uint256",
                  "name": "tokenincentivesUserIndex",
                  "type": "uint256"
                },
                {
                  "internalType": "uint256",
                  "name": "userUnclaimedRewards",
                  "type": "uint256"
                },
                {
                  "internalType": "address",
                  "name": "tokenAddress",
                  "type": "address"
                },
                {
                  "internalType": "address",
                  "name": "rewardTokenAddress",
                  "type": "address"
                },
                {
                  "internalType": "address",
                  "name": "incentiveControllerAddress",
                  "type": "address"
                },
                {
                  "internalType": "uint8",
                  "name": "rewardTokenDecimals",
                  "type": "uint8"
                }
              ],
              "internalType": "struct IUiIncentiveDataProviderV2.UserIncentiveData",
              "name": "vTokenIncentivesUserData",
              "type": "tuple"
            },
            {
              "components": [
                {
                  "internalType": "uint256",
                  "name": "tokenincentivesUserIndex",
                  "type": "uint256"
                },
                {
                  "internalType": "uint256",
                  "name": "userUnclaimedRewards",
                  "type": "uint256"
                },
                {
                  "internalType": "address",
                  "name": "tokenAddress",
                  "type": "address"
                },
                {
                  "internalType": "address",
                  "name": "rewardTokenAddress",
                  "type": "address"
                },
                {
                  "internalType": "address",
                  "name": "incentiveControllerAddress",
                  "type": "address"
                },
                {
                  "internalType": "uint8",
                  "name": "rewardTokenDecimals",
                  "type": "uint8"
                }
              ],
              "internalType": "struct IUiIncentiveDataProviderV2.UserIncentiveData",
              "name": "sTokenIncentivesUserData",
              "type": "tuple"
            }
          ],
          "internalType": "struct IUiIncentiveDataProviderV2.UserReserveIncentiveData[]",
          "name": "",
          "type": "tuple[]"
        }
      ],
      "stateMutability": "view",
      "type": "function"
    },
    {
      "inputs": [
        {
          "internalType": "contract ILendingPoolAddressesProvider",
          "name": "provider",
          "type": "address"
        }
      ],
      "name": "getReservesIncentivesData",
      "outputs": [
        {
          "components": [
            {
              "internalType": "address",
              "name": "underlyingAsset",
              "type": "address"
            },
            {
              "components": [
                {
                  "internalType": "uint256",
                  "name": "emissionPerSecond",
                  "type": "uint256"
                },
                {
                  "internalType": "uint256",
                  "name": "incentivesLastUpdateTimestamp",
                  "type": "uint256"
                },
                {
                  "internalType": "uint256",
                  "name": "tokenIncentivesIndex",
                  "type": "uint256"
                },
                {
                  "internalType": "uint256",
                  "name": "emissionEndTimestamp",
                  "type": "uint256"
                },
                {
                  "internalType": "address",
                  "name": "tokenAddress",
                  "type": "address"
                },
                {
                  "internalType": "address",
                  "name": "rewardTokenAddress",
                  "type": "address"
                },
                {
                  "internalType": "address",
                  "name": "incentiveControllerAddress",
                  "type": "address"
                },
                {
                  "internalType": "uint8",
                  "name": "rewardTokenDecimals",
                  "type": "uint8"
                },
                {
                  "internalType": "uint8",
                  "name": "precision",
                  "type": "uint8"
                }
              ],
              "internalType": "struct IUiIncentiveDataProviderV2.IncentiveData",
              "name": "aIncentiveData",
              "type": "tuple"
            },
            {
              "components": [
                {
                  "internalType": "uint256",
                  "name": "emissionPerSecond",
                  "type": "uint256"
                },
                {
                  "internalType": "uint256",
                  "name": "incentivesLastUpdateTimestamp",
                  "type": "uint256"
                },
                {
                  "internalType": "uint256",
                  "name": "tokenIncentivesIndex",
                  "type": "uint256"
                },
                {
                  "internalType": "uint256",
                  "name": "emissionEndTimestamp",
                  "type": "uint256"
                },
                {
                  "internalType": "address",
                  "name": "tokenAddress",
                  "type": "address"
                },
                {
                  "internalType": "address",
                  "name": "rewardTokenAddress",
                  "type": "address"
                },
                {
                  "internalType": "address",
                  "name": "incentiveControllerAddress",
                  "type": "address"
                },
                {
                  "internalType": "uint8",
                  "name": "rewardTokenDecimals",
                  "type": "uint8"
                },
                {
                  "internalType": "uint8",
                  "name": "precision",
                  "type": "uint8"
                }
              ],
              "internalType": "struct IUiIncentiveDataProviderV2.IncentiveData",
              "name": "vIncentiveData",
              "type": "tuple"
            },
            {
              "components": [
                {
                  "internalType": "uint256",
                  "name": "emissionPerSecond",
                  "type": "uint256"
                },
                {
                  "internalType": "uint256",
                  "name": "incentivesLastUpdateTimestamp",
                  "type": "uint256"
                },
                {
                  "internalType": "uint256",
                  "name": "tokenIncentivesIndex",
                  "type": "uint256"
                },
                {
                  "internalType": "uint256",
                  "name": "emissionEndTimestamp",
                  "type": "uint256"
                },
                {
                  "internalType": "address",
                  "name": "tokenAddress",
                  "type": "address"
                },
                {
                  "internalType": "address",
                  "name": "rewardTokenAddress",
                  "type": "address"
                },
                {
                  "internalType": "address",
                  "name": "incentiveControllerAddress",
                  "type": "address"
                },
                {
                  "internalType": "uint8",
                  "name": "rewardTokenDecimals",
                  "type": "uint8"
                },
                {
                  "internalType": "uint8",
                  "name": "precision",
                  "type": "uint8"
                }
              ],
              "internalType": "struct IUiIncentiveDataProviderV2.IncentiveData",
              "name": "sIncentiveData",
              "type": "tuple"
            }
          ],
          "internalType": "struct IUiIncentiveDataProviderV2.AggregatedReserveIncentiveData[]",
          "name": "",
          "type": "tuple[]"
        }
      ],
      "stateMutability": "view",
      "type": "function"
    },
    {
      "inputs": [
        {
          "internalType": "contract ILendingPoolAddressesProvider",
          "name": "provider",
          "type": "address"
        },
        {
          "internalType": "address",
          "name": "user",
          "type": "address"
        }
      ],
      "name": "getUserReservesIncentivesData",
      "outputs": [
        {
          "components": [
            {
              "internalType": "address",
              "name": "underlyingAsset",
              "type": "address"
            },
            {
              "components": [
                {
                  "internalType": "uint256",
                  "name": "tokenincentivesUserIndex",
                  "type": "uint256"
                },
                {
                  "internalType": "uint256",
                  "name": "userUnclaimedRewards",
                  "type": "uint256"
                },
                {
                  "internalType": "address",
                  "name": "tokenAddress",
                  "type": "address"
                },
                {
                  "internalType": "address",
                  "name": "rewardTokenAddress",
                  "type": "address"
                },
                {
                  "internalType": "address",
                  "name": "incentiveControllerAddress",
                  "type": "address"
                },
                {
                  "internalType": "uint8",
                  "name": "rewardTokenDecimals",
                  "type": "uint8"
                }
              ],
              "internalType": "struct IUiIncentiveDataProviderV2.UserIncentiveData",
              "name": "aTokenIncentivesUserData",
              "type": "tuple"
            },
            {
              "components": [
                {
                  "internalType": "uint256",
                  "name": "tokenincentivesUserIndex",
                  "type": "uint256"
                },
                {
                  "internalType": "uint256",
                  "name": "userUnclaimedRewards",
                  "type": "uint256"
                },
                {
                  "internalType": "address",
                  "name": "tokenAddress",
                  "type": "address"
                },
                {
                  "internalType": "address",
                  "name": "rewardTokenAddress",
                  "type": "address"
                },
                {
                  "internalType": "address",
                  "name": "incentiveControllerAddress",
                  "type": "address"
                },
                {
                  "internalType": "uint8",
                  "name": "rewardTokenDecimals",
                  "type": "uint8"
                }
              ],
              "internalType": "struct IUiIncentiveDataProviderV2.UserIncentiveData",
              "name": "vTokenIncentivesUserData",
              "type": "tuple"
            },
            {
              "components": [
                {
                  "internalType": "uint256",
                  "name": "tokenincentivesUserIndex",
                  "type": "uint256"
                },
                {
                  "internalType": "uint256",
                  "name": "userUnclaimedRewards",
                  "type": "uint256"
                },
                {
                  "internalType": "address",
                  "name": "tokenAddress",
                  "type": "address"
                },
                {
                  "internalType": "address",
                  "name": "rewardTokenAddress",
                  "type": "address"
                },
                {
                  "internalType": "address",
                  "name": "incentiveControllerAddress",
                  "type": "address"
                },
                {
                  "internalType": "uint8",
                  "name": "rewardTokenDecimals",
                  "type": "uint8"
                }
              ],
              "internalType": "struct IUiIncentiveDataProviderV2.UserIncentiveData",
              "name": "sTokenIncentivesUserData",
              "type": "tuple"
            }
          ],
          "internalType": "struct IUiIncentiveDataProviderV2.UserReserveIncentiveData[]",
          "name": "",
          "type": "tuple[]"
        }
      ],
      "stateMutability": "view",
      "type": "function"
    }
  ],
  "bytecode": "0x608060405234801561001057600080fd5b506127f5806100206000396000f3fe608060405234801561001057600080fd5b50600436106100415760003560e01c80634763753614610046578063799bdcf514610070578063976fafc514610090575b600080fd5b61005961005436600461233b565b6100b0565b60405161006792919061272a565b60405180910390f35b61008361007e36600461233b565b6100d1565b6040516100679190612758565b6100a361009e36600461231f565b6100e6565b6040516100679190612717565b6060806100bc846100ed565b6100c6858561151f565b915091509250929050565b60606100dd838361151f565b90505b92915050565b60606100e0825b60606000826001600160a01b0316630261bf8b6040518163ffffffff1660e01b815260040160206040518083038186803b15801561012a57600080fd5b505afa15801561013e573d6000803e3d6000fd5b505050506040513d601f19601f820116820180604052508101906101629190612251565b90506060816001600160a01b031663d1946dbc6040518163ffffffff1660e01b815260040160006040518083038186803b15801561019f57600080fd5b505afa1580156101b3573d6000803e3d6000fd5b505050506040513d6000823e601f3d908101601f191682016040526101db9190810190612274565b90506060815167ffffffffffffffff811180156101f757600080fd5b5060405190808252806020026020018201604052801561023157816020015b61021e612062565b8152602001906001900390816102165790505b50905060005b825181101561151657610248612062565b82828151811061025457fe5b6020026020010151905083828151811061026a57fe5b60209081029190910101516001600160a01b031681526102886120a4565b856001600160a01b03166335ea6a758685815181106102a357fe5b60200260200101516040518263ffffffff1660e01b81526004016102c791906126e9565b6101a06040518083038186803b1580156102e057600080fd5b505afa1580156102f4573d6000803e3d6000fd5b505050506040513d601f19601f820116820180604052508101906103189190612373565b90508060e001516001600160a01b03166375d264136040518163ffffffff1660e01b815260040160206040518083038186803b15801561035757600080fd5b505afa925050508015610387575060408051601f3d908101601f1916820190925261038491810190612251565b60015b6103c1573d8080156103b5576040519150601f19603f3d011682016040523d82523d6000602084013e6103ba565b606091505b5050610912565b6001600160a01b03811615610910576000816001600160a01b03166399248ea76040518163ffffffff1660e01b815260040160206040518083038186803b15801561040b57600080fd5b505afa15801561041f573d6000803e3d6000fd5b505050506040513d601f19601f820116820180604052508101906104439190612251565b60e0840151604051631652e7b760e01b81529192506001600160a01b03841691631652e7b791610475916004016126e9565b60606040518083038186803b15801561048d57600080fd5b505afa9250505080156104bd575060408051601f3d908101601f191682019092526104ba918101906124db565b60015b610751573d8080156104eb576040519150601f19603f3d011682016040523d82523d6000602084013e6104f0565b606091505b506000806000856001600160a01b031663f11b81888860e001516040518263ffffffff1660e01b815260040161052691906126e9565b60606040518083038186803b15801561053e57600080fd5b505afa158015610552573d6000803e3d6000fd5b505050506040513d601f19601f820116820180604052508101906105769190612481565b92506001600160801b031692506001600160801b03169250604051806101200160405280848152602001838152602001828152602001876001600160a01b031663919cd40f6040518163ffffffff1660e01b815260040160206040518083038186803b1580156105e557600080fd5b505afa1580156105f9573d6000803e3d6000fd5b505050506040513d601f19601f8201168201806040525081019061061d91906124c3565b81526020018860e001516001600160a01b03168152602001866001600160a01b03168152602001876001600160a01b03168152602001866001600160a01b031663313ce5676040518163ffffffff1660e01b815260040160206040518083038186803b15801561068c57600080fd5b505afa1580156106a0573d6000803e3d6000fd5b505050506040513d601f19601f820116820180604052508101906106c49190612508565b60ff168152602001876001600160a01b031663aaf5eb686040518163ffffffff1660e01b815260040160206040518083038186803b15801561070557600080fd5b505afa158015610719573d6000803e3d6000fd5b505050506040513d601f19601f8201168201806040525081019061073d9190612508565b60ff16905260208901525061090e92505050565b604051806101200160405280838152602001828152602001848152602001866001600160a01b031663919cd40f6040518163ffffffff1660e01b815260040160206040518083038186803b1580156107a857600080fd5b505afa1580156107bc573d6000803e3d6000fd5b505050506040513d601f19601f820116820180604052508101906107e091906124c3565b81526020018760e001516001600160a01b03168152602001856001600160a01b03168152602001866001600160a01b03168152602001856001600160a01b031663313ce5676040518163ffffffff1660e01b815260040160206040518083038186803b15801561084f57600080fd5b505afa158015610863573d6000803e3d6000fd5b505050506040513d601f19601f820116820180604052508101906108879190612508565b60ff168152602001866001600160a01b031663aaf5eb686040518163ffffffff1660e01b815260040160206040518083038186803b1580156108c857600080fd5b505afa1580156108dc573d6000803e3d6000fd5b505050506040513d601f19601f820116820180604052508101906109009190612508565b60ff16905260208801525050505b505b505b8061010001516001600160a01b03166375d264136040518163ffffffff1660e01b815260040160206040518083038186803b15801561095057600080fd5b505afa925050508015610980575060408051601f3d908101601f1916820190925261097d91810190612251565b60015b6109ba573d8080156109ae576040519150601f19603f3d011682016040523d82523d6000602084013e6109b3565b606091505b5050610f0f565b6001600160a01b03811615610f0d576000816001600160a01b03166399248ea76040518163ffffffff1660e01b815260040160206040518083038186803b158015610a0457600080fd5b505afa158015610a18573d6000803e3d6000fd5b505050506040513d601f19601f82011682018060405250810190610a3c9190612251565b610100840151604051631652e7b760e01b81529192506001600160a01b03841691631652e7b791610a6f916004016126e9565b60606040518083038186803b158015610a8757600080fd5b505afa925050508015610ab7575060408051601f3d908101601f19168201909252610ab4918101906124db565b60015b610d4d573d808015610ae5576040519150601f19603f3d011682016040523d82523d6000602084013e610aea565b606091505b506000806000856001600160a01b031663f11b81888861010001516040518263ffffffff1660e01b8152600401610b2191906126e9565b60606040518083038186803b158015610b3957600080fd5b505afa158015610b4d573d6000803e3d6000fd5b505050506040513d601f19601f82011682018060405250810190610b719190612481565b92506001600160801b031692506001600160801b03169250604051806101200160405280848152602001838152602001828152602001876001600160a01b031663919cd40f6040518163ffffffff1660e01b815260040160206040518083038186803b158015610be057600080fd5b505afa158015610bf4573d6000803e3d6000fd5b505050506040513d601f19601f82011682018060405250810190610c1891906124c3565b81526020018861010001516001600160a01b03168152602001866001600160a01b03168152602001876001600160a01b03168152602001866001600160a01b031663313ce5676040518163ffffffff1660e01b815260040160206040518083038186803b158015610c8857600080fd5b505afa158015610c9c573d6000803e3d6000fd5b505050506040513d601f19601f82011682018060405250810190610cc09190612508565b60ff168152602001876001600160a01b031663aaf5eb686040518163ffffffff1660e01b815260040160206040518083038186803b158015610d0157600080fd5b505afa158015610d15573d6000803e3d6000fd5b505050506040513d601f19601f82011682018060405250810190610d399190612508565b60ff169052606089015250610f0b92505050565b604051806101200160405280838152602001828152602001848152602001866001600160a01b031663919cd40f6040518163ffffffff1660e01b815260040160206040518083038186803b158015610da457600080fd5b505afa158015610db8573d6000803e3d6000fd5b505050506040513d601f19601f82011682018060405250810190610ddc91906124c3565b81526020018761010001516001600160a01b03168152602001856001600160a01b03168152602001866001600160a01b03168152602001856001600160a01b031663313ce5676040518163ffffffff1660e01b815260040160206040518083038186803b158015610e4c57600080fd5b505afa158015610e60573d6000803e3d6000fd5b505050506040513d601f19601f82011682018060405250810190610e849190612508565b60ff168152602001866001600160a01b031663aaf5eb686040518163ffffffff1660e01b815260040160206040518083038186803b158015610ec557600080fd5b505afa158015610ed9573d6000803e3d6000fd5b505050506040513d601f19601f82011682018060405250810190610efd9190612508565b60ff16905260608801525050505b505b505b8061012001516001600160a01b03166375d264136040518163ffffffff1660e01b815260040160206040518083038186803b158015610f4d57600080fd5b505afa925050508015610f7d575060408051601f3d908101601f19168201909252610f7a91810190612251565b60015b610fb7573d808015610fab576040519150601f19603f3d011682016040523d82523d6000602084013e610fb0565b606091505b505061150c565b6001600160a01b0381161561150a576000816001600160a01b03166399248ea76040518163ffffffff1660e01b815260040160206040518083038186803b15801561100157600080fd5b505afa158015611015573d6000803e3d6000fd5b505050506040513d601f19601f820116820180604052508101906110399190612251565b610120840151604051631652e7b760e01b81529192506001600160a01b03841691631652e7b79161106c916004016126e9565b60606040518083038186803b15801561108457600080fd5b505afa9250505080156110b4575060408051601f3d908101601f191682019092526110b1918101906124db565b60015b61134a573d8080156110e2576040519150601f19603f3d011682016040523d82523d6000602084013e6110e7565b606091505b506000806000856001600160a01b031663f11b81888861012001516040518263ffffffff1660e01b815260040161111e91906126e9565b60606040518083038186803b15801561113657600080fd5b505afa15801561114a573d6000803e3d6000fd5b505050506040513d601f19601f8201168201806040525081019061116e9190612481565b92506001600160801b031692506001600160801b03169250604051806101200160405280848152602001838152602001828152602001876001600160a01b031663919cd40f6040518163ffffffff1660e01b815260040160206040518083038186803b1580156111dd57600080fd5b505afa1580156111f1573d6000803e3d6000fd5b505050506040513d601f19601f8201168201806040525081019061121591906124c3565b81526020018861012001516001600160a01b03168152602001866001600160a01b03168152602001876001600160a01b03168152602001866001600160a01b031663313ce5676040518163ffffffff1660e01b815260040160206040518083038186803b15801561128557600080fd5b505afa158015611299573d6000803e3d6000fd5b505050506040513d601f19601f820116820180604052508101906112bd9190612508565b60ff168152602001876001600160a01b031663aaf5eb686040518163ffffffff1660e01b815260040160206040518083038186803b1580156112fe57600080fd5b505afa158015611312573d6000803e3d6000fd5b505050506040513d601f19601f820116820180604052508101906113369190612508565b60ff16905260408901525061150892505050565b604051806101200160405280838152602001828152602001848152602001866001600160a01b031663919cd40f6040518163ffffffff1660e01b815260040160206040518083038186803b1580156113a157600080fd5b505afa1580156113b5573d6000803e3d6000fd5b505050506040513d601f19601f820116820180604052508101906113d991906124c3565b81526020018761012001516001600160a01b03168152602001856001600160a01b03168152602001866001600160a01b03168152602001856001600160a01b031663313ce5676040518163ffffffff1660e01b815260040160206040518083038186803b15801561144957600080fd5b505afa15801561145d573d6000803e3d6000fd5b505050506040513d601f19601f820116820180604052508101906114819190612508565b60ff168152602001866001600160a01b031663aaf5eb686040518163ffffffff1660e01b815260040160206040518083038186803b1580156114c257600080fd5b505afa1580156114d6573d6000803e3d6000fd5b505050506040513d601f19601f820116820180604052508101906114fa9190612508565b60ff16905260408801525050505b505b505b5050600101610237565b50949350505050565b60606000836001600160a01b0316630261bf8b6040518163ffffffff1660e01b815260040160206040518083038186803b15801561155c57600080fd5b505afa158015611570573d6000803e3d6000fd5b505050506040513d601f19601f820116820180604052508101906115949190612251565b90506060816001600160a01b031663d1946dbc6040518163ffffffff1660e01b815260040160006040518083038186803b1580156115d157600080fd5b505afa1580156115e5573d6000803e3d6000fd5b505050506040513d6000823e601f3d908101601f1916820160405261160d9190810190612274565b905060606001600160a01b038516611626576000611629565b81515b67ffffffffffffffff8111801561163f57600080fd5b5060405190808252806020026020018201604052801561167957816020015b611666612117565b81526020019060019003908161165e5790505b50905060005b8251811015612058576116906120a4565b846001600160a01b03166335ea6a758584815181106116ab57fe5b60200260200101516040518263ffffffff1660e01b81526004016116cf91906126e9565b6101a06040518083038186803b1580156116e857600080fd5b505afa1580156116fc573d6000803e3d6000fd5b505050506040513d601f19601f820116820180604052508101906117209190612373565b905083828151811061172e57fe5b602002602001015183838151811061174257fe5b60209081029190910101516001600160a01b039091169052611762612150565b8160e001516001600160a01b03166375d264136040518163ffffffff1660e01b815260040160206040518083038186803b15801561179f57600080fd5b505afa9250505080156117cf575060408051601f3d908101601f191682019092526117cc91810190612251565b60015b611809573d8080156117fd576040519150601f19603f3d011682016040523d82523d6000602084013e611802565b606091505b5050611a36565b6001600160a01b03811615611a34576000816001600160a01b03166399248ea76040518163ffffffff1660e01b815260040160206040518083038186803b15801561185357600080fd5b505afa158015611867573d6000803e3d6000fd5b505050506040513d601f19601f8201168201806040525081019061188b9190612251565b60e0850151604051630cdcfb9360e21b81529192506001600160a01b03841691633373ee4c916118c0918e91906004016126fd565b60206040518083038186803b1580156118d857600080fd5b505afa1580156118ec573d6000803e3d6000fd5b505050506040513d601f19601f8201168201806040525081019061191091906124c3565b8352604051630cc7d40f60e11b81526001600160a01b0383169063198fa81e9061193e908d906004016126e9565b60206040518083038186803b15801561195657600080fd5b505afa15801561196a573d6000803e3d6000fd5b505050506040513d601f19601f8201168201806040525081019061198e91906124c3565b60208085019190915260e08501516001600160a01b03908116604080870191909152838216606087018190529185166080870152805163313ce56760e01b81529051919263313ce56792600480840193829003018186803b1580156119f257600080fd5b505afa158015611a06573d6000803e3d6000fd5b505050506040513d601f19601f82011682018060405250810190611a2a9190612508565b60ff1660a0840152505b505b80848481518110611a4357fe5b602002602001015160200181905250611a5a612150565b8261012001516001600160a01b03166375d264136040518163ffffffff1660e01b815260040160206040518083038186803b158015611a9857600080fd5b505afa925050508015611ac8575060408051601f3d908101601f19168201909252611ac591810190612251565b60015b611b02573d808015611af6576040519150601f19603f3d011682016040523d82523d6000602084013e611afb565b606091505b5050611d31565b6001600160a01b03811615611d2f576000816001600160a01b03166399248ea76040518163ffffffff1660e01b815260040160206040518083038186803b158015611b4c57600080fd5b505afa158015611b60573d6000803e3d6000fd5b505050506040513d601f19601f82011682018060405250810190611b849190612251565b610120860151604051630cdcfb9360e21b81529192506001600160a01b03841691633373ee4c91611bba918f91906004016126fd565b60206040518083038186803b158015611bd257600080fd5b505afa158015611be6573d6000803e3d6000fd5b505050506040513d601f19601f82011682018060405250810190611c0a91906124c3565b8352604051630cc7d40f60e11b81526001600160a01b0383169063198fa81e90611c38908e906004016126e9565b60206040518083038186803b158015611c5057600080fd5b505afa158015611c64573d6000803e3d6000fd5b505050506040513d601f19601f82011682018060405250810190611c8891906124c3565b6020808501919091526101208601516001600160a01b03908116604080870191909152838216606087018190529185166080870152805163313ce56760e01b81529051919263313ce56792600480840193829003018186803b158015611ced57600080fd5b505afa158015611d01573d6000803e3d6000fd5b505050506040513d601f19601f82011682018060405250810190611d259190612508565b60ff1660a0840152505b505b80858581518110611d3e57fe5b602002602001015160400181905250611d55612150565b8361010001516001600160a01b03166375d264136040518163ffffffff1660e01b815260040160206040518083038186803b158015611d9357600080fd5b505afa925050508015611dc3575060408051601f3d908101601f19168201909252611dc091810190612251565b60015b611dfd573d808015611df1576040519150601f19603f3d011682016040523d82523d6000602084013e611df6565b606091505b505061202b565b6001600160a01b03811615612029576000816001600160a01b03166399248ea76040518163ffffffff1660e01b815260040160206040518083038186803b158015611e4757600080fd5b505afa158015611e5b573d6000803e3d6000fd5b505050506040513d601f19601f82011682018060405250810190611e7f9190612251565b9050816001600160a01b0316633373ee4c8d8861010001516040518363ffffffff1660e01b8152600401611eb49291906126fd565b60206040518083038186803b158015611ecc57600080fd5b505afa158015611ee0573d6000803e3d6000fd5b505050506040513d601f19601f82011682018060405250810190611f0491906124c3565b8352604051630cc7d40f60e11b81526001600160a01b0383169063198fa81e90611f32908f906004016126e9565b60206040518083038186803b158015611f4a57600080fd5b505afa158015611f5e573d6000803e3d6000fd5b505050506040513d601f19601f82011682018060405250810190611f8291906124c3565b6020808501919091526101008701516001600160a01b03908116604080870191909152838216606087018190529185166080870152805163313ce56760e01b81529051919263313ce56792600480840193829003018186803b158015611fe757600080fd5b505afa158015611ffb573d6000803e3d6000fd5b505050506040513d601f19601f8201168201806040525081019061201f9190612508565b60ff1660a0840152505b505b8086868151811061203857fe5b60200260200101516060018190525050505050808060010191505061167f565b5095945050505050565b604051806080016040528060006001600160a01b03168152602001612085612185565b8152602001612092612185565b815260200161209f612185565b905290565b604051806101a001604052806120b86121d1565b815260006020820181905260408201819052606082018190526080820181905260a0820181905260c0820181905260e0820181905261010082018190526101208201819052610140820181905261016082018190526101809091015290565b604051806080016040528060006001600160a01b0316815260200161213a612150565b8152602001612147612150565b815260200161209f5b6040805160c081018252600080825260208201819052918101829052606081018290526080810182905260a081019190915290565b6040805161012081018252600080825260208201819052918101829052606081018290526080810182905260a0810182905260c0810182905260e0810182905261010081019190915290565b6040518060200160405280600081525090565b80516100e081612792565b600060208284031215612200578081fd5b61220a602061276b565b9151825250919050565b80516001600160801b03811681146100e057600080fd5b805164ffffffffff811681146100e057600080fd5b805160ff811681146100e057600080fd5b600060208284031215612262578081fd5b815161226d81612792565b9392505050565b60006020808385031215612286578182fd5b825167ffffffffffffffff8082111561229d578384fd5b818501915085601f8301126122b0578384fd5b8151818111156122be578485fd5b83810291506122ce84830161276b565b8181528481019084860184860187018a10156122e8578788fd5b8795505b83861015612312576122fe8a826121e4565b8352600195909501949186019186016122ec565b5098975050505050505050565b600060208284031215612330578081fd5b813561226d81612792565b6000806040838503121561234d578081fd5b823561235881612792565b9150602083013561236881612792565b809150509250929050565b60006101a0808385031215612386578182fd5b61238f8161276b565b905061239b84846121ef565b81526123aa8460208501612214565b60208201526123bc8460408501612214565b60408201526123ce8460608501612214565b60608201526123e08460808501612214565b60808201526123f28460a08501612214565b60a08201526124048460c0850161222b565b60c08201526124168460e085016121e4565b60e082015261010061242a858286016121e4565b9082015261012061243d858583016121e4565b90820152610140612450858583016121e4565b90820152610160612463858583016121e4565b9082015261018061247685858301612240565b908201529392505050565b600080600060608486031215612495578081fd5b83516124a0816127aa565b60208501519093506124b1816127aa565b80925050604084015190509250925092565b6000602082840312156124d4578081fd5b5051919050565b6000806000606084860312156124ef578283fd5b8351925060208401519150604084015190509250925092565b600060208284031215612519578081fd5b6100dd8383612240565b6000815180845260208085019450808401835b8381101561259957815180516001600160a01b031688528381015161255d858a0182612619565b5060408101516125716101408a0182612619565b5060600151612584610260890182612619565b50610380969096019590820190600101612536565b509495945050505050565b6000815180845260208085019450808401835b8381101561259957815180516001600160a01b03168852838101516125de858a0182612695565b5060408101516125f160e08a0182612695565b50606001516126046101a0890182612695565b506102609690960195908201906001016125b7565b80518252602081015160208301526040810151604083015260608101516060830152608081015160018060a01b0380821660808501528060a08401511660a08501528060c08401511660c0850152505060e081015161267b60e08401826126e2565b506101008082015161268f828501826126e2565b50505050565b8051825260208101516020830152604081015160018060a01b038082166040850152806060840151166060850152806080840151166080850152505060ff60a08201511660a08301525050565b60ff169052565b6001600160a01b0391909116815260200190565b6001600160a01b0392831681529116602082015260400190565b6000602082526100dd6020830184612523565b60006040825261273d6040830185612523565b828103602084015261274f81856125a4565b95945050505050565b6000602082526100dd60208301846125a4565b60405181810167ffffffffffffffff8111828210171561278a57600080fd5b604052919050565b6001600160a01b03811681146127a757600080fd5b50565b6001600160801b03811681146127a757600080fdfea264697066735822122078421f4c3535cd3dfe9a8cf747b2ae57835ac8da324b8abda392bf81090876d564736f6c634300060c0033",
  "linkReferences": {},
  "deployedLinkReferences": {}
}