{
  "_format": "hh-sol-artifact-1",
  "contractName": "UiPoolDataProviderV2V3",
  "sourceName": "contracts/misc/UiPoolDataProviderV2V3.sol",
  "abi": [
    {
      "inputs": [
        {
          "internalType": "contract IChainlinkAggregator",
          "name": "_networkBaseTokenPriceInUsdProxyAggregator",
          "type": "address"
        },
        {
          "internalType": "contract IChainlinkAggregator",
          "name": "_marketReferenceCurrencyPriceInUsdProxyAggregator",
          "type": "address"
        }
      ],
      "stateMutability": "nonpayable",
      "type": "constructor"
    },
    {
      "inputs": [],
      "name": "ETH_CURRENCY_UNIT",
      "outputs": [
        {
          "internalType": "uint256",
          "name": "",
          "type": "uint256"
        }
      ],
      "stateMutability": "view",
      "type": "function"
    },
    {
      "inputs": [],
      "name": "MKRAddress",
      "outputs": [
        {
          "internalType": "address",
          "name": "",
          "type": "address"
        }
      ],
      "stateMutability": "view",
      "type": "function"
    },
    {
      "inputs": [
        {
          "internalType": "bytes32",
          "name": "_bytes32",
          "type": "bytes32"
        }
      ],
      "name": "bytes32ToString",
      "outputs": [
        {
          "internalType": "string",
          "name": "",
          "type": "string"
        }
      ],
      "stateMutability": "pure",
      "type": "function"
    },
    {
      "inputs": [
        {
          "internalType": "contract ILendingPoolAddressesProvider",
          "name": "provider",
          "type": "address"
        }
      ],
      "name": "getReservesData",
      "outputs": [
        {
          "components": [
            {
              "internalType": "address",
              "name": "underlyingAsset",
              "type": "address"
            },
            {
              "internalType": "string",
              "name": "name",
              "type": "string"
            },
            {
              "internalType": "string",
              "name": "symbol",
              "type": "string"
            },
            {
              "internalType": "uint256",
              "name": "decimals",
              "type": "uint256"
            },
            {
              "internalType": "uint256",
              "name": "baseLTVasCollateral",
              "type": "uint256"
            },
            {
              "internalType": "uint256",
              "name": "reserveLiquidationThreshold",
              "type": "uint256"
            },
            {
              "internalType": "uint256",
              "name": "reserveLiquidationBonus",
              "type": "uint256"
            },
            {
              "internalType": "uint256",
              "name": "reserveFactor",
              "type": "uint256"
            },
            {
              "internalType": "bool",
              "name": "usageAsCollateralEnabled",
              "type": "bool"
            },
            {
              "internalType": "bool",
              "name": "borrowingEnabled",
              "type": "bool"
            },
            {
              "internalType": "bool",
              "name": "stableBorrowRateEnabled",
              "type": "bool"
            },
            {
              "internalType": "bool",
              "name": "isActive",
              "type": "bool"
            },
            {
              "internalType": "bool",
              "name": "isFrozen",
              "type": "bool"
            },
            {
              "internalType": "uint128",
              "name": "liquidityIndex",
              "type": "uint128"
            },
            {
              "internalType": "uint128",
              "name": "variableBorrowIndex",
              "type": "uint128"
            },
            {
              "internalType": "uint128",
              "name": "liquidityRate",
              "type": "uint128"
            },
            {
              "internalType": "uint128",
              "name": "variableBorrowRate",
              "type": "uint128"
            },
            {
              "internalType": "uint128",
              "name": "stableBorrowRate",
              "type": "uint128"
            },
            {
              "internalType": "uint40",
              "name": "lastUpdateTimestamp",
              "type": "uint40"
            },
            {
              "internalType": "address",
              "name": "aTokenAddress",
              "type": "address"
            },
            {
              "internalType": "address",
              "name": "stableDebtTokenAddress",
              "type": "address"
            },
            {
              "internalType": "address",
              "name": "variableDebtTokenAddress",
              "type": "address"
            },
            {
              "internalType": "address",
              "name": "interestRateStrategyAddress",
              "type": "address"
            },
            {
              "internalType": "uint256",
              "name": "availableLiquidity",
              "type": "uint256"
            },
            {
              "internalType": "uint256",
              "name": "totalPrincipalStableDebt",
              "type": "uint256"
            },
            {
              "internalType": "uint256",
              "name": "averageStableRate",
              "type": "uint256"
            },
            {
              "internalType": "uint256",
              "name": "stableDebtLastUpdateTimestamp",
              "type": "uint256"
            },
            {
              "internalType": "uint256",
              "name": "totalScaledVariableDebt",
              "type": "uint256"
            },
            {
              "internalType": "uint256",
              "name": "priceInMarketReferenceCurrency",
              "type": "uint256"
            },
            {
              "internalType": "uint256",
              "name": "variableRateSlope1",
              "type": "uint256"
            },
            {
              "internalType": "uint256",
              "name": "variableRateSlope2",
              "type": "uint256"
            },
            {
              "internalType": "uint256",
              "name": "stableRateSlope1",
              "type": "uint256"
            },
            {
              "internalType": "uint256",
              "name": "stableRateSlope2",
              "type": "uint256"
            },
            {
              "internalType": "bool",
              "name": "isPaused",
              "type": "bool"
            },
            {
              "internalType": "uint128",
              "name": "accruedToTreasury",
              "type": "uint128"
            },
            {
              "internalType": "uint128",
              "name": "unbacked",
              "type": "uint128"
            },
            {
              "internalType": "uint128",
              "name": "isolationModeTotalDebt",
              "type": "uint128"
            },
            {
              "internalType": "uint256",
              "name": "debtCeiling",
              "type": "uint256"
            },
            {
              "internalType": "uint256",
              "name": "debtCeilingDecimals",
              "type": "uint256"
            },
            {
              "internalType": "uint8",
              "name": "eModeCategoryId",
              "type": "uint8"
            },
            {
              "internalType": "uint256",
              "name": "borrowCap",
              "type": "uint256"
            },
            {
              "internalType": "uint256",
              "name": "supplyCap",
              "type": "uint256"
            },
            {
              "internalType": "uint16",
              "name": "eModeLtv",
              "type": "uint16"
            },
            {
              "internalType": "uint16",
              "name": "eModeLiquidationThreshold",
              "type": "uint16"
            },
            {
              "internalType": "uint16",
              "name": "eModeLiquidationBonus",
              "type": "uint16"
            },
            {
              "internalType": "address",
              "name": "eModePriceSource",
              "type": "address"
            },
            {
              "internalType": "string",
              "name": "eModeLabel",
              "type": "string"
            },
            {
              "internalType": "bool",
              "name": "borrowableInIsolation",
              "type": "bool"
            }
          ],
          "internalType": "struct IUiPoolDataProviderV3.AggregatedReserveData[]",
          "name": "",
          "type": "tuple[]"
        },
        {
          "components": [
            {
              "internalType": "uint256",
              "name": "marketReferenceCurrencyUnit",
              "type": "uint256"
            },
            {
              "internalType": "int256",
              "name": "marketReferenceCurrencyPriceInUsd",
              "type": "int256"
            },
            {
              "internalType": "int256",
              "name": "networkBaseTokenPriceInUsd",
              "type": "int256"
            },
            {
              "internalType": "uint8",
              "name": "networkBaseTokenPriceDecimals",
              "type": "uint8"
            }
          ],
          "internalType": "struct IUiPoolDataProviderV3.BaseCurrencyInfo",
          "name": "",
          "type": "tuple"
        }
      ],
      "stateMutability": "view",
      "type": "function"
    },
    {
      "inputs": [
        {
          "internalType": "contract ILendingPoolAddressesProvider",
          "name": "provider",
          "type": "address"
        }
      ],
      "name": "getReservesList",
      "outputs": [
        {
          "internalType": "address[]",
          "name": "",
          "type": "address[]"
        }
      ],
      "stateMutability": "view",
      "type": "function"
    },
    {
      "inputs": [
        {
          "internalType": "contract ILendingPoolAddressesProvider",
          "name": "provider",
          "type": "address"
        },
        {
          "internalType": "address",
          "name": "user",
          "type": "address"
        }
      ],
      "name": "getUserReservesData",
      "outputs": [
        {
          "components": [
            {
              "internalType": "address",
              "name": "underlyingAsset",
              "type": "address"
            },
            {
              "internalType": "uint256",
              "name": "scaledATokenBalance",
              "type": "uint256"
            },
            {
              "internalType": "bool",
              "name": "usageAsCollateralEnabledOnUser",
              "type": "bool"
            },
            {
              "internalType": "uint256",
              "name": "stableBorrowRate",
              "type": "uint256"
            },
            {
              "internalType": "uint256",
              "name": "scaledVariableDebt",
              "type": "uint256"
            },
            {
              "internalType": "uint256",
              "name": "principalStableDebt",
              "type": "uint256"
            },
            {
              "internalType": "uint256",
              "name": "stableBorrowLastUpdateTimestamp",
              "type": "uint256"
            }
          ],
          "internalType": "struct IUiPoolDataProviderV3.UserReserveData[]",
          "name": "",
          "type": "tuple[]"
        },
        {
          "internalType": "uint8",
          "name": "",
          "type": "uint8"
        }
      ],
      "stateMutability": "view",
      "type": "function"
    },
    {
      "inputs": [],
      "name": "marketReferenceCurrencyPriceInUsdProxyAggregator",
      "outputs": [
        {
          "internalType": "contract IChainlinkAggregator",
          "name": "",
          "type": "address"
        }
      ],
      "stateMutability": "view",
      "type": "function"
    },
    {
      "inputs": [],
      "name": "networkBaseTokenPriceInUsdProxyAggregator",
      "outputs": [
        {
          "internalType": "contract IChainlinkAggregator",
          "name": "",
          "type": "address"
        }
      ],
      "stateMutability": "view",
      "type": "function"
    }
  ],
  "bytecode": "0x60c06040523480156200001157600080fd5b50604051620024bb380380620024bb833981016040819052620000349162000053565b6001600160601b0319606092831b8116608052911b1660a052620000aa565b6000806040838503121562000066578182fd5b8251620000738162000091565b6020840151909250620000868162000091565b809150509250929050565b6001600160a01b0381168114620000a757600080fd5b50565b60805160601c60a05160601c6123d3620000e8600039806109d6528061130152806113bf525080610160528061111852806111b252506123d36000f3fe608060405234801561001057600080fd5b50600436106100885760003560e01c80639201de551161005b5780639201de55146101015780639dd9e2ce14610121578063d22cf68a14610129578063ec489c211461013157610088565b80630496f53a1461008d5780633c1740ed146100ab57806351974cc0146100c0578063586c1442146100e1575b600080fd5b610095610152565b6040516100a29190612312565b60405180910390f35b6100b361015e565b6040516100a2919061216f565b6100d36100ce366004611b64565b610182565b6040516100a2929190612261565b6100f46100ef366004611b48565b6107c3565b6040516100a29190612183565b61011461010f366004611b18565b6108b6565b6040516100a291906122ff565b6100b36109bc565b6100b36109d4565b61014461013f366004611b48565b6109f8565b6040516100a29291906121d0565b670de0b6b3a764000081565b7f000000000000000000000000000000000000000000000000000000000000000081565b6060600080846001600160a01b0316630261bf8b6040518163ffffffff1660e01b815260040160206040518083038186803b1580156101c057600080fd5b505afa1580156101d4573d6000803e3d6000fd5b505050506040513d601f19601f820116820180604052508101906101f89190611a51565b90506060816001600160a01b031663d1946dbc6040518163ffffffff1660e01b815260040160006040518083038186803b15801561023557600080fd5b505afa158015610249573d6000803e3d6000fd5b505050506040513d6000823e601f3d908101601f191682016040526102719190810190611a6d565b905061027b611765565b604051634417a58360e01b81526001600160a01b03841690634417a583906102a790899060040161216f565b60206040518083038186803b1580156102bf57600080fd5b505afa1580156102d3573d6000803e3d6000fd5b505050506040513d601f19601f820116820180604052508101906102f79190611d36565b905060606001600160a01b038716610310576000610313565b82515b67ffffffffffffffff8111801561032957600080fd5b5060405190808252806020026020018201604052801561036357816020015b610350611778565b8152602001906001900390816103485790505b50905060005b83518110156107b45761037a6117c0565b856001600160a01b03166335ea6a7586848151811061039557fe5b60200260200101516040518263ffffffff1660e01b81526004016103b9919061216f565b6101a06040518083038186803b1580156103d257600080fd5b505afa1580156103e6573d6000803e3d6000fd5b505050506040513d601f19601f8201168201806040525081019061040a9190611c28565b905084828151811061041857fe5b602002602001015183838151811061042c57fe5b60209081029190910101516001600160a01b03918216905260e0820151604051630ed1279f60e11b8152911690631da24f3e9061046d908c9060040161216f565b60206040518083038186803b15801561048557600080fd5b505afa158015610499573d6000803e3d6000fd5b505050506040513d601f19601f820116820180604052508101906104bd9190611b30565b8383815181106104c957fe5b60209081029190910181015101526104e18483611472565b8383815181106104ed57fe5b602090810291909101015190151560409091015261050b84836114d4565b156107ab578061012001516001600160a01b0316631da24f3e8a6040518263ffffffff1660e01b8152600401610541919061216f565b60206040518083038186803b15801561055957600080fd5b505afa15801561056d573d6000803e3d6000fd5b505050506040513d601f19601f820116820180604052508101906105919190611b30565b83838151811061059d57fe5b602002602001015160800181815250508061010001516001600160a01b031663c634dfaa8a6040518263ffffffff1660e01b81526004016105de919061216f565b60206040518083038186803b1580156105f657600080fd5b505afa15801561060a573d6000803e3d6000fd5b505050506040513d601f19601f8201168201806040525081019061062e9190611b30565b83838151811061063a57fe5b602002602001015160a001818152505082828151811061065657fe5b602002602001015160a001516000146107ab578061010001516001600160a01b031663e78c9b3b8a6040518263ffffffff1660e01b815260040161069a919061216f565b60206040518083038186803b1580156106b257600080fd5b505afa1580156106c6573d6000803e3d6000fd5b505050506040513d601f19601f820116820180604052508101906106ea9190611b30565b8383815181106106f657fe5b602002602001015160600181815250508061010001516001600160a01b03166379ce6b8c8a6040518263ffffffff1660e01b8152600401610737919061216f565b60206040518083038186803b15801561074f57600080fd5b505afa158015610763573d6000803e3d6000fd5b505050506040513d601f19601f820116820180604052508101906107879190611d91565b64ffffffffff1683838151811061079a57fe5b602002602001015160c00181815250505b50600101610369565b50976000975095505050505050565b60606000826001600160a01b0316630261bf8b6040518163ffffffff1660e01b815260040160206040518083038186803b15801561080057600080fd5b505afa158015610814573d6000803e3d6000fd5b505050506040513d601f19601f820116820180604052508101906108389190611a51565b9050806001600160a01b031663d1946dbc6040518163ffffffff1660e01b815260040160006040518083038186803b15801561087357600080fd5b505afa158015610887573d6000803e3d6000fd5b505050506040513d6000823e601f3d908101601f191682016040526108af9190810190611a6d565b9392505050565b606060005b60208160ff161080156108e95750828160ff16602081106108d857fe5b1a60f81b6001600160f81b03191615155b156108f6576001016108bb565b60608160ff1667ffffffffffffffff8111801561091257600080fd5b506040519080825280601f01601f19166020018201604052801561093d576020820181803683370190505b509050600091505b60208260ff161080156109735750838260ff166020811061096257fe5b1a60f81b6001600160f81b03191615155b156108af57838260ff166020811061098757fe5b1a60f81b818360ff168151811061099a57fe5b60200101906001600160f81b031916908160001a905350600190910190610945565b739f8f72aa9304c8b593d555f12ef6589cc3a579a281565b7f000000000000000000000000000000000000000000000000000000000000000081565b6060610a02611833565b6000836001600160a01b031663fca513a86040518163ffffffff1660e01b815260040160206040518083038186803b158015610a3d57600080fd5b505afa158015610a51573d6000803e3d6000fd5b505050506040513d601f19601f82011682018060405250810190610a759190611a51565b90506000846001600160a01b0316630261bf8b6040518163ffffffff1660e01b815260040160206040518083038186803b158015610ab257600080fd5b505afa158015610ac6573d6000803e3d6000fd5b505050506040513d601f19601f82011682018060405250810190610aea9190611a51565b90506060816001600160a01b031663d1946dbc6040518163ffffffff1660e01b815260040160006040518083038186803b158015610b2757600080fd5b505afa158015610b3b573d6000803e3d6000fd5b505050506040513d6000823e601f3d908101601f19168201604052610b639190810190611a6d565b90506060815167ffffffffffffffff81118015610b7f57600080fd5b50604051908082528060200260200182016040528015610bb957816020015b610ba661185e565b815260200190600190039081610b9e5790505b50905060005b825181101561110d57610bd061185e565b828281518110610bdc57fe5b60200260200101519050838281518110610bf257fe5b60209081029190910101516001600160a01b03168152610c106117c0565b81516040516335ea6a7560e01b81526001600160a01b038816916335ea6a7591610c3d919060040161216f565b6101a06040518083038186803b158015610c5657600080fd5b505afa158015610c6a573d6000803e3d6000fd5b505050506040513d601f19601f82011682018060405250810190610c8e9190611c28565b60208101516001600160801b039081166101a085015260408083015182166101c0860152606083015182166101e08601526080830151821661020086015260a083015190911661022085015260c082015164ffffffffff1661024085015260e08201516001600160a01b03908116610260860152610100830151811661028086015261012083015181166102a086015261014083015181166102c08601528451915163b3596f0760e01b815292935089169163b3596f0791610d529160040161216f565b60206040518083038186803b158015610d6a57600080fd5b505afa158015610d7e573d6000803e3d6000fd5b505050506040513d601f19601f82011682018060405250810190610da29190611b30565b61038083015281516102608301516040516370a0823160e01b81526001600160a01b03909216916370a0823191610ddb9160040161216f565b60206040518083038186803b158015610df357600080fd5b505afa158015610e07573d6000803e3d6000fd5b505050506040513d601f19601f82011682018060405250810190610e2b9190611b30565b826102e00181815250508161028001516001600160a01b031663797743386040518163ffffffff1660e01b815260040160806040518083038186803b158015610e7357600080fd5b505afa158015610e87573d6000803e3d6000fd5b505050506040513d601f19601f82011682018060405250810190610eab9190611d51565b64ffffffffff16610340860152610320850152506103008301526102a08201516040805163b1bf962d60e01b815290516001600160a01b039092169163b1bf962d91600480820192602092909190829003018186803b158015610f0d57600080fd5b505afa158015610f21573d6000803e3d6000fd5b505050506040513d601f19601f82011682018060405250810190610f459190611b30565b61036083015281516001600160a01b0316739f8f72aa9304c8b593d555f12ef6589cc3a579a21415610ffe57600082600001516001600160a01b03166395d89b416040518163ffffffff1660e01b815260040160206040518083038186803b158015610fb057600080fd5b505afa158015610fc4573d6000803e3d6000fd5b505050506040513d601f19601f82011682018060405250810190610fe89190611b30565b9050610ff3816108b6565b60408401525061107d565b81600001516001600160a01b03166395d89b416040518163ffffffff1660e01b815260040160006040518083038186803b15801561103b57600080fd5b505afa15801561104f573d6000803e3d6000fd5b505050506040513d6000823e601f3d908101601f191682016040526110779190810190611b9c565b60408301525b805161108890611525565b60e0870152606086015260c085015260a0840152608083015280516110ac90611550565b1515610140860152151561012085015215156101808401521515610160830152608082015115156101008301526102c08201516110e89061158c565b6104008601526103e08501526103c08401526103a09092019190915250600101610bbf565b50611116611833565b7f00000000000000000000000000000000000000000000000000000000000000006001600160a01b03166350d25bcd6040518163ffffffff1660e01b815260040160206040518083038186803b15801561116f57600080fd5b505afa158015611183573d6000803e3d6000fd5b505050506040513d601f19601f820116820180604052508101906111a79190611b30565b8160400181815250507f00000000000000000000000000000000000000000000000000000000000000006001600160a01b031663313ce5676040518163ffffffff1660e01b815260040160206040518083038186803b15801561120957600080fd5b505afa15801561121d573d6000803e3d6000fd5b505050506040513d601f19601f820116820180604052508101906112419190611dad565b60ff16606082015260408051638c89b64f60e01b815290516001600160a01b03871691638c89b64f916004808301926020929190829003018186803b15801561128957600080fd5b505afa9250505080156112b9575060408051601f3d908101601f191682019092526112b691810190611b30565b60015b61139b573d8080156112e7576040519150601f19603f3d011682016040523d82523d6000602084013e6112ec565b606091505b50670de0b6b3a76400008260000181815250507f00000000000000000000000000000000000000000000000000000000000000006001600160a01b03166350d25bcd6040518163ffffffff1660e01b815260040160206040518083038186803b15801561135857600080fd5b505afa15801561136c573d6000803e3d6000fd5b505050506040513d601f19601f820116820180604052508101906113909190611b30565b602083015250611465565b80670de0b6b3a7640000141561145857670de0b6b3a76400008260000181815250507f00000000000000000000000000000000000000000000000000000000000000006001600160a01b03166350d25bcd6040518163ffffffff1660e01b815260040160206040518083038186803b15801561141657600080fd5b505afa15801561142a573d6000803e3d6000fd5b505050506040513d601f19601f8201168201806040525081019061144e9190611b30565b6020830152611463565b808252602082018190525b505b9095509350505050915091565b60006055821060405180604001604052806002815260200161373760f01b815250906114ba5760405162461bcd60e51b81526004016114b191906122ff565b60405180910390fd5b5050815160016003830281019190911c1615155b92915050565b60006055821060405180604001604052806002815260200161373760f01b815250906115135760405162461bcd60e51b81526004016114b191906122ff565b50509051600160039092021c16151590565b5161ffff80821692601083901c821692602081901c831692603082901c60ff169260409290921c1690565b51670100000000000000811615159167020000000000000082161515916704000000000000008116151591670800000000000000909116151590565b600080600080846001600160a01b0316637b832f586040518163ffffffff1660e01b815260040160206040518083038186803b1580156115cb57600080fd5b505afa1580156115df573d6000803e3d6000fd5b505050506040513d601f19601f820116820180604052508101906116039190611b30565b856001600160a01b03166365614f816040518163ffffffff1660e01b815260040160206040518083038186803b15801561163c57600080fd5b505afa158015611650573d6000803e3d6000fd5b505050506040513d601f19601f820116820180604052508101906116749190611b30565b866001600160a01b0316630bdf953f6040518163ffffffff1660e01b815260040160206040518083038186803b1580156116ad57600080fd5b505afa1580156116c1573d6000803e3d6000fd5b505050506040513d601f19601f820116820180604052508101906116e59190611b30565b876001600160a01b031663ccab01a36040518163ffffffff1660e01b815260040160206040518083038186803b15801561171e57600080fd5b505afa158015611732573d6000803e3d6000fd5b505050506040513d601f19601f820116820180604052508101906117569190611b30565b93509350935093509193509193565b6040518060200160405280600081525090565b6040518060e0016040528060006001600160a01b0316815260200160008152602001600015158152602001600081526020016000815260200160008152602001600081525090565b604051806101a001604052806117d4611765565b815260006020820181905260408201819052606082018190526080820181905260a0820181905260c0820181905260e0820181905261010082018190526101208201819052610140820181905261016082018190526101809091015290565b6040518060800160405280600081526020016000815260200160008152602001600060ff1681525090565b604080516106008101825260008082526060602083018190529282018390528282018190526080820181905260a0820181905260c0820181905260e08201819052610100820181905261012082018190526101408201819052610160820181905261018082018190526101a082018190526101c082018190526101e08201819052610200820181905261022082018190526102408201819052610260820181905261028082018190526102a082018190526102c082018190526102e08201819052610300820181905261032082018190526103408201819052610360820181905261038082018190526103a082018190526103c082018190526103e08201819052610400820181905261042082018190526104408201819052610460820181905261048082018190526104a082018190526104c082018190526104e08201819052610500820181905261052082018190526105408201819052610560820181905261058082018190526105a082018190526105c08201929092526105e081019190915290565b80516114ce81612372565b600060208284031215611a00578081fd5b611a0a602061231b565b9151825250919050565b80516001600160801b03811681146114ce57600080fd5b805164ffffffffff811681146114ce57600080fd5b805160ff811681146114ce57600080fd5b600060208284031215611a62578081fd5b81516108af81612372565b60006020808385031215611a7f578182fd5b825167ffffffffffffffff80821115611a96578384fd5b818501915085601f830112611aa9578384fd5b815181811115611ab7578485fd5b8381029150611ac784830161231b565b8181528481019084860184860187018a1015611ae1578788fd5b8795505b83861015611b0b57611af78a826119e4565b835260019590950194918601918601611ae5565b5098975050505050505050565b600060208284031215611b29578081fd5b5035919050565b600060208284031215611b41578081fd5b5051919050565b600060208284031215611b59578081fd5b81356108af81612372565b60008060408385031215611b76578081fd5b8235611b8181612372565b91506020830135611b9181612372565b809150509250929050565b600060208284031215611bad578081fd5b815167ffffffffffffffff80821115611bc4578283fd5b818401915084601f830112611bd7578283fd5b815181811115611be5578384fd5b611bf8601f8201601f191660200161231b565b9150808252856020828501011115611c0e578384fd5b611c1f816020840160208601612342565b50949350505050565b60006101a0808385031215611c3b578182fd5b611c448161231b565b9050611c5084846119ef565b8152611c5f8460208501611a14565b6020820152611c718460408501611a14565b6040820152611c838460608501611a14565b6060820152611c958460808501611a14565b6080820152611ca78460a08501611a14565b60a0820152611cb98460c08501611a2b565b60c0820152611ccb8460e085016119e4565b60e0820152610100611cdf858286016119e4565b90820152610120611cf2858583016119e4565b90820152610140611d05858583016119e4565b90820152610160611d18858583016119e4565b90820152610180611d2b85858301611a40565b908201529392505050565b600060208284031215611d47578081fd5b6108af83836119ef565b60008060008060808587031215611d66578182fd5b8451935060208501519250604085015191506060850151611d868161238a565b939692955090935050565b600060208284031215611da2578081fd5b81516108af8161238a565b600060208284031215611dbe578081fd5b6108af8383611a40565b6001600160a01b03169052565b15159052565b60008151808452611df3816020860160208601612342565b601f01601f19169290920160200192915050565b6000610600611e17848451611dc8565b6020830151816020860152611e2e82860182611ddb565b91505060408301518482036040860152611e488282611ddb565b915050606083015160608501526080830151608085015260a083015160a085015260c083015160c085015260e083015160e085015261010080840151611e9082870182611dd5565b505061012080840151611ea582870182611dd5565b505061014080840151611eba82870182611dd5565b505061016080840151611ecf82870182611dd5565b505061018080840151611ee482870182611dd5565b50506101a080840151611ef982870182612148565b50506101c080840151611f0e82870182612148565b50506101e080840151611f2382870182612148565b505061020080840151611f3882870182612148565b505061022080840151611f4d82870182612148565b505061024080840151611f628287018261215d565b505061026080840151611f7782870182611dc8565b505061028080840151611f8c82870182611dc8565b50506102a080840151611fa182870182611dc8565b50506102c080840151611fb682870182611dc8565b50506102e08381015190850152610300808401519085015261032080840151908501526103408084015190850152610360808401519085015261038080840151908501526103a080840151908501526103c080840151908501526103e0808401519085015261040080840151908501526104208084015161203982870182611dd5565b50506104408084015161204e82870182612148565b50506104608084015161206382870182612148565b50506104808084015161207882870182612148565b50506104a083810151908501526104c080840151908501526104e0808401516120a382870182612168565b505061050083810151908501526105208084015190850152610540808401516120ce82870182612155565b5050610560808401516120e382870182612155565b5050610580808401516120f882870182612155565b50506105a08084015161210d82870182611dc8565b50506105c080840151858303828701526121278382611ddb565b925050506105e08084015161213e82870182611dd5565b5090949350505050565b6001600160801b03169052565b61ffff169052565b64ffffffffff169052565b60ff169052565b6001600160a01b0391909116815260200190565b6020808252825182820181905260009190848201906040850190845b818110156121c45783516001600160a01b03168352928401929184019160010161219f565b50909695505050505050565b600060a0820160a0835280855180835260c0850191506020925060c0838202860101838801855b838110156122255760bf19888403018552612213838351611e07565b948601949250908501906001016121f7565b5050809450505050835181840152808401516040840152506040830151606083015260608301516122596080840182612168565b509392505050565b6040808252835182820181905260009190606090818501906020808901865b838110156122e6578151612295868251611dc8565b8381015184870152878101516122ad89880182611dd5565b5080870151868801526080808201519087015260a0808201519087015260c0908101519086015260e09094019390820190600101612280565b505082955060ff88168188015250505050509392505050565b6000602082526108af6020830184611ddb565b90815260200190565b60405181810167ffffffffffffffff8111828210171561233a57600080fd5b604052919050565b60005b8381101561235d578181015183820152602001612345565b8381111561236c576000848401525b50505050565b6001600160a01b038116811461238757600080fd5b50565b64ffffffffff8116811461238757600080fdfea2646970667358221220937ee85ad48ae30747a58d094a7c3ab9e04501e5418be5485a8fc7a6e30bdd7964736f6c634300060c0033",
  "linkReferences": {},
  "deployedLinkReferences": {}
}