{
  "_format": "hh-sol-artifact-1",
  "contractName": "LendingPoolCollateralManager",
  "sourceName": "contracts/protocol/lendingpool/LendingPoolCollateralManager.sol",
  "abi": [
    {
      "anonymous": false,
      "inputs": [
        {
          "indexed": true,
          "internalType": "address",
          "name": "collateral",
          "type": "address"
        },
        {
          "indexed": true,
          "internalType": "address",
          "name": "principal",
          "type": "address"
        },
        {
          "indexed": true,
          "internalType": "address",
          "name": "user",
          "type": "address"
        },
        {
          "indexed": false,
          "internalType": "uint256",
          "name": "debtToCover",
          "type": "uint256"
        },
        {
          "indexed": false,
          "internalType": "uint256",
          "name": "liquidatedCollateralAmount",
          "type": "uint256"
        },
        {
          "indexed": false,
          "internalType": "address",
          "name": "liquidator",
          "type": "address"
        },
        {
          "indexed": false,
          "internalType": "bool",
          "name": "receiveAToken",
          "type": "bool"
        }
      ],
      "name": "LiquidationCall",
      "type": "event"
    },
    {
      "anonymous": false,
      "inputs": [
        {
          "indexed": true,
          "internalType": "address",
          "name": "reserve",
          "type": "address"
        },
        {
          "indexed": true,
          "internalType": "address",
          "name": "user",
          "type": "address"
        }
      ],
      "name": "ReserveUsedAsCollateralDisabled",
      "type": "event"
    },
    {
      "anonymous": false,
      "inputs": [
        {
          "indexed": true,
          "internalType": "address",
          "name": "reserve",
          "type": "address"
        },
        {
          "indexed": true,
          "internalType": "address",
          "name": "user",
          "type": "address"
        }
      ],
      "name": "ReserveUsedAsCollateralEnabled",
      "type": "event"
    },
    {
      "inputs": [
        {
          "internalType": "address",
          "name": "collateralAsset",
          "type": "address"
        },
        {
          "internalType": "address",
          "name": "debtAsset",
          "type": "address"
        },
        {
          "internalType": "address",
          "name": "user",
          "type": "address"
        },
        {
          "internalType": "uint256",
          "name": "debtToCover",
          "type": "uint256"
        },
        {
          "internalType": "bool",
          "name": "receiveAToken",
          "type": "bool"
        }
      ],
      "name": "liquidationCall",
      "outputs": [
        {
          "internalType": "uint256",
          "name": "",
          "type": "uint256"
        },
        {
          "internalType": "string",
          "name": "",
          "type": "string"
        }
      ],
      "stateMutability": "nonpayable",
      "type": "function"
    }
  ],
  "bytecode": "0x60806040526000805534801561001457600080fd5b50612e5a806100246000396000f3fe608060405234801561001057600080fd5b506004361061002a5760003560e01c8062a718a91461002f575b600080fd5b610073600480360360a081101561004557600080fd5b506001600160a01b0381358116916020810135821691604082013516906060810135906080013515156100f2565b6040518083815260200180602001828103825283818151815260200191508051906020019080838360005b838110156100b657818101518382015260200161009e565b50505050905090810190601f1680156100e35780820380516001836020036101000a031916815260200191505b50935050505060405180910390f35b6001600160a01b0380861660009081526035602090815260408083208885168452818420948816845260369092528220919260609261012f612bb9565b6040805160208082018352845482526038546034548451631f94a27560e31b815294516101c1958f95603595909460379490936001600160a01b039091169263fca513a8926004808301939192829003018186803b15801561019057600080fd5b505afa1580156101a4573d6000803e3d6000fd5b505050506040513d60208110156101ba57600080fd5b5051610972565b50610140860152506101d992508b9150859050610fe6565b60408301819052602083018290526101408301516101fe9287928792879290916110e9565b6102008301526101e08201819052600090600981111561021a57fe5b600981111561022557fe5b1461024357806101e001518161020001519550955050505050610968565b6004808501546001600160a01b039081166101808401819052604080516370a0823160e01b8152928d169383019390935291516370a0823191602480820192602092909190829003018186803b15801561029c57600080fd5b505afa1580156102b0573d6000803e3d6000fd5b505050506040513d60208110156102c657600080fd5b50518152604081015160208201516102eb91611388916102e591611226565b90611289565b6060820181905288116102fe5787610304565b80606001515b60808201819052815161031f91869186918f918f9190611373565b6101208301819052610100830191909152608082015111156103475761012081015160808201525b866104095760008b6001600160a01b03166370a082318361018001516040518263ffffffff1660e01b815260040180826001600160a01b0316815260200191505060206040518083038186803b1580156103a057600080fd5b505afa1580156103b4573d6000803e3d6000fd5b505050506040513d60208110156103ca57600080fd5b505161010083015190915081101561040757600560405180604001604052806002815260200161343560f01b815250965096505050505050610968565b505b610412836115ec565b80608001518160400151106104b55760068301546080820151600185015460408051637a94c56560e11b81526001600160a01b038e811660048301526024820194909452600160801b9092046001600160801b0316604483015251919092169163f5298aca91606480830192600092919082900301818387803b15801561049857600080fd5b505af11580156104ac573d6000803e3d6000fd5b505050506105d9565b60408101511561054e57600683015460408281015160018601548251637a94c56560e11b81526001600160a01b038e811660048301526024820193909352600160801b9091046001600160801b03166044820152915192169163f5298aca9160648082019260009290919082900301818387803b15801561053557600080fd5b505af1158015610549573d6000803e3d6000fd5b505050505b6005830154604082015160808301516001600160a01b0390921691639dc29fac918c9161057a916116b6565b6040518363ffffffff1660e01b815260040180836001600160a01b0316815260200182815260200192505050600060405180830381600087803b1580156105c057600080fd5b505af11580156105d4573d6000803e3d6000fd5b505050505b600483015460808201516105fc9185918d916001600160a01b03169060006116f8565b8615610778578061018001516001600160a01b03166370a08231336040518263ffffffff1660e01b815260040180826001600160a01b0316815260200191505060206040518083038186803b15801561065457600080fd5b505afa158015610668573d6000803e3d6000fd5b505050506040513d602081101561067e57600080fd5b50516101608201526101808101516101008201516040805163f866c31960e01b81526001600160a01b038d8116600483015233602483015260448201939093529051919092169163f866c31991606480830192600092919082900301818387803b1580156106eb57600080fd5b505af11580156106ff573d6000803e3d6000fd5b505050508061016001516000141561077357336000908152603660205260409020600885015461073c908290600160a01b900460ff166001611b2b565b60405133906001600160a01b038e16907e058a56ea94653cdf4f152d227ace22d4c00ad99e2a43f58cb7d9e3feb295f290600090a3505b610830565b610781846115ec565b61018081015161010082015161079e9186918e91906000906116f8565b610180810151610100820151600186015460408051636b81068560e11b81526001600160a01b038e8116600483015233602483015260448201949094526001600160801b03909216606483015251919092169163d7020d0a91608480830192600092919082900301818387803b15801561081757600080fd5b505af115801561082b573d6000803e3d6000fd5b505050505b8051610100820151141561089b57600884015461085a908390600160a01b900460ff166000611b2b565b886001600160a01b03168b6001600160a01b03167f44c58d81365b66dd4b1a7f36c25aa97b8c71c361ee4937adc1a00000227db5dd60405160405180910390a35b600483015460808201516108c1916001600160a01b038d81169233929190911690611bcf565b886001600160a01b03168a6001600160a01b03168c6001600160a01b03167fe413a321e8681d831f4dbccbca790d2952b56f977908e45be37335533e0052868460800151856101000151338d60405180858152602001848152602001836001600160a01b03168152602001821515815260200194505050505060405180910390a46000604051806040016040528060028152602001611a1b60f11b81525095509550505050505b9550959350505050565b600080808080808b610982612c53565b61098b8c611c2f565b156109ae5760008060008060001960009750975097509750975097505050610fd7565b60005b8a811015610ecd576109c38d82611c38565b6109cc57610ec5565b8b600082815260200190815260200160002060009054906101000a90046001600160a01b0316826101c001906001600160a01b031690816001600160a01b03168152505060008e6000846101c001516001600160a01b03166001600160a01b031681526020019081526020016000209050610a4981600001611cb7565b506080870181905260c08701929092525060a0850191909152600a0a6020808501919091526101c08401516040805163b3596f0760e01b81526001600160a01b0392831660048201529051918e169263b3596f0792602480840193829003018186803b158015610ab857600080fd5b505afa158015610acc573d6000803e3d6000fd5b505050506040513d6020811015610ae257600080fd5b5051835260c083015115801590610afe5750610afe8e83611ce2565b15610c1f578060040160009054906101000a90046001600160a01b03166001600160a01b03166370a08231856040518263ffffffff1660e01b815260040180826001600160a01b0316815260200191505060206040518083038186803b158015610b6757600080fd5b505afa158015610b7b573d6000803e3d6000fd5b505050506040513d6020811015610b9157600080fd5b50516040840181905260208401518451600092610bb89291610bb291611d68565b90611dc1565b610100850151909150610bcb9082611226565b61010085015260a0840151610bf190610be5908390611d68565b61014086015190611226565b61014085015260c0840151610c1790610c0b908390611d68565b61016086015190611226565b610160850152505b610c298e83611e03565b15610d6c576005810154604080516370a0823160e01b81526001600160a01b038781166004830152915191909216916370a08231916024808301926020929190829003018186803b158015610c7d57600080fd5b505afa158015610c91573d6000803e3d6000fd5b505050506040513d6020811015610ca757600080fd5b505160608401526006810154604080516370a0823160e01b81526001600160a01b0387811660048301529151610d399392909216916370a0823191602480820192602092909190829003018186803b158015610d0257600080fd5b505afa158015610d16573d6000803e3d6000fd5b505050506040513d6020811015610d2c57600080fd5b5051606085015190611226565b6060840181905260208401518451610d6592610d599291610bb291611d68565b61012085015190611226565b6101208401525b6020808401516008830154604080516370a0823160e01b81526001600160a01b0389811660048301529151600095610dfa9594610bb29416926370a082319260248083019392829003018186803b158015610dc657600080fd5b505afa158015610dda573d6000803e3d6000fd5b505050506040513d6020811015610df057600080fd5b5051875190611d68565b610220850151909150610e0d9082611226565b61022085015260408051808201909152601781527f436f6d696e6720746f2047656e65726963204c6f6769630000000000000000006020820152610e5090611e82565b610e886040518060400160405280600e81526020016d637265646974696e65746820257360901b815250610e8383611f2b565b612006565b610ea2610be58560a0015183611d6890919063ffffffff16565b61014085015260c0840151610ebc90610c0b908390611d68565b61016085015250505b6001016109b1565b506000610eed82610220015183610100015161122690919063ffffffff16565b11610ef9576000610f25565b610f25610f1982610220015183610100015161122690919063ffffffff16565b61014083015190611dc1565b610140820152610220810151610100820151600091610f449190611226565b11610f50576000610f7c565b610f7c610f7082610220015183610100015161122690919063ffffffff16565b61016083015190611dc1565b6101608201819052610100820151610120830151610220840151610fa09390612117565b60e0820181905261010082015161012083015161014084015161016085015161022090950151929b50909950975091955093509150505b96509650965096509650969050565b6005810154604080516370a0823160e01b81526001600160a01b0385811660048301529151600093849316916370a08231916024808301926020929190829003018186803b15801561103757600080fd5b505afa15801561104b573d6000803e3d6000fd5b505050506040513d602081101561106157600080fd5b50516006840154604080516370a0823160e01b81526001600160a01b038881166004830152915191909216916370a08231916024808301926020929190829003018186803b1580156110b257600080fd5b505afa1580156110c6573d6000803e3d6000fd5b505050506040513d60208110156110dc57600080fd5b5051909590945092505050565b600060606110f68861214a565b158061110857506111068761214a565b155b1561112f5750506040805180820190915260018152601960f91b602082015260069061121b565b670de0b6b3a764000085106111615750506040805180820190915260028152611a1960f11b602082015260049061121b565b60008061116d8a61215a565b11801561119c5750600889015460408051602081019091528854815261119c91600160a01b900460ff16611ce2565b9050806111c657505060408051808201909152600280825261343360f01b6020830152915061121b565b841580156111d2575083155b156111fb5750506040805180820190915260028152610d0d60f21b60208201526003915061121b565b50506040805180820190915260028152611a1b60f11b6020820152600091505b965096945050505050565b600082820183811015611280576040805162461bcd60e51b815260206004820152601b60248201527f536166654d6174683a206164646974696f6e206f766572666c6f770000000000604482015290519081900360640190fd5b90505b92915050565b6000821580611296575081155b156112a357506000611283565b8161138819816112af57fe5b0483111560405180604001604052806002815260200161068760f31b815250906113575760405162461bcd60e51b81526004018080602001828103825283818151815260200191508051906020019080838360005b8381101561131c578181015183820152602001611304565b50505050905090810190601f1680156113495780820380516001836020036101000a031916815260200191505b509250505060405180910390fd5b506127106002815b04838502018161136b57fe5b049392505050565b6000806000806000603460009054906101000a90046001600160a01b03166001600160a01b031663fca513a86040518163ffffffff1660e01b815260040160206040518083038186803b1580156113c957600080fd5b505afa1580156113dd573d6000803e3d6000fd5b505050506040513d60208110156113f357600080fd5b505190506113ff612ced565b816001600160a01b031663b3596f078b6040518263ffffffff1660e01b815260040180826001600160a01b0316815260200191505060206040518083038186803b15801561144c57600080fd5b505afa158015611460573d6000803e3d6000fd5b505050506040513d602081101561147657600080fd5b5051604080830191909152805163b3596f0760e01b81526001600160a01b038b8116600483015291519184169163b3596f0791602480820192602092909190829003018186803b1580156114c957600080fd5b505afa1580156114dd573d6000803e3d6000fd5b505050506040513d60208110156114f357600080fd5b505160608201526115038c611cb7565b5060c085015260208401525061151a90508b612165565b60a082018190526040820151611567916115379190600a0a611d68565b610bb283602001516102e58560c00151600a0a6115618e8860600151611d6890919063ffffffff16565b90611d68565b608082018190528710156115d0578693506115c981602001516115c36115a18460c00151600a0a8560600151611d6890919063ffffffff16565b610bb28560a00151600a0a6115618a8860400151611d6890919063ffffffff16565b9061216f565b92506115db565b806080015193508792505b50919a909950975050505050505050565b60068101546040805163b1bf962d60e01b815290516000926001600160a01b03169163b1bf962d916004808301926020929190829003018186803b15801561163357600080fd5b505afa158015611647573d6000803e3d6000fd5b505050506040513d602081101561165d57600080fd5b505160018301546003840154919250600160801b8082046001600160801b03908116939216910464ffffffffff1660008061169b8787868887612262565b915091506116ad87878785858861241b565b50505050505050565b600061128083836040518060400160405280601e81526020017f536166654d6174683a207375627472616374696f6e206f766572666c6f770000815250612604565b611700612d2a565b60058601546001600160a01b031680825260408051637b98f4df60e11b8152815163f731e9be92600480840193919291829003018186803b15801561174457600080fd5b505afa158015611758573d6000803e3d6000fd5b505050506040513d604081101561176e57600080fd5b50805160209182015160c084015260408084019190915260018801546006890154825163b1bf962d60e01b8152925161181294600160801b9093046001600160801b0316936001600160a01b039092169263b1bf962d9260048082019391829003018186803b1580156117e057600080fd5b505afa1580156117f4573d6000803e3d6000fd5b505050506040513d602081101561180a57600080fd5b505190612663565b60e082018190526007870154604083015160c08401516001600160a01b03909216926329db497d928992899289928992919061184d8f612714565b6040518963ffffffff1660e01b815260040180896001600160a01b03168152602001886001600160a01b031681526020018781526020018681526020018581526020018481526020018381526020018281526020019850505050505050505060606040518083038186803b1580156118c457600080fd5b505afa1580156118d8573d6000803e3d6000fd5b505050506040513d60608110156118ee57600080fd5b50805160208083015160409384015160a086015260808501526060840182905282518084019093526002835261353360f01b908301526001600160801b0310156119795760405162461bcd60e51b815260206004820181815283516024840152835190928392604490910191908501908083836000831561131c578181015183820152602001611304565b506080810151604080518082019091526002815261353560f01b6020820152906001600160801b0310156119ee5760405162461bcd60e51b815260206004820181815283516024840152835190928392604490910191908501908083836000831561131c578181015183820152602001611304565b5060a08101516040805180820190915260028152610d4d60f21b6020820152906001600160801b031015611a635760405162461bcd60e51b815260206004820181815283516024840152835190928392604490910191908501908083836000831561131c578181015183820152602001611304565b5060608181015160028801805460808086015160038c0180546001600160801b03199081166001600160801b038085169190911790925560a0808a015191909516828816178216600160801b82841681029190911790965560018e01546040805198895260208901949094528784019190915280821697870197909752939095049092169183019190915291516001600160a01b038816927f804c9b842b2748a22bb64b345453a3de7ca54a6ca45ce00d415894979e22897a928290030190a2505050505050565b604080518082019091526002815261373760f01b602082015260558310611b935760405162461bcd60e51b815260206004820181815283516024840152835190928392604490910191908501908083836000831561131c578181015183820152602001611304565b508160030260010181611ba7576000611baa565b60015b60ff16901b826003026001016001901b19846000015416178360000181905550505050565b604080516001600160a01b0380861660248301528416604482015260648082018490528251808303909101815260849091019091526020810180516001600160e01b03166323b872dd60e01b179052611c2990859061271f565b50505050565b8051155b919050565b60006055821060405180604001604052806002815260200161373760f01b81525090611ca55760405162461bcd60e51b815260206004820181815283516024840152835190928392604490910191908501908083836000831561131c578181015183820152602001611304565b50509051600760039092021c16151590565b5461ffff80821692601083901c821692602081901c831692603082901c60ff169260409290921c1690565b60006055821060405180604001604052806002815260200161373760f01b81525090611d4f5760405162461bcd60e51b815260206004820181815283516024840152835190928392604490910191908501908083836000831561131c578181015183820152602001611304565b5050815160016003830281019190911c16151592915050565b600082611d7757506000611283565b82820282848281611d8457fe5b04146112805760405162461bcd60e51b8152600401808060200182810382526021815260200180612dda6021913960400191505060405180910390fd5b600061128083836040518060400160405280601a81526020017f536166654d6174683a206469766973696f6e206279207a65726f0000000000008152506128d7565b60006055821060405180604001604052806002815260200161373760f01b81525090611e705760405162461bcd60e51b815260206004820181815283516024840152835190928392604490910191908501908083836000831561131c578181015183820152602001611304565b50509051600160039092021c16151590565b611f28816040516024018080602001828103825283818151815260200191508051906020019080838360005b83811015611ec6578181015183820152602001611eae565b50505050905090810190601f168015611ef35780820380516001836020036101000a031916815260200191505b5060408051601f198184030181529190526020810180516001600160e01b031663104c13eb60e21b179052925061293c915050565b50565b606081611f5057506040805180820190915260018152600360fc1b6020820152611c33565b8160005b8115611f6857600101600a82049150611f54565b60608167ffffffffffffffff81118015611f8157600080fd5b506040519080825280601f01601f191660200182016040528015611fac576020820181803683370190505b50859350905060001982015b8315611ffd57600a840660300160f81b82828060019003935081518110611fdb57fe5b60200101906001600160f81b031916908160001a905350600a84049350611fb8565b50949350505050565b6121138282604051602401808060200180602001838103835285818151815260200191508051906020019080838360005b8381101561204f578181015183820152602001612037565b50505050905090810190601f16801561207c5780820380516001836020036101000a031916815260200191505b50838103825284518152845160209182019186019080838360005b838110156120af578181015183820152602001612097565b50505050905090810190601f1680156120dc5780820380516001836020036101000a031916815260200191505b5060408051601f198184030181529190526020810180516001600160e01b0316634b5c427760e01b179052945061293c9350505050565b5050565b6000836121275750600019612142565b61213f84612139856102e58987611226565b9061295d565b90505b949350505050565b5467010000000000000016151590565b5460101c61ffff1690565b5460301c60ff1690565b604080518082019091526002815261035360f41b6020820152600090826121d75760405162461bcd60e51b815260206004820181815283516024840152835190928392604490910191908501908083836000831561131c578181015183820152602001611304565b5060408051808201909152600280825261068760f31b60208301528304906127108219048511156122495760405162461bcd60e51b815260206004820181815283516024840152835190928392604490910191908501908083836000831561131c578181015183820152602001611304565b5082816127108602018161225957fe5b04949350505050565b600285015460009081906001600160801b0316858582156123ec5760006122898488612a53565b9050612295818a612663565b604080518082019091526002815261353160f01b60208201529093506001600160801b038411156123075760405162461bcd60e51b815260206004820181815283516024840152835190928392604490910191908501908083836000831561131c578181015183820152602001611304565b5060018b0180546001600160801b0319166001600160801b03851617905589156123ea5760028b015460009061234d90600160801b90046001600160801b031689612a91565b9050612359818a612663565b6040805180820190915260028152611a9960f11b60208201529093506001600160801b038411156123cb5760405162461bcd60e51b815260206004820181815283516024840152835190928392604490910191908501908083836000831561131c578181015183820152602001611304565b505060018b0180546001600160801b03808516600160801b0291161790555b505b600399909901805464ffffffffff60801b1916600160801b4264ffffffffff1602179055989650505050505050565b612423612d78565b61242c87612714565b610120820181905261243e57506125fc565b8660050160009054906101000a90046001600160a01b03166001600160a01b031663797743386040518163ffffffff1660e01b815260040160806040518083038186803b15801561248e57600080fd5b505afa1580156124a2573d6000803e3d6000fd5b505050506040513d60808110156124b857600080fd5b508051602080830151604084015160609094015164ffffffffff1661014086015260a0850193909352918352908201526124f28686612663565b60808201526125018684612663565b606082015260a0810151610140820151612523919064ffffffffff8516612a9a565b60c08201819052602082015161253891612663565b60408201819052608082015182516060840151612563939261255d9290918391611226565b906116b6565b60e0820181905261012082015161257a9190611289565b6101008201819052156116ad5760048088015461010083015160408051637df5bd3b60e01b81529384019190915260248301879052516001600160a01b0390911691637df5bd3b91604480830192600092919082900301818387803b1580156125e257600080fd5b505af11580156125f6573d6000803e3d6000fd5b50505050505b505050505050565b600081848411156126565760405162461bcd60e51b815260206004820181815283516024840152835190928392604490910191908501908083836000831561131c578181015183820152602001611304565b50508183035b9392505050565b6000821580612670575081155b1561267d57506000611283565b816b019d971e4fe8401e74000000198161269357fe5b0483111560405180604001604052806002815260200161068760f31b815250906126fe5760405162461bcd60e51b815260206004820181815283516024840152835190928392604490910191908501908083836000831561131c578181015183820152602001611304565b506b033b2e3c9fd0803ce800000060028161135f565b5460401c61ffff1690565b612731826001600160a01b0316612b70565b612782576040805162461bcd60e51b815260206004820152601f60248201527f5361666545524332303a2063616c6c20746f206e6f6e2d636f6e747261637400604482015290519081900360640190fd5b60006060836001600160a01b0316836040518082805190602001908083835b602083106127c05780518252601f1990920191602091820191016127a1565b6001836020036101000a0380198251168184511680821785525050505050509050019150506000604051808303816000865af19150503d8060008114612822576040519150601f19603f3d011682016040523d82523d6000602084013e612827565b606091505b50915091508161287e576040805162461bcd60e51b815260206004820181905260248201527f5361666545524332303a206c6f772d6c6576656c2063616c6c206661696c6564604482015290519081900360640190fd5b805115611c295780806020019051602081101561289a57600080fd5b5051611c295760405162461bcd60e51b815260040180806020018281038252602a815260200180612dfb602a913960400191505060405180910390fd5b600081836129265760405162461bcd60e51b815260206004820181815283516024840152835190928392604490910191908501908083836000831561131c578181015183820152602001611304565b50600083858161293257fe5b0495945050505050565b80516a636f6e736f6c652e6c6f67602083016000808483855afa5050505050565b604080518082019091526002815261035360f41b6020820152600090826129c55760405162461bcd60e51b815260206004820181815283516024840152835190928392604490910191908501908083836000831561131c578181015183820152602001611304565b5060408051808201909152600280825261068760f31b6020830152830490670de0b6b3a7640000821904851115612a3d5760405162461bcd60e51b815260206004820181815283516024840152835190928392604490910191908501908083836000831561131c578181015183820152602001611304565b508281670de0b6b3a76400008602018161225957fe5b600080612a674264ffffffffff85166116b6565b9050612142612a74612ba9565b6301e13380612a838785611d68565b81612a8a57fe5b0490611226565b60006112808383425b600080612aae8364ffffffffff86166116b6565b905080612ac557612abd612ba9565b91505061265c565b6000198101600060028311612adb576000612ae0565b600283035b90506301e1338087046000612af58280612663565b90506000612b038284612663565b905060006002612b17846115618a8a611d68565b81612b1e57fe5b04905060006006612b358461156189818d8d611d68565b81612b3c57fe5b049050612b6081612b5a8481612b528a8e611d68565b612b5a612ba9565b90611226565b9c9b505050505050505050505050565b6000813f7fc5d2460186f7233c927e7db2dcc703c0e500b653ca82273b7bfad8045d85a470818114801590612142575050151592915050565b6b033b2e3c9fd0803ce800000090565b60405180610220016040528060008152602001600081526020016000815260200160008152602001600081526020016000815260200160008152602001600081526020016000815260200160008152602001600081526020016000815260200160006001600160a01b0316815260200160001515815260200160006002811115612c3f57fe5b815260200160008152602001606081525090565b6040518061024001604052806000815260200160008152602001600081526020016000815260200160008152602001600081526020016000815260200160008152602001600081526020016000815260200160008152602001600081526020016000815260200160001515815260200160006001600160a01b03168152602001600015158152602001600015158152602001600081525090565b6040518060e00160405280600081526020016000815260200160008152602001600081526020016000815260200160008152602001600081525090565b60405180610100016040528060006001600160a01b03168152602001600081526020016000815260200160008152602001600081526020016000815260200160008152602001600081525090565b60405180610160016040528060008152602001600081526020016000815260200160008152602001600081526020016000815260200160008152602001600081526020016000815260200160008152602001600064ffffffffff168152509056fe536166654d6174683a206d756c7469706c69636174696f6e206f766572666c6f775361666545524332303a204552433230206f7065726174696f6e20646964206e6f742073756363656564a264697066735822122016f13ac8fdaf9742f5c5c16aeeb7ae59780d4de1fb65567a0bd7218957d7576264736f6c634300060c0033",
  "linkReferences": {},
  "deployedLinkReferences": {}
}