{
  "_format": "hh-sol-artifact-1",
  "contractName": "LendingPoolCollateralManager",
  "sourceName": "contracts/protocol/lendingpool/LendingPoolCollateralManager.sol",
  "abi": [
    {
      "anonymous": false,
      "inputs": [
        {
          "indexed": true,
          "internalType": "address",
          "name": "collateral",
          "type": "address"
        },
        {
          "indexed": true,
          "internalType": "address",
          "name": "principal",
          "type": "address"
        },
        {
          "indexed": true,
          "internalType": "address",
          "name": "user",
          "type": "address"
        },
        {
          "indexed": false,
          "internalType": "uint256",
          "name": "debtToCover",
          "type": "uint256"
        },
        {
          "indexed": false,
          "internalType": "uint256",
          "name": "liquidatedCollateralAmount",
          "type": "uint256"
        },
        {
          "indexed": false,
          "internalType": "address",
          "name": "liquidator",
          "type": "address"
        },
        {
          "indexed": false,
          "internalType": "bool",
          "name": "receiveAToken",
          "type": "bool"
        }
      ],
      "name": "CollateralLiquidationCall",
      "type": "event"
    },
    {
      "anonymous": false,
      "inputs": [
        {
          "indexed": true,
          "internalType": "address",
          "name": "principal",
          "type": "address"
        },
        {
          "indexed": true,
          "internalType": "address",
          "name": "user",
          "type": "address"
        },
        {
          "indexed": false,
          "internalType": "uint256",
          "name": "debtToCover",
          "type": "uint256"
        },
        {
          "indexed": false,
          "internalType": "address",
          "name": "liquidator",
          "type": "address"
        },
        {
          "indexed": false,
          "internalType": "bool",
          "name": "receiveAToken",
          "type": "bool"
        }
      ],
      "name": "CreditLiquidationCall",
      "type": "event"
    },
    {
      "anonymous": false,
      "inputs": [
        {
          "indexed": true,
          "internalType": "address",
          "name": "reserve",
          "type": "address"
        },
        {
          "indexed": true,
          "internalType": "address",
          "name": "user",
          "type": "address"
        }
      ],
      "name": "ReserveUsedAsCollateralDisabled",
      "type": "event"
    },
    {
      "anonymous": false,
      "inputs": [
        {
          "indexed": true,
          "internalType": "address",
          "name": "reserve",
          "type": "address"
        },
        {
          "indexed": true,
          "internalType": "address",
          "name": "user",
          "type": "address"
        }
      ],
      "name": "ReserveUsedAsCollateralEnabled",
      "type": "event"
    },
    {
      "inputs": [
        {
          "internalType": "address",
          "name": "collateralAsset",
          "type": "address"
        },
        {
          "internalType": "address",
          "name": "debtAsset",
          "type": "address"
        },
        {
          "internalType": "address",
          "name": "user",
          "type": "address"
        },
        {
          "internalType": "uint256",
          "name": "debtToCover",
          "type": "uint256"
        },
        {
          "internalType": "bool",
          "name": "receiveCreditToken",
          "type": "bool"
        },
        {
          "internalType": "bool",
          "name": "receiveAToken",
          "type": "bool"
        }
      ],
      "name": "liquidationCall",
      "outputs": [
        {
          "internalType": "uint256",
          "name": "",
          "type": "uint256"
        },
        {
          "internalType": "string",
          "name": "",
          "type": "string"
        }
      ],
      "stateMutability": "nonpayable",
      "type": "function"
    }
  ],
  "bytecode": "0x60806040526000805534801561001457600080fd5b50613883806100246000396000f3fe608060405234801561001057600080fd5b506004361061002b5760003560e01c80638c1624d814610030575b600080fd5b61007c600480360360c081101561004657600080fd5b506001600160a01b038135811691602081013582169160408201351690606081013590608081013515159060a0013515156100fb565b6040518083815260200180602001828103825283818151815260200191508051906020019080838360005b838110156100bf5781810151838201526020016100a7565b50505050905090810190601f1680156100ec5780820380516001836020036101000a031916815260200191505b50935050505060405180910390f35b6001600160a01b038087166000908152603560209081526040808320898516845281842094891684526036909252822091926060926101386135bf565b6101d88a6035846040518060200160405290816000820154815250506037603854603460009054906101000a90046001600160a01b03166001600160a01b031663fca513a86040518163ffffffff1660e01b815260040160206040518083038186803b1580156101a757600080fd5b505afa1580156101bb573d6000803e3d6000fd5b505050506040513d60208110156101d157600080fd5b5051611630565b50610180860152506101f092508c9150859050611bc4565b6060830181905260408301829052610180830151610215928792879287929091611cc7565b6102608301526102408201819052600090600981111561023157fe5b600981111561023c57fe5b1461025a578061024001518161026001519550955050505050611625565b60088301546001600160a01b0390811661020083018190526040805163631a6fd560e11b8152928d16600484015251909163c634dfaa916024808301926020929190829003018186803b1580156102b057600080fd5b505afa1580156102c4573d6000803e3d6000fd5b505050506040513d60208110156102da57600080fd5b50518082526102e890611d8c565b6004808501546001600160a01b039081166101e08401819052604080516370a0823160e01b8152928e169383019390935291516370a0823191602480820192602092909190829003018186803b15801561034157600080fd5b505afa158015610355573d6000803e3d6000fd5b505050506040513d602081101561036b57600080fd5b5051602082015260608101516040820151610393916113889161038d91611dd0565b90611e33565b6080820181905289116103a657886103ac565b80608001515b60a0820152805115610f745760a0810151815110156103d25780516101208201526103de565b60a08101516101208201525b6103ec816101400151611d8c565b6103f583611f1d565b80610120015181606001511061049a576006830154610120820151600185015460408051637a94c56560e11b81526001600160a01b038f811660048301526024820194909452600160801b9092046001600160801b0316604483015251919092169163f5298aca91606480830192600092919082900301818387803b15801561047d57600080fd5b505af1158015610491573d6000803e3d6000fd5b505050506105c0565b6060810151156105345760068301546060820151600185015460408051637a94c56560e11b81526001600160a01b038f811660048301526024820194909452600160801b9092046001600160801b0316604483015251919092169163f5298aca91606480830192600092919082900301818387803b15801561051b57600080fd5b505af115801561052f573d6000803e3d6000fd5b505050505b600583015460608201516101208301516001600160a01b0390921691639dc29fac918d9161056191611fe7565b6040518363ffffffff1660e01b815260040180836001600160a01b0316815260200182815260200192505050600060405180830381600087803b1580156105a757600080fd5b505af11580156105bb573d6000803e3d6000fd5b505050505b60048301546101208201516105e49185918e916001600160a01b0316906000612029565b61060860405180604001604052806003815260200162189c1960e91b81525061245c565b87156107b6578061020001516001600160a01b031663c634dfaa336040518263ffffffff1660e01b815260040180826001600160a01b0316815260200191505060206040518083038186803b15801561066057600080fd5b505afa158015610674573d6000803e3d6000fd5b505050506040513d602081101561068a57600080fd5b50516101a082015261020081015161012082015160408051632770a7eb60e21b81526001600160a01b038e81166004830152602482019390935290519190921691639dc29fac91604480830192600092919082900301818387803b1580156106f157600080fd5b505af1158015610705573d6000803e3d6000fd5b505050508061020001516001600160a01b031663b3f1c93d333384610120015160006040518563ffffffff1660e01b815260040180856001600160a01b03168152602001846001600160a01b03168152602001838152602001828152602001945050505050602060405180830381600087803b15801561078457600080fd5b505af1158015610798573d6000803e3d6000fd5b505050506040513d60208110156107ae57600080fd5b506108309050565b8061020001516001600160a01b0316639dc29fac8b8361012001516040518363ffffffff1660e01b815260040180836001600160a01b0316815260200182815260200192505050600060405180830381600087803b15801561081757600080fd5b505af115801561082b573d6000803e3d6000fd5b505050505b6108546040518060400160405280600381526020016231393360e81b81525061245c565b6108786040518060400160405280600381526020016232303560e81b81525061245c565b6101208101516040805191825233602083015289151582820152516001600160a01b03808d1692908e16917f70bdb9f9c036c98c5566150385d7e0d7d62b05243421e9338148bd53aa91b3929181900360600190a361012081015160a08201516108e191611fe7565b6101c08201526108f2848484612502565b6102608301526102408201819052600090600981111561090e57fe5b600981111561091957fe5b14610937578061024001518161026001519550955050505050611625565b61094e84848e8e856101c0015186602001516125d5565b610140830181905260e083019190915260a082015111156109755761014081015160a08201525b86610a375760008c6001600160a01b03166370a08231836101e001516040518263ffffffff1660e01b815260040180826001600160a01b0316815260200191505060206040518083038186803b1580156109ce57600080fd5b505afa1580156109e2573d6000803e3d6000fd5b505050506040513d60208110156109f857600080fd5b505160e0830151909150811015610a355760055b60405180604001604052806002815260200161343560f01b815250965096505050505050611625565b505b610a4083611f1d565b8060a00151816060015110610ae357600683015460a0820151600185015460408051637a94c56560e11b81526001600160a01b038f811660048301526024820194909452600160801b9092046001600160801b0316604483015251919092169163f5298aca91606480830192600092919082900301818387803b158015610ac657600080fd5b505af1158015610ada573d6000803e3d6000fd5b50505050610c08565b606081015115610b7d5760068301546060820151600185015460408051637a94c56560e11b81526001600160a01b038f811660048301526024820194909452600160801b9092046001600160801b0316604483015251919092169163f5298aca91606480830192600092919082900301818387803b158015610b6457600080fd5b505af1158015610b78573d6000803e3d6000fd5b505050505b6005830154606082015160a08301516001600160a01b0390921691639dc29fac918d91610ba991611fe7565b6040518363ffffffff1660e01b815260040180836001600160a01b0316815260200182815260200192505050600060405180830381600087803b158015610bef57600080fd5b505af1158015610c03573d6000803e3d6000fd5b505050505b600483015460a0820151610c2b9185918e916001600160a01b0316906000612029565b8615610da657806101e001516001600160a01b03166370a08231336040518263ffffffff1660e01b815260040180826001600160a01b0316815260200191505060206040518083038186803b158015610c8357600080fd5b505afa158015610c97573d6000803e3d6000fd5b505050506040513d6020811015610cad57600080fd5b50516101a08201526101e081015160e08201516040805163f866c31960e01b81526001600160a01b038e8116600483015233602483015260448201939093529051919092169163f866c31991606480830192600092919082900301818387803b158015610d1957600080fd5b505af1158015610d2d573d6000803e3d6000fd5b50505050806101a0015160001415610da1573360009081526036602052604090206008850154610d6a908290600160a01b900460ff16600161284e565b60405133906001600160a01b038f16907e058a56ea94653cdf4f152d227ace22d4c00ad99e2a43f58cb7d9e3feb295f290600090a3505b610e5c565b610daf84611f1d565b6101e081015160e0820151610dcb9186918f9190600090612029565b6101e081015160e0820151600186015460408051636b81068560e11b81526001600160a01b038f8116600483015233602483015260448201949094526001600160801b03909216606483015251919092169163d7020d0a91608480830192600092919082900301818387803b158015610e4357600080fd5b505af1158015610e57573d6000803e3d6000fd5b505050505b80602001518160e001511415610ec9576008840154610e88908390600160a01b900460ff16600061284e565b896001600160a01b03168c6001600160a01b03167f44c58d81365b66dd4b1a7f36c25aa97b8c71c361ee4937adc1a00000227db5dd60405160405180910390a35b600483015460a0820151610eef916001600160a01b038e811692339291909116906128f2565b896001600160a01b03168b6001600160a01b03168d6001600160a01b03167fdd7b8a804cee2b7d349fc2c9f90f8b5228a29d4c12193fd48e4edf4310bff0e18460a001518560e00151338d60405180858152602001848152602001836001600160a01b03168152602001821515815260200194505050505060405180910390a4611620565b610f7f848484612502565b61026083015261024082018190526000906009811115610f9b57fe5b6009811115610fa657fe5b14610fc4578061024001518161026001519550955050505050611625565b80608001518911610fd55788610fdb565b80608001515b8160a0018181525050610ffa84848e8e8560a0015186602001516125d5565b610140830181905260e083019190915260a082015111156110215761014081015160a08201525b866110be5760008c6001600160a01b03166370a08231836101e001516040518263ffffffff1660e01b815260040180826001600160a01b0316815260200191505060206040518083038186803b15801561107a57600080fd5b505afa15801561108e573d6000803e3d6000fd5b505050506040513d60208110156110a457600080fd5b505160e08301519091508110156110bc576005610a0c565b505b6110c783611f1d565b8060a0015181606001511061116a57600683015460a0820151600185015460408051637a94c56560e11b81526001600160a01b038f811660048301526024820194909452600160801b9092046001600160801b0316604483015251919092169163f5298aca91606480830192600092919082900301818387803b15801561114d57600080fd5b505af1158015611161573d6000803e3d6000fd5b5050505061128f565b6060810151156112045760068301546060820151600185015460408051637a94c56560e11b81526001600160a01b038f811660048301526024820194909452600160801b9092046001600160801b0316604483015251919092169163f5298aca91606480830192600092919082900301818387803b1580156111eb57600080fd5b505af11580156111ff573d6000803e3d6000fd5b505050505b6005830154606082015160a08301516001600160a01b0390921691639dc29fac918d9161123091611fe7565b6040518363ffffffff1660e01b815260040180836001600160a01b0316815260200182815260200192505050600060405180830381600087803b15801561127657600080fd5b505af115801561128a573d6000803e3d6000fd5b505050505b600483015460a08201516112b29185918e916001600160a01b0316906000612029565b861561142d57806101e001516001600160a01b03166370a08231336040518263ffffffff1660e01b815260040180826001600160a01b0316815260200191505060206040518083038186803b15801561130a57600080fd5b505afa15801561131e573d6000803e3d6000fd5b505050506040513d602081101561133457600080fd5b50516101a08201526101e081015160e08201516040805163f866c31960e01b81526001600160a01b038e8116600483015233602483015260448201939093529051919092169163f866c31991606480830192600092919082900301818387803b1580156113a057600080fd5b505af11580156113b4573d6000803e3d6000fd5b50505050806101a00151600014156114285733600090815260366020526040902060088501546113f1908290600160a01b900460ff16600161284e565b60405133906001600160a01b038f16907e058a56ea94653cdf4f152d227ace22d4c00ad99e2a43f58cb7d9e3feb295f290600090a3505b6114e3565b61143684611f1d565b6101e081015160e08201516114529186918f9190600090612029565b6101e081015160e0820151600186015460408051636b81068560e11b81526001600160a01b038f8116600483015233602483015260448201949094526001600160801b03909216606483015251919092169163d7020d0a91608480830192600092919082900301818387803b1580156114ca57600080fd5b505af11580156114de573d6000803e3d6000fd5b505050505b80602001518160e00151141561155057600884015461150f908390600160a01b900460ff16600061284e565b896001600160a01b03168c6001600160a01b03167f44c58d81365b66dd4b1a7f36c25aa97b8c71c361ee4937adc1a00000227db5dd60405160405180910390a35b600483015460a0820151611576916001600160a01b038e811692339291909116906128f2565b896001600160a01b03168b6001600160a01b03168d6001600160a01b03167fdd7b8a804cee2b7d349fc2c9f90f8b5228a29d4c12193fd48e4edf4310bff0e18460a001518560e00151338d60405180858152602001848152602001836001600160a01b03168152602001821515815260200194505050505060405180910390a46000604051806040016040528060028152602001611a1b60f11b8152509550955050505050611625565b505050505b965096945050505050565b600080808080808b611640613675565b60006101608201525b898161016001511015611aad57610160810151600090815260208c81526040808320546001600160a01b03166101e085018190528352908f9052902061168e81612952565b506080860181905260c08601929092525060a0840191909152600a0a6020808401919091526101e08301516040805163b3596f0760e01b81526001600160a01b0392831660048201529051918d169263b3596f0792602480840193829003018186803b1580156116fd57600080fd5b505afa158015611711573d6000803e3d6000fd5b505050506040513d602081101561172757600080fd5b5051825260c08201511580159061174a575061016082015161174a908e9061297d565b1561186b578060040160009054906101000a90046001600160a01b03166001600160a01b03166370a08231846040518263ffffffff1660e01b815260040180826001600160a01b0316815260200191505060206040518083038186803b1580156117b357600080fd5b505afa1580156117c7573d6000803e3d6000fd5b505050506040513d60208110156117dd57600080fd5b5051604083018190526020830151835160009261180492916117fe91612a03565b90612a5c565b6101008401519091506118179082611dd0565b61010084015260a083015161183d90611831908390612a03565b61014085015190611dd0565b61014084015260c083015161186390611857908390612a03565b61018085015190611dd0565b610180840152505b61016082015161187c908e90612a9e565b156119bf576005810154604080516370a0823160e01b81526001600160a01b038681166004830152915191909216916370a08231916024808301926020929190829003018186803b1580156118d057600080fd5b505afa1580156118e4573d6000803e3d6000fd5b505050506040513d60208110156118fa57600080fd5b505160608301526006810154604080516370a0823160e01b81526001600160a01b038681166004830152915161198c9392909216916370a0823191602480820192602092909190829003018186803b15801561195557600080fd5b505afa158015611969573d6000803e3d6000fd5b505050506040513d602081101561197f57600080fd5b5051606084015190611dd0565b60608301819052602083015183516119b8926119ac92916117fe91612a03565b61012084015190611dd0565b6101208301525b6020808301516008830154604080516370a0823160e01b81526001600160a01b0388811660048301529151600095611a4d95946117fe9416926370a082319260248083019392829003018186803b158015611a1957600080fd5b505afa158015611a2d573d6000803e3d6000fd5b505050506040513d6020811015611a4357600080fd5b5051865190612a03565b610240840151909150611a609082611dd0565b61024084015260a0830151611a7a90611831908390612a03565b61014084015260c0830151611a9490611857908390612a03565b6101808401525050610160810180516001019052611649565b6000611acc826102400151836101000151611dd090919063ffffffff16565b11611ad8576000611b04565b611b04611af8826102400151836101000151611dd090919063ffffffff16565b61014083015190612a5c565b610140820152610240810151610100820151600091611b239190611dd0565b11611b2f576000611b5b565b611b5b611b4f826102400151836101000151611dd090919063ffffffff16565b61018083015190612a5c565b6101808201819052610100820151610120830151610240840151611b7f9390612b1d565b60e0820181905261010082015161012083015161014084015161018085015161024090950151929b509099509750919550935091505096509650965096509650969050565b6005810154604080516370a0823160e01b81526001600160a01b0385811660048301529151600093849316916370a08231916024808301926020929190829003018186803b158015611c1557600080fd5b505afa158015611c29573d6000803e3d6000fd5b505050506040513d6020811015611c3f57600080fd5b50516006840154604080516370a0823160e01b81526001600160a01b038881166004830152915191909216916370a08231916024808301926020929190829003018186803b158015611c9057600080fd5b505afa158015611ca4573d6000803e3d6000fd5b505050506040513d6020811015611cba57600080fd5b5051909590945092505050565b60006060670de0b6b3a76400008510611cfd5750506040805180820190915260028152611a1960f11b6020820152600490611625565b6000611d0889612b50565b11611d2f575050604080518082019091526002808252611c1960f11b602083015290611625565b83158015611d3b575082155b15611d635750506040805180820190915260028152610d0d60f21b6020820152600390611625565b50506040805180820190915260028152611a1b60f11b6020820152600097909650945050505050565b6040805160248082018490528251808303909101815260449091019091526020810180516001600160e01b031663f5b1bba960e01b179052611dcd90612b5b565b50565b600082820183811015611e2a576040805162461bcd60e51b815260206004820152601b60248201527f536166654d6174683a206164646974696f6e206f766572666c6f770000000000604482015290519081900360640190fd5b90505b92915050565b6000821580611e40575081155b15611e4d57506000611e2d565b816113881981611e5957fe5b0483111560405180604001604052806002815260200161068760f31b81525090611f015760405162461bcd60e51b81526004018080602001828103825283818151815260200191508051906020019080838360005b83811015611ec6578181015183820152602001611eae565b50505050905090810190601f168015611ef35780820380516001836020036101000a031916815260200191505b509250505060405180910390fd5b506127106002815b048385020181611f1557fe5b049392505050565b60068101546040805163b1bf962d60e01b815290516000926001600160a01b03169163b1bf962d916004808301926020929190829003018186803b158015611f6457600080fd5b505afa158015611f78573d6000803e3d6000fd5b505050506040513d6020811015611f8e57600080fd5b505160018301546003840154919250600160801b8082046001600160801b03908116939216910464ffffffffff16600080611fcc8787868887612b7c565b91509150611fde878787858588612d35565b50505050505050565b6000611e2a83836040518060400160405280601e81526020017f536166654d6174683a207375627472616374696f6e206f766572666c6f770000815250612f1e565b612031613716565b60058601546001600160a01b031680825260408051637b98f4df60e11b8152815163f731e9be92600480840193919291829003018186803b15801561207557600080fd5b505afa158015612089573d6000803e3d6000fd5b505050506040513d604081101561209f57600080fd5b50805160209182015160c084015260408084019190915260018801546006890154825163b1bf962d60e01b8152925161214394600160801b9093046001600160801b0316936001600160a01b039092169263b1bf962d9260048082019391829003018186803b15801561211157600080fd5b505afa158015612125573d6000803e3d6000fd5b505050506040513d602081101561213b57600080fd5b505190612f7d565b60e082018190526007870154604083015160c08401516001600160a01b03909216926329db497d928992899289928992919061217e8f61302e565b6040518963ffffffff1660e01b815260040180896001600160a01b03168152602001886001600160a01b031681526020018781526020018681526020018581526020018481526020018381526020018281526020019850505050505050505060606040518083038186803b1580156121f557600080fd5b505afa158015612209573d6000803e3d6000fd5b505050506040513d606081101561221f57600080fd5b50805160208083015160409384015160a086015260808501526060840182905282518084019093526002835261353360f01b908301526001600160801b0310156122aa5760405162461bcd60e51b8152602060048201818152835160248401528351909283926044909101919085019080838360008315611ec6578181015183820152602001611eae565b506080810151604080518082019091526002815261353560f01b6020820152906001600160801b03101561231f5760405162461bcd60e51b8152602060048201818152835160248401528351909283926044909101919085019080838360008315611ec6578181015183820152602001611eae565b5060a08101516040805180820190915260028152610d4d60f21b6020820152906001600160801b0310156123945760405162461bcd60e51b8152602060048201818152835160248401528351909283926044909101919085019080838360008315611ec6578181015183820152602001611eae565b5060608181015160028801805460808086015160038c0180546001600160801b03199081166001600160801b038085169190911790925560a0808a015191909516828816178216600160801b82841681029190911790965560018e01546040805198895260208901949094528784019190915280821697870197909752939095049092169183019190915291516001600160a01b038816927f804c9b842b2748a22bb64b345453a3de7ca54a6ca45ce00d415894979e22897a928290030190a2505050505050565b611dcd816040516024018080602001828103825283818151815260200191508051906020019080838360005b838110156124a0578181015183820152602001612488565b50505050905090810190601f1680156124cd5780820380516001836020036101000a031916815260200191505b5060408051601f198184030181529190526020810180516001600160e01b031663104c13eb60e21b1790529250612b5b915050565b6000606061250f85613039565b1580612521575061251f84613039565b155b156125485750506040805180820190915260018152601960f91b60208201526006906125cd565b60008061255487612b50565b1180156125835750600886015460408051602081019091528554815261258391600160a01b900460ff1661297d565b9050806125ad57505060408051808201909152600280825261343360f01b602083015291506125cd565b50506040805180820190915260028152611a1b60f11b6020820152600091505b935093915050565b6000806000806000603460009054906101000a90046001600160a01b03166001600160a01b031663fca513a86040518163ffffffff1660e01b815260040160206040518083038186803b15801561262b57600080fd5b505afa15801561263f573d6000803e3d6000fd5b505050506040513d602081101561265557600080fd5b50519050612661613764565b816001600160a01b031663b3596f078b6040518263ffffffff1660e01b815260040180826001600160a01b0316815260200191505060206040518083038186803b1580156126ae57600080fd5b505afa1580156126c2573d6000803e3d6000fd5b505050506040513d60208110156126d857600080fd5b5051604080830191909152805163b3596f0760e01b81526001600160a01b038b8116600483015291519184169163b3596f0791602480820192602092909190829003018186803b15801561272b57600080fd5b505afa15801561273f573d6000803e3d6000fd5b505050506040513d602081101561275557600080fd5b505160608201526127658c612952565b5060c085015260208401525061277c90508b613049565b60a0820181905260408201516127c9916127999190600a0a612a03565b6117fe836020015161038d8560c00151600a0a6127c38e8860600151612a0390919063ffffffff16565b90612a03565b608082018190528710156128325786935061282b81602001516128256128038460c00151600a0a8560600151612a0390919063ffffffff16565b6117fe8560a00151600a0a6127c38a8860400151612a0390919063ffffffff16565b90613053565b925061283d565b806080015193508792505b50919a909950975050505050505050565b604080518082019091526002815261373760f01b6020820152605583106128b65760405162461bcd60e51b8152602060048201818152835160248401528351909283926044909101919085019080838360008315611ec6578181015183820152602001611eae565b5081600302600101816128ca5760006128cd565b60015b60ff16901b826003026001016001901b19846000015416178360000181905550505050565b604080516001600160a01b0380861660248301528416604482015260648082018490528251808303909101815260849091019091526020810180516001600160e01b03166323b872dd60e01b17905261294c908590613146565b50505050565b5461ffff80821692601083901c821692602081901c831692603082901c60ff169260409290921c1690565b60006055821060405180604001604052806002815260200161373760f01b815250906129ea5760405162461bcd60e51b8152602060048201818152835160248401528351909283926044909101919085019080838360008315611ec6578181015183820152602001611eae565b5050815160016003830281019190911c16151592915050565b600082612a1257506000611e2d565b82820282848281612a1f57fe5b0414611e2a5760405162461bcd60e51b81526004018080602001828103825260218152602001806138036021913960400191505060405180910390fd5b6000611e2a83836040518060400160405280601a81526020017f536166654d6174683a206469766973696f6e206279207a65726f0000000000008152506132fe565b60006055821060405180604001604052806002815260200161373760f01b81525090612b0b5760405162461bcd60e51b8152602060048201818152835160248401528351909283926044909101919085019080838360008315611ec6578181015183820152602001611eae565b50509051600160039092021c16151590565b600083612b2d5750600019612b48565b612b4584612b3f8561038d8987611dd0565b90613363565b90505b949350505050565b5460101c61ffff1690565b80516a636f6e736f6c652e6c6f67602083016000808483855afa5050505050565b600285015460009081906001600160801b031685858215612d06576000612ba38488613459565b9050612baf818a612f7d565b604080518082019091526002815261353160f01b60208201529093506001600160801b03841115612c215760405162461bcd60e51b8152602060048201818152835160248401528351909283926044909101919085019080838360008315611ec6578181015183820152602001611eae565b5060018b0180546001600160801b0319166001600160801b0385161790558915612d045760028b0154600090612c6790600160801b90046001600160801b031689613497565b9050612c73818a612f7d565b6040805180820190915260028152611a9960f11b60208201529093506001600160801b03841115612ce55760405162461bcd60e51b8152602060048201818152835160248401528351909283926044909101919085019080838360008315611ec6578181015183820152602001611eae565b505060018b0180546001600160801b03808516600160801b0291161790555b505b600399909901805464ffffffffff60801b1916600160801b4264ffffffffff1602179055989650505050505050565b612d3d6137a1565b612d468761302e565b6101208201819052612d585750612f16565b8660050160009054906101000a90046001600160a01b03166001600160a01b031663797743386040518163ffffffff1660e01b815260040160806040518083038186803b158015612da857600080fd5b505afa158015612dbc573d6000803e3d6000fd5b505050506040513d6080811015612dd257600080fd5b508051602080830151604084015160609094015164ffffffffff1661014086015260a085019390935291835290820152612e0c8686612f7d565b6080820152612e1b8684612f7d565b606082015260a0810151610140820151612e3d919064ffffffffff85166134a0565b60c082018190526020820151612e5291612f7d565b60408201819052608082015182516060840151612e7d9392612e779290918391611dd0565b90611fe7565b60e08201819052610120820151612e949190611e33565b610100820181905215611fde5760048088015461010083015160408051637df5bd3b60e01b81529384019190915260248301879052516001600160a01b0390911691637df5bd3b91604480830192600092919082900301818387803b158015612efc57600080fd5b505af1158015612f10573d6000803e3d6000fd5b50505050505b505050505050565b60008184841115612f705760405162461bcd60e51b8152602060048201818152835160248401528351909283926044909101919085019080838360008315611ec6578181015183820152602001611eae565b50508183035b9392505050565b6000821580612f8a575081155b15612f9757506000611e2d565b816b019d971e4fe8401e740000001981612fad57fe5b0483111560405180604001604052806002815260200161068760f31b815250906130185760405162461bcd60e51b8152602060048201818152835160248401528351909283926044909101919085019080838360008315611ec6578181015183820152602001611eae565b506b033b2e3c9fd0803ce8000000600281611f09565b5460401c61ffff1690565b5467010000000000000016151590565b5460301c60ff1690565b604080518082019091526002815261035360f41b6020820152600090826130bb5760405162461bcd60e51b8152602060048201818152835160248401528351909283926044909101919085019080838360008315611ec6578181015183820152602001611eae565b5060408051808201909152600280825261068760f31b602083015283049061271082190485111561312d5760405162461bcd60e51b8152602060048201818152835160248401528351909283926044909101919085019080838360008315611ec6578181015183820152602001611eae565b5082816127108602018161313d57fe5b04949350505050565b613158826001600160a01b0316613576565b6131a9576040805162461bcd60e51b815260206004820152601f60248201527f5361666545524332303a2063616c6c20746f206e6f6e2d636f6e747261637400604482015290519081900360640190fd5b60006060836001600160a01b0316836040518082805190602001908083835b602083106131e75780518252601f1990920191602091820191016131c8565b6001836020036101000a0380198251168184511680821785525050505050509050019150506000604051808303816000865af19150503d8060008114613249576040519150601f19603f3d011682016040523d82523d6000602084013e61324e565b606091505b5091509150816132a5576040805162461bcd60e51b815260206004820181905260248201527f5361666545524332303a206c6f772d6c6576656c2063616c6c206661696c6564604482015290519081900360640190fd5b80511561294c578080602001905160208110156132c157600080fd5b505161294c5760405162461bcd60e51b815260040180806020018281038252602a815260200180613824602a913960400191505060405180910390fd5b6000818361334d5760405162461bcd60e51b8152602060048201818152835160248401528351909283926044909101919085019080838360008315611ec6578181015183820152602001611eae565b50600083858161335957fe5b0495945050505050565b604080518082019091526002815261035360f41b6020820152600090826133cb5760405162461bcd60e51b8152602060048201818152835160248401528351909283926044909101919085019080838360008315611ec6578181015183820152602001611eae565b5060408051808201909152600280825261068760f31b6020830152830490670de0b6b3a76400008219048511156134435760405162461bcd60e51b8152602060048201818152835160248401528351909283926044909101919085019080838360008315611ec6578181015183820152602001611eae565b508281670de0b6b3a76400008602018161313d57fe5b60008061346d4264ffffffffff8516611fe7565b9050612b4861347a6135af565b6301e133806134898785612a03565b8161349057fe5b0490611dd0565b6000611e2a8383425b6000806134b48364ffffffffff8616611fe7565b9050806134cb576134c36135af565b915050612f76565b60001981016000600283116134e15760006134e6565b600283035b90506301e13380870460006134fb8280612f7d565b905060006135098284612f7d565b90506000600261351d846127c38a8a612a03565b8161352457fe5b0490506000600661353b846127c389818d8d612a03565b8161354257fe5b0490506135668161356084816135588a8e612a03565b6135606135af565b90611dd0565b9c9b505050505050505050505050565b6000813f7fc5d2460186f7233c927e7db2dcc703c0e500b653ca82273b7bfad8045d85a470818114801590612b48575050151592915050565b6b033b2e3c9fd0803ce800000090565b60405180610280016040528060008152602001600081526020016000815260200160008152602001600081526020016000815260200160008152602001600081526020016000815260200160008152602001600081526020016000815260200160008152602001600081526020016000815260200160006001600160a01b0316815260200160006001600160a01b031681526020016000600281111561366157fe5b815260200160008152602001606081525090565b604051806102600160405280600081526020016000815260200160008152602001600081526020016000815260200160008152602001600081526020016000815260200160008152602001600081526020016000815260200160008152602001600081526020016000815260200160001515815260200160006001600160a01b03168152602001600015158152602001600015158152602001600081525090565b60405180610100016040528060006001600160a01b03168152602001600081526020016000815260200160008152602001600081526020016000815260200160008152602001600081525090565b6040518060e00160405280600081526020016000815260200160008152602001600081526020016000815260200160008152602001600081525090565b60405180610160016040528060008152602001600081526020016000815260200160008152602001600081526020016000815260200160008152602001600081526020016000815260200160008152602001600064ffffffffff168152509056fe536166654d6174683a206d756c7469706c69636174696f6e206f766572666c6f775361666545524332303a204552433230206f7065726174696f6e20646964206e6f742073756363656564a26469706673582212201a859834dcd02001fe337c26de5b2be79310c9ac2f46e186edae9f9615c6bba964736f6c634300060c0033",
  "linkReferences": {},
  "deployedLinkReferences": {}
}