{
  "_format": "hh-sol-artifact-1",
  "contractName": "UiPoolDataProviderV2",
  "sourceName": "contracts/misc/UiPoolDataProviderV2.sol",
  "abi": [
    {
      "inputs": [
        {
          "internalType": "contract IChainlinkAggregator",
          "name": "_networkBaseTokenPriceInUsdProxyAggregator",
          "type": "address"
        },
        {
          "internalType": "contract IChainlinkAggregator",
          "name": "_marketReferenceCurrencyPriceInUsdProxyAggregator",
          "type": "address"
        }
      ],
      "stateMutability": "nonpayable",
      "type": "constructor"
    },
    {
      "inputs": [],
      "name": "ETH_CURRENCY_UNIT",
      "outputs": [
        {
          "internalType": "uint256",
          "name": "",
          "type": "uint256"
        }
      ],
      "stateMutability": "view",
      "type": "function"
    },
    {
      "inputs": [],
      "name": "MKRAddress",
      "outputs": [
        {
          "internalType": "address",
          "name": "",
          "type": "address"
        }
      ],
      "stateMutability": "view",
      "type": "function"
    },
    {
      "inputs": [
        {
          "internalType": "bytes32",
          "name": "_bytes32",
          "type": "bytes32"
        }
      ],
      "name": "bytes32ToString",
      "outputs": [
        {
          "internalType": "string",
          "name": "",
          "type": "string"
        }
      ],
      "stateMutability": "pure",
      "type": "function"
    },
    {
      "inputs": [
        {
          "internalType": "contract ILendingPoolAddressesProvider",
          "name": "provider",
          "type": "address"
        }
      ],
      "name": "getReservesData",
      "outputs": [
        {
          "components": [
            {
              "internalType": "address",
              "name": "underlyingAsset",
              "type": "address"
            },
            {
              "internalType": "string",
              "name": "name",
              "type": "string"
            },
            {
              "internalType": "string",
              "name": "symbol",
              "type": "string"
            },
            {
              "internalType": "uint256",
              "name": "decimals",
              "type": "uint256"
            },
            {
              "internalType": "uint256",
              "name": "baseLTVasCollateral",
              "type": "uint256"
            },
            {
              "internalType": "uint256",
              "name": "reserveLiquidationThreshold",
              "type": "uint256"
            },
            {
              "internalType": "uint256",
              "name": "reserveLiquidationBonus",
              "type": "uint256"
            },
            {
              "internalType": "uint256",
              "name": "reserveFactor",
              "type": "uint256"
            },
            {
              "internalType": "bool",
              "name": "usageAsCollateralEnabled",
              "type": "bool"
            },
            {
              "internalType": "bool",
              "name": "borrowingEnabled",
              "type": "bool"
            },
            {
              "internalType": "bool",
              "name": "stableBorrowRateEnabled",
              "type": "bool"
            },
            {
              "internalType": "bool",
              "name": "isActive",
              "type": "bool"
            },
            {
              "internalType": "bool",
              "name": "isFrozen",
              "type": "bool"
            },
            {
              "internalType": "uint128",
              "name": "liquidityIndex",
              "type": "uint128"
            },
            {
              "internalType": "uint128",
              "name": "variableBorrowIndex",
              "type": "uint128"
            },
            {
              "internalType": "uint128",
              "name": "liquidityRate",
              "type": "uint128"
            },
            {
              "internalType": "uint128",
              "name": "variableBorrowRate",
              "type": "uint128"
            },
            {
              "internalType": "uint128",
              "name": "stableBorrowRate",
              "type": "uint128"
            },
            {
              "internalType": "uint40",
              "name": "lastUpdateTimestamp",
              "type": "uint40"
            },
            {
              "internalType": "address",
              "name": "aTokenAddress",
              "type": "address"
            },
            {
              "internalType": "address",
              "name": "stableDebtTokenAddress",
              "type": "address"
            },
            {
              "internalType": "address",
              "name": "variableDebtTokenAddress",
              "type": "address"
            },
            {
              "internalType": "address",
              "name": "creditTokensAddress",
              "type": "address"
            },
            {
              "internalType": "address",
              "name": "interestRateStrategyAddress",
              "type": "address"
            },
            {
              "internalType": "uint256",
              "name": "availableLiquidity",
              "type": "uint256"
            },
            {
              "internalType": "uint256",
              "name": "totalPrincipalStableDebt",
              "type": "uint256"
            },
            {
              "internalType": "uint256",
              "name": "averageStableRate",
              "type": "uint256"
            },
            {
              "internalType": "uint256",
              "name": "stableDebtLastUpdateTimestamp",
              "type": "uint256"
            },
            {
              "internalType": "uint256",
              "name": "totalScaledVariableDebt",
              "type": "uint256"
            },
            {
              "internalType": "uint256",
              "name": "priceInMarketReferenceCurrency",
              "type": "uint256"
            },
            {
              "internalType": "uint256",
              "name": "variableRateSlope1",
              "type": "uint256"
            },
            {
              "internalType": "uint256",
              "name": "variableRateSlope2",
              "type": "uint256"
            },
            {
              "internalType": "uint256",
              "name": "stableRateSlope1",
              "type": "uint256"
            },
            {
              "internalType": "uint256",
              "name": "stableRateSlope2",
              "type": "uint256"
            }
          ],
          "internalType": "struct IUiPoolDataProviderV2.AggregatedReserveData[]",
          "name": "",
          "type": "tuple[]"
        },
        {
          "components": [
            {
              "internalType": "uint256",
              "name": "marketReferenceCurrencyUnit",
              "type": "uint256"
            },
            {
              "internalType": "int256",
              "name": "marketReferenceCurrencyPriceInUsd",
              "type": "int256"
            },
            {
              "internalType": "int256",
              "name": "networkBaseTokenPriceInUsd",
              "type": "int256"
            },
            {
              "internalType": "uint8",
              "name": "networkBaseTokenPriceDecimals",
              "type": "uint8"
            }
          ],
          "internalType": "struct IUiPoolDataProviderV2.BaseCurrencyInfo",
          "name": "",
          "type": "tuple"
        }
      ],
      "stateMutability": "view",
      "type": "function"
    },
    {
      "inputs": [
        {
          "internalType": "contract ILendingPoolAddressesProvider",
          "name": "provider",
          "type": "address"
        }
      ],
      "name": "getReservesList",
      "outputs": [
        {
          "internalType": "address[]",
          "name": "",
          "type": "address[]"
        }
      ],
      "stateMutability": "view",
      "type": "function"
    },
    {
      "inputs": [
        {
          "internalType": "contract ILendingPoolAddressesProvider",
          "name": "provider",
          "type": "address"
        },
        {
          "internalType": "address",
          "name": "user",
          "type": "address"
        }
      ],
      "name": "getUserReservesData",
      "outputs": [
        {
          "components": [
            {
              "internalType": "address",
              "name": "underlyingAsset",
              "type": "address"
            },
            {
              "internalType": "uint256",
              "name": "scaledATokenBalance",
              "type": "uint256"
            },
            {
              "internalType": "bool",
              "name": "usageAsCollateralEnabledOnUser",
              "type": "bool"
            },
            {
              "internalType": "uint256",
              "name": "stableBorrowRate",
              "type": "uint256"
            },
            {
              "internalType": "uint256",
              "name": "scaledVariableDebt",
              "type": "uint256"
            },
            {
              "internalType": "uint256",
              "name": "principalStableDebt",
              "type": "uint256"
            },
            {
              "internalType": "uint256",
              "name": "stableBorrowLastUpdateTimestamp",
              "type": "uint256"
            }
          ],
          "internalType": "struct IUiPoolDataProviderV2.UserReserveData[]",
          "name": "",
          "type": "tuple[]"
        }
      ],
      "stateMutability": "view",
      "type": "function"
    },
    {
      "inputs": [],
      "name": "marketReferenceCurrencyPriceInUsdProxyAggregator",
      "outputs": [
        {
          "internalType": "contract IChainlinkAggregator",
          "name": "",
          "type": "address"
        }
      ],
      "stateMutability": "view",
      "type": "function"
    },
    {
      "inputs": [],
      "name": "networkBaseTokenPriceInUsdProxyAggregator",
      "outputs": [
        {
          "internalType": "contract IChainlinkAggregator",
          "name": "",
          "type": "address"
        }
      ],
      "stateMutability": "view",
      "type": "function"
    }
  ],
  "bytecode": "0x60c06040523480156200001157600080fd5b506040516200238f3803806200238f833981016040819052620000349162000053565b6001600160601b0319606092831b8116608052911b1660a052620000aa565b6000806040838503121562000066578182fd5b8251620000738162000091565b6020840151909250620000868162000091565b809150509250929050565b6001600160a01b0381168114620000a757600080fd5b50565b60805160601c60a05160601c6122a7620000e8600039806109d2528061130b52806113c952508061015f528061112252806111bc52506122a76000f3fe608060405234801561001057600080fd5b50600436106100885760003560e01c80639201de551161005b5780639201de55146101005780639dd9e2ce14610120578063d22cf68a14610128578063ec489c211461013057610088565b80630496f53a1461008d5780633c1740ed146100ab57806351974cc0146100c0578063586c1442146100e0575b600080fd5b610095610151565b6040516100a291906121e6565b60405180910390f35b6100b361015d565b6040516100a29190612054565b6100d36100ce366004611b56565b610181565b6040516100a29190612146565b6100f36100ee366004611b3a565b6107bf565b6040516100a29190612068565b61011361010e366004611b0a565b6108b2565b6040516100a291906121d3565b6100b36109b8565b6100b36109d0565b61014361013e366004611b3a565b6109f4565b6040516100a29291906120b5565b670de0b6b3a764000081565b7f000000000000000000000000000000000000000000000000000000000000000081565b60606000836001600160a01b0316630261bf8b6040518163ffffffff1660e01b815260040160206040518083038186803b1580156101be57600080fd5b505afa1580156101d2573d6000803e3d6000fd5b505050506040513d601f19601f820116820180604052508101906101f69190611a43565b90506060816001600160a01b031663d1946dbc6040518163ffffffff1660e01b815260040160006040518083038186803b15801561023357600080fd5b505afa158015610247573d6000803e3d6000fd5b505050506040513d6000823e601f3d908101601f1916820160405261026f9190810190611a5f565b905061027961176e565b604051634417a58360e01b81526001600160a01b03841690634417a583906102a5908890600401612054565b60206040518083038186803b1580156102bd57600080fd5b505afa1580156102d1573d6000803e3d6000fd5b505050506040513d601f19601f820116820180604052508101906102f59190611d28565b905060606001600160a01b03861661030e576000610311565b82515b67ffffffffffffffff8111801561032757600080fd5b5060405190808252806020026020018201604052801561036157816020015b61034e611781565b8152602001906001900390816103465790505b50905060005b83518110156107b2576103786117c9565b856001600160a01b03166335ea6a7586848151811061039357fe5b60200260200101516040518263ffffffff1660e01b81526004016103b79190612054565b6101a06040518083038186803b1580156103d057600080fd5b505afa1580156103e4573d6000803e3d6000fd5b505050506040513d601f19601f820116820180604052508101906104089190611c1a565b905084828151811061041657fe5b602002602001015183838151811061042a57fe5b60209081029190910101516001600160a01b03918216905260e0820151604051630ed1279f60e11b8152911690631da24f3e9061046b908b90600401612054565b60206040518083038186803b15801561048357600080fd5b505afa158015610497573d6000803e3d6000fd5b505050506040513d601f19601f820116820180604052508101906104bb9190611b22565b8383815181106104c757fe5b60209081029190910181015101526104df848361147c565b8383815181106104eb57fe5b602090810291909101015190151560409091015261050984836114dd565b156107a9578061012001516001600160a01b0316631da24f3e896040518263ffffffff1660e01b815260040161053f9190612054565b60206040518083038186803b15801561055757600080fd5b505afa15801561056b573d6000803e3d6000fd5b505050506040513d601f19601f8201168201806040525081019061058f9190611b22565b83838151811061059b57fe5b602002602001015160800181815250508061010001516001600160a01b031663c634dfaa896040518263ffffffff1660e01b81526004016105dc9190612054565b60206040518083038186803b1580156105f457600080fd5b505afa158015610608573d6000803e3d6000fd5b505050506040513d601f19601f8201168201806040525081019061062c9190611b22565b83838151811061063857fe5b602002602001015160a001818152505082828151811061065457fe5b602002602001015160a001516000146107a9578061010001516001600160a01b031663e78c9b3b896040518263ffffffff1660e01b81526004016106989190612054565b60206040518083038186803b1580156106b057600080fd5b505afa1580156106c4573d6000803e3d6000fd5b505050506040513d601f19601f820116820180604052508101906106e89190611b22565b8383815181106106f457fe5b602002602001015160600181815250508061010001516001600160a01b03166379ce6b8c896040518263ffffffff1660e01b81526004016107359190612054565b60206040518083038186803b15801561074d57600080fd5b505afa158015610761573d6000803e3d6000fd5b505050506040513d601f19601f820116820180604052508101906107859190611d83565b64ffffffffff1683838151811061079857fe5b602002602001015160c00181815250505b50600101610367565b5093505050505b92915050565b60606000826001600160a01b0316630261bf8b6040518163ffffffff1660e01b815260040160206040518083038186803b1580156107fc57600080fd5b505afa158015610810573d6000803e3d6000fd5b505050506040513d601f19601f820116820180604052508101906108349190611a43565b9050806001600160a01b031663d1946dbc6040518163ffffffff1660e01b815260040160006040518083038186803b15801561086f57600080fd5b505afa158015610883573d6000803e3d6000fd5b505050506040513d6000823e601f3d908101601f191682016040526108ab9190810190611a5f565b9392505050565b606060005b60208160ff161080156108e55750828160ff16602081106108d457fe5b1a60f81b6001600160f81b03191615155b156108f2576001016108b7565b60608160ff1667ffffffffffffffff8111801561090e57600080fd5b506040519080825280601f01601f191660200182016040528015610939576020820181803683370190505b509050600091505b60208260ff1610801561096f5750838260ff166020811061095e57fe5b1a60f81b6001600160f81b03191615155b156108ab57838260ff166020811061098357fe5b1a60f81b818360ff168151811061099657fe5b60200101906001600160f81b031916908160001a905350600190910190610941565b739f8f72aa9304c8b593d555f12ef6589cc3a579a281565b7f000000000000000000000000000000000000000000000000000000000000000081565b60606109fe61183c565b6000836001600160a01b031663fca513a86040518163ffffffff1660e01b815260040160206040518083038186803b158015610a3957600080fd5b505afa158015610a4d573d6000803e3d6000fd5b505050506040513d601f19601f82011682018060405250810190610a719190611a43565b90506000846001600160a01b0316630261bf8b6040518163ffffffff1660e01b815260040160206040518083038186803b158015610aae57600080fd5b505afa158015610ac2573d6000803e3d6000fd5b505050506040513d601f19601f82011682018060405250810190610ae69190611a43565b90506060816001600160a01b031663d1946dbc6040518163ffffffff1660e01b815260040160006040518083038186803b158015610b2357600080fd5b505afa158015610b37573d6000803e3d6000fd5b505050506040513d6000823e601f3d908101601f19168201604052610b5f9190810190611a5f565b90506060815167ffffffffffffffff81118015610b7b57600080fd5b50604051908082528060200260200182016040528015610bb557816020015b610ba2611867565b815260200190600190039081610b9a5790505b50905060005b825181101561111757610bcc611867565b828281518110610bd857fe5b60200260200101519050838281518110610bee57fe5b60209081029190910101516001600160a01b03168152610c0c6117c9565b81516040516335ea6a7560e01b81526001600160a01b038816916335ea6a7591610c399190600401612054565b6101a06040518083038186803b158015610c5257600080fd5b505afa158015610c66573d6000803e3d6000fd5b505050506040513d601f19601f82011682018060405250810190610c8a9190611c1a565b60208101516001600160801b039081166101a085015260408083015182166101c0860152606083015182166101e08601526080830151821661020086015260a083015190911661022085015260c082015164ffffffffff1661024085015260e08201516001600160a01b03908116610260860152610100830151811661028086015261012083015181166102a086015261016083015181166102c086015261014083015181166102e08601528451915163b3596f0760e01b815292935089169163b3596f0791610d5c91600401612054565b60206040518083038186803b158015610d7457600080fd5b505afa158015610d88573d6000803e3d6000fd5b505050506040513d601f19601f82011682018060405250810190610dac9190611b22565b6103a083015281516102608301516040516370a0823160e01b81526001600160a01b03909216916370a0823191610de591600401612054565b60206040518083038186803b158015610dfd57600080fd5b505afa158015610e11573d6000803e3d6000fd5b505050506040513d601f19601f82011682018060405250810190610e359190611b22565b826103000181815250508161028001516001600160a01b031663797743386040518163ffffffff1660e01b815260040160806040518083038186803b158015610e7d57600080fd5b505afa158015610e91573d6000803e3d6000fd5b505050506040513d601f19601f82011682018060405250810190610eb59190611d43565b64ffffffffff16610360860152610340850152506103208301526102a08201516040805163b1bf962d60e01b815290516001600160a01b039092169163b1bf962d91600480820192602092909190829003018186803b158015610f1757600080fd5b505afa158015610f2b573d6000803e3d6000fd5b505050506040513d601f19601f82011682018060405250810190610f4f9190611b22565b61038083015281516001600160a01b0316739f8f72aa9304c8b593d555f12ef6589cc3a579a2141561100857600082600001516001600160a01b03166395d89b416040518163ffffffff1660e01b815260040160206040518083038186803b158015610fba57600080fd5b505afa158015610fce573d6000803e3d6000fd5b505050506040513d601f19601f82011682018060405250810190610ff29190611b22565b9050610ffd816108b2565b604084015250611087565b81600001516001600160a01b03166395d89b416040518163ffffffff1660e01b815260040160006040518083038186803b15801561104557600080fd5b505afa158015611059573d6000803e3d6000fd5b505050506040513d6000823e601f3d908101601f191682016040526110819190810190611b8e565b60408301525b80516110929061152e565b60e0870152606086015260c085015260a0840152608083015280516110b690611559565b1515610140860152151561012085015215156101808401521515610160830152608082015115156101008301526102e08201516110f290611595565b6104208601526104008501526103e08401526103c09092019190915250600101610bbb565b5061112061183c565b7f00000000000000000000000000000000000000000000000000000000000000006001600160a01b03166350d25bcd6040518163ffffffff1660e01b815260040160206040518083038186803b15801561117957600080fd5b505afa15801561118d573d6000803e3d6000fd5b505050506040513d601f19601f820116820180604052508101906111b19190611b22565b8160400181815250507f00000000000000000000000000000000000000000000000000000000000000006001600160a01b031663313ce5676040518163ffffffff1660e01b815260040160206040518083038186803b15801561121357600080fd5b505afa158015611227573d6000803e3d6000fd5b505050506040513d601f19601f8201168201806040525081019061124b9190611d9f565b60ff16606082015260408051638c89b64f60e01b815290516001600160a01b03871691638c89b64f916004808301926020929190829003018186803b15801561129357600080fd5b505afa9250505080156112c3575060408051601f3d908101601f191682019092526112c091810190611b22565b60015b6113a5573d8080156112f1576040519150601f19603f3d011682016040523d82523d6000602084013e6112f6565b606091505b50670de0b6b3a76400008260000181815250507f00000000000000000000000000000000000000000000000000000000000000006001600160a01b03166350d25bcd6040518163ffffffff1660e01b815260040160206040518083038186803b15801561136257600080fd5b505afa158015611376573d6000803e3d6000fd5b505050506040513d601f19601f8201168201806040525081019061139a9190611b22565b60208301525061146f565b80670de0b6b3a7640000141561146257670de0b6b3a76400008260000181815250507f00000000000000000000000000000000000000000000000000000000000000006001600160a01b03166350d25bcd6040518163ffffffff1660e01b815260040160206040518083038186803b15801561142057600080fd5b505afa158015611434573d6000803e3d6000fd5b505050506040513d601f19601f820116820180604052508101906114589190611b22565b602083015261146d565b808252602082018190525b505b9095509350505050915091565b60006055821060405180604001604052806002815260200161373760f01b815250906114c45760405162461bcd60e51b81526004016114bb91906121d3565b60405180910390fd5b5050815160016003830281019190911c16151592915050565b60006055821060405180604001604052806002815260200161373760f01b8152509061151c5760405162461bcd60e51b81526004016114bb91906121d3565b50509051600160039092021c16151590565b5161ffff80821692601083901c821692602081901c831692603082901c60ff169260409290921c1690565b51670100000000000000811615159167020000000000000082161515916704000000000000008116151591670800000000000000909116151590565b600080600080846001600160a01b0316637b832f586040518163ffffffff1660e01b815260040160206040518083038186803b1580156115d457600080fd5b505afa1580156115e8573d6000803e3d6000fd5b505050506040513d601f19601f8201168201806040525081019061160c9190611b22565b856001600160a01b03166365614f816040518163ffffffff1660e01b815260040160206040518083038186803b15801561164557600080fd5b505afa158015611659573d6000803e3d6000fd5b505050506040513d601f19601f8201168201806040525081019061167d9190611b22565b866001600160a01b0316630bdf953f6040518163ffffffff1660e01b815260040160206040518083038186803b1580156116b657600080fd5b505afa1580156116ca573d6000803e3d6000fd5b505050506040513d601f19601f820116820180604052508101906116ee9190611b22565b876001600160a01b031663ccab01a36040518163ffffffff1660e01b815260040160206040518083038186803b15801561172757600080fd5b505afa15801561173b573d6000803e3d6000fd5b505050506040513d601f19601f8201168201806040525081019061175f9190611b22565b93509350935093509193509193565b6040518060200160405280600081525090565b6040518060e0016040528060006001600160a01b0316815260200160008152602001600015158152602001600081526020016000815260200160008152602001600081525090565b604051806101a001604052806117dd61176e565b815260006020820181905260408201819052606082018190526080820181905260a0820181905260c0820181905260e0820181905261010082018190526101208201819052610140820181905261016082018190526101809091015290565b6040518060800160405280600081526020016000815260200160008152602001600060ff1681525090565b60405180610440016040528060006001600160a01b031681526020016060815260200160608152602001600081526020016000815260200160008152602001600081526020016000815260200160001515815260200160001515815260200160001515815260200160001515815260200160001515815260200160006001600160801b0316815260200160006001600160801b0316815260200160006001600160801b0316815260200160006001600160801b0316815260200160006001600160801b03168152602001600064ffffffffff16815260200160006001600160a01b0316815260200160006001600160a01b0316815260200160006001600160a01b0316815260200160006001600160a01b0316815260200160006001600160a01b03168152602001600081526020016000815260200160008152602001600081526020016000815260200160008152602001600081526020016000815260200160008152602001600081525090565b80516107b981612246565b6000602082840312156119f2578081fd5b6119fc60206121ef565b9151825250919050565b80516001600160801b03811681146107b957600080fd5b805164ffffffffff811681146107b957600080fd5b805160ff811681146107b957600080fd5b600060208284031215611a54578081fd5b81516108ab81612246565b60006020808385031215611a71578182fd5b825167ffffffffffffffff80821115611a88578384fd5b818501915085601f830112611a9b578384fd5b815181811115611aa9578485fd5b8381029150611ab98483016121ef565b8181528481019084860184860187018a1015611ad3578788fd5b8795505b83861015611afd57611ae98a826119d6565b835260019590950194918601918601611ad7565b5098975050505050505050565b600060208284031215611b1b578081fd5b5035919050565b600060208284031215611b33578081fd5b5051919050565b600060208284031215611b4b578081fd5b81356108ab81612246565b60008060408385031215611b68578081fd5b8235611b7381612246565b91506020830135611b8381612246565b809150509250929050565b600060208284031215611b9f578081fd5b815167ffffffffffffffff80821115611bb6578283fd5b818401915084601f830112611bc9578283fd5b815181811115611bd7578384fd5b611bea601f8201601f19166020016121ef565b9150808252856020828501011115611c00578384fd5b611c11816020840160208601612216565b50949350505050565b60006101a0808385031215611c2d578182fd5b611c36816121ef565b9050611c4284846119e1565b8152611c518460208501611a06565b6020820152611c638460408501611a06565b6040820152611c758460608501611a06565b6060820152611c878460808501611a06565b6080820152611c998460a08501611a06565b60a0820152611cab8460c08501611a1d565b60c0820152611cbd8460e085016119d6565b60e0820152610100611cd1858286016119d6565b90820152610120611ce4858583016119d6565b90820152610140611cf7858583016119d6565b90820152610160611d0a858583016119d6565b90820152610180611d1d85858301611a32565b908201529392505050565b600060208284031215611d39578081fd5b6108ab83836119e1565b60008060008060808587031215611d58578182fd5b8451935060208501519250604085015191506060850151611d788161225e565b939692955090935050565b600060208284031215611d94578081fd5b81516108ab8161225e565b600060208284031215611db0578081fd5b6108ab8383611a32565b6000610440611dca848451611ff6565b6020830151816020860152611de182860182612009565b91505060408301518482036040860152611dfb8282612009565b915050606083015160608501526080830151608085015260a083015160a085015260c083015160c085015260e083015160e085015261010080840151611e4382870182612003565b505061012080840151611e5882870182612003565b505061014080840151611e6d82870182612003565b505061016080840151611e8282870182612003565b505061018080840151611e9782870182612003565b50506101a080840151611eac82870182612035565b50506101c080840151611ec182870182612035565b50506101e080840151611ed682870182612035565b505061020080840151611eeb82870182612035565b505061022080840151611f0082870182612035565b505061024080840151611f1582870182612042565b505061026080840151611f2a82870182611ff6565b505061028080840151611f3f82870182611ff6565b50506102a080840151611f5482870182611ff6565b50506102c080840151611f6982870182611ff6565b50506102e080840151611f7e82870182611ff6565b5050610300838101519085015261032080840151908501526103408084015190850152610360808401519085015261038080840151908501526103a080840151908501526103c080840151908501526103e0808401519085015261040080840151908501526104209283015192909301919091525090565b6001600160a01b03169052565b15159052565b60008151808452612021816020860160208601612216565b601f01601f19169290920160200192915050565b6001600160801b03169052565b64ffffffffff169052565b60ff169052565b6001600160a01b0391909116815260200190565b6020808252825182820181905260009190848201906040850190845b818110156120a95783516001600160a01b031683529284019291840191600101612084565b50909695505050505050565b600060a0820160a0835280855180835260c0850191506020925060c0838202860101838801855b8381101561210a5760bf198884030185526120f8838351611dba565b948601949250908501906001016120dc565b50508094505050508351818401528084015160408401525060408301516060830152606083015161213e608084018261204d565b509392505050565b602080825282518282018190526000919060409081850190868401855b828110156121c657815180516001600160a01b03168552868101518786015285810151151586860152606080820151908601526080808201519086015260a0808201519086015260c0908101519085015260e09093019290850190600101612163565b5091979650505050505050565b6000602082526108ab6020830184612009565b90815260200190565b60405181810167ffffffffffffffff8111828210171561220e57600080fd5b604052919050565b60005b83811015612231578181015183820152602001612219565b83811115612240576000848401525b50505050565b6001600160a01b038116811461225b57600080fd5b50565b64ffffffffff8116811461225b57600080fdfea264697066735822122049eb61d441482cdab5fcb1de3b7b093ff9e912d08d34c7c0d57b41cfafe9a85d64736f6c634300060c0033",
  "linkReferences": {},
  "deployedLinkReferences": {}
}